:020000040800F2
:10000000C80F002069020008A1190008391900086A
:100010009D190008F5040008E53300080000000001
:10002000000000000000000000000000292300087C
:1000300027180008000000002B1F0008ED29000809
:10004000830200088302000883020008830200087C
:10005000830200088302000883020008830200086C
:10006000830200088302000883020008830200085C
:10007000830200088302000883020008830200084C
:10008000830200088302000883020008830200083C
:10009000F9040008830200088302000883020008B4
:1000A000830200088302000883020008830200081C
:1000B000592A0008712A0008392B00088302000819
:1000C00083020008830200088302000883020008FC
:1000D00083020008852E0008692F000883020008AB
:1000E00083020008830200088302000883020008DC
:1000F00083020008830200088302000883020008CC
:100100008302000883020008012C00088302000813
:1001100083020008830200088302000883020008AB
:10012000830200088302000883020008830200089B
:10013000830200088302000883020008830200088B
:10014000850B000883020008830200088302000870
:10015000830200088302000883020008DD300008E3
:10016000830200088302000883020008830200085B
:10017000830200088302000883020008830200084B
:10018000830200088302000800F002F800F05CF827
:100190000AA090E8000C82448344AAF10107DA45E2
:1001A00001D100F051F8AFF2090EBAE80F0013F0D8
:1001B000010F18BFFB1A43F001031847C077000076
:1001C000E07700000A444FF0000C10F8013B13F0F8
:1001D000070408BF10F8014B1D1108BF10F8015BA0
:1001E000641E05D010F8016B641E01F8016BF9D193
:1001F00013F0080F1EBF10F8014BAD1C0C1B09D1EA
:100200006D1E58BF01F801CBFAD505E014F8016B5B
:1002100001F8016B6D1EF9D59142D6D370470000ED
:100220000023002400250026103A28BF78C1FBD8FF
:10023000520728BF30C148BF0B6070471FB507F099
:100240008AFB1FBD10B510BD00F0CFF81146FFF7B7
:10025000F5FF05F0D3FD00F0EDF803B4FFF7F2FF72
:1002600003BC00F0F5F80000094880470948004742
:10027000FEE7FEE7FEE7FEE7FEE7FEE7FEE7FEE756
:10028000FEE7FEE704480549054A064B70470000B3
:10029000F129000889010008C8090020C80F0020C2
:1002A000C80B0020C80B0020032A40F2308010F059
:1002B000030C00F0158011F8013BBCF1020F624401
:1002C00098BF11F801CB00F8013B38BF11F8013B92
:1002D000A2F1040298BF00F801CB38BF00F8013B3F
:1002E00011F0030300F04F80083AC0F0088051F885
:1002F000043B083A51F804CBA0E80810F5E7121DBA
:100300005CBF51F8043B40F8043BAFF30080D207D8
:1003100024BF11F8013B11F801CB48BF11F8012BA4
:1003200024BF00F8013B00F801CB48BF00F8012BC7
:1003300070474FF0000200B51346944696462039A8
:1003400022BFA0E80C50A0E80C50B1F12001BFF48E
:10035000F7AF090728BFA0E80C5048BF0CC05DF8F4
:1003600004EB890028BF40F8042B08BF704748BF42
:1003700020F8022B11F0804F18BF00F8012B7047B6
:1003800070477047704710B5203AC0F00B80B1E855
:100390001850203AA0E81850B1E81850A0E81850BA
:1003A000BFF4F5AF5FEA027C24BFB1E81850A0E8C3
:1003B000185044BF18C918C0BDE810405FEA827CDD
:1003C00024BF51F8043B40F8043B08BF7047D207F4
:1003D00028BF31F8023B48BF11F8012B28BF20F895
:1003E000023B48BF00F8012B7047754600F02CF81F
:1003F000AE4605006946534620F00700854618B012
:1004000020B5FFF73FFFBDE820404FF000064FF05A
:1004100000074FF000084FF0000B21F00701AC4639
:10042000ACE8C009ACE8C009ACE8C009ACE8C00958
:100430008D46704710B50446AFF300802046BDE8F6
:100440001040FFF70ABF000000487047680900200D
:1004500001491820ABBEFEE72600020070470000ED
:1004600010B50D4890F90000012806D0022807D0E9
:10047000032808D004280CD108E002F0B5FF08E0FA
:1004800003F0F0F805E003F037FA02E003F036FB82
:1004900000BF00BF10BD00006002002010B514486E
:1004A00090F90100092821D2DFE800F00508110BBE
:1004B000140E171A1D0003F057FC17E003F0BAFCE6
:1004C00014E004F023F811E004F0C4F90EE003F0A6
:1004D00003FE0BE004F0BCF908E004F04DFB05E07E
:1004E00004F058FD02E004F063FF00BF00BF10BD40
:1004F0006002002000BFFEE7F0B585B00221FE4893
:1005000000F024FD00287DD00221FB4800F046FCCD
:10051000FA49F94800F026FC6A460021F64800F046
:1005200038FEF7480068B0F57A7F04DAF4480068CE
:10053000401CF3490860F2480068B0F57A7F03DB9D
:100540004FF47A70EE4908600098A0F20120072865
:100550007ED2DFE800F004AAFDFCFBFAF900E848CF
:100560000068B0F57A7F0DDA9DF80C009DF80B104D
:1005700040EA012000B2E349088008460088E249C9
:1005800008805FE0DF480088E04908809DF80C00A3
:100590009DF80B1040EA012000B2DA4908800846B5
:1005A000B0F90000D949B1F90010401AB0F5805FE8
:1005B00010DDD7480088401E00B2D5490880D148D8
:1005C0000088D2490988401AA0F5005000B2CD49F0
:1005D000C88024E0CB48B0F90000CC49B1F9001044
:1005E000401A10F5805F12DAC9480088401C00B23A
:1005F000C7490880C3480088C4490988401A00F5E3
:10060000005000E0A2E200B2BE49C88007E0BD4849
:100610000088BE490988401A00B2BA49C880B94862
:10062000B0F90010BA48B0F9000001EB4030B6490B
:10063000B1F90010401A00EE100AB8EEC00AB54831
:1006400080ED000A0024AF48B0F90610B24800E07F
:1006500049E202680068401CAF4B1860AF4840F8A0
:10066000221018460068052802DB002019460860A1
:10067000002005E0A94951F820100C44411CC8B2E3
:100680000528F7DB052094FBF0F000EE100AB8EE29
:10069000C00ADFEDA30A20EE200ABDEEC00A10EE6C
:1006A000100A00B2974948804FE295480068B0F5BB
:1006B0007A7F0DDA9DF80C009DF80B1040EA0120BE
:1006C00000B298490880084600889749088063E08E
:1006D00094480088954908809DF80C009DF80B10FF
:1006E00040EA012000B28F4908800846B0F90000B6
:1006F0008E49B1F90010401AB0F5805F10DD8C48CA
:100700000088401E00B28A490880864800888749D0
:100710000988401AA0F5005000B28249C88028E03C
:100720008048B0F900008149B1F90010401A10F575
:10073000805F16DA7E480088401C00B27C49088041
:1007400078480088794904E0E4E1D8E1CCE129E186
:1007500053E00988401A00F5005000B27149C88082
:1007600007E07048008871490988401A00B26D4955
:10077000C8806C48B0F900106D48B0F9000001EB7A
:1007800040306949B1F90010401A00EE100AB8EE85
:10079000C00A684880ED000A00256248B0F90610DA
:1007A000654802680068401C634B1860634840F865
:1007B000221018460068052802DB00201946086050
:1007C000002005E05D4951F820100D44411CC8B2DD
:1007D0000528F7DB052095FBF0F000EE100AB8EED7
:1007E000C00ADFED4F0A20EE200ABDEEC00A10EE6F
:1007F000100A00B24B494880A7E141480068B0F5B3
:100800007A7F0DDA9DF80C009DF80B1040EA01206C
:1008100000B24B490880084600884A4908805DE0DC
:1008200047480088484908809DF80C009DF80B1047
:1008300040EA012000B2424908800846B0F90000B1
:100840004149B1F90010401AB0F5805F10DD3F4812
:100850000088401E00B23D490880394800883A4966
:100860000988401AA0F5005000B23549C88022E03E
:100870003348B0F900003449B1F90010401A10F5BE
:10088000805F10DA31480088401C00B22F49088090
:100890002B4800882C490988401A00F5005000B206
:1008A0002749C88007E02648008827490988401A58
:1008B00000B22349C8802248B0F900102348B0F99B
:1008C000000001EB40301F49B1F90010401A00EE62
:1008D000100AB8EEC00A1E4880ED000A002618482B
:1008E000B0F906101B4802680068401C194B1860DC
:1008F000194840F8221031E0006400400300001263
:1009000078000020A8000020C8000020D0000020AF
:10091000D8000020E00000207C000020F003002030
:10092000355EEA40B0000020CA000020D20000205E
:10093000DA000020E40000208000002004040020F1
:10094000B8000020CC000020D4000020DC000020F3
:10095000E8000020840000201804002018460068E9
:10096000052802DB002019460860002005E07849D0
:1009700051F820100E44411CC8B20528F7DB0520B1
:1009800096FBF0F000EE100AB8EEC00A5FED1C0A0C
:1009900020EE200ABDEEC00A10EE100A00B26D492A
:1009A0004880D2E06C480068B0F57A7F0DDA9DF897
:1009B0000C009DF80B1040EA012000B26749088046
:1009C00008460088664908805DE0644800886549FB
:1009D00008809DF80C009DF80B1040EA012000B241
:1009E0005E4908800846B0F900005E49B1F9001080
:1009F000401AB0F5805F10DD5B480088401E00B2F1
:100A0000594908805548008856490988401AA0F578
:100A1000005000B25149C88022E05048B0F90000AF
:100A20005049B1F90010401A10F5805F10DA4E48B5
:100A30000088401C00B24C49088048480088494959
:100A40000988401A00F5005000B24449C88007E008
:100A50004248008843490988401A00B23F49C8808B
:100A60003E48B0F900104048B0F9000001EB4030BA
:100A70003B49B1F90010401A00EE100AB8EEC00A66
:100A80003A4880ED000A00273448B0F9061038488B
:100A900002680068401C364B1860364840F8221047
:100AA00018460068052802DB00201946086000206F
:100AB00005E0304951F820100F44411CC8B2052808
:100AC000F7DB052097FBF0F000EE100AB8EEC00A45
:100AD0005FED6D0A20EE200ABDEEC00A10EE100A8E
:100AE00000B21E49488030E01B480068B0F57A7FAC
:100AF00004DB0DF10B01204800F096FE25E01648BE
:100B00000068B0F57A7F04DB0DF10B011B4800F0A3
:100B10008BFE1AE010480068B0F57A7F14DB0DF107
:100B20000B01174800F080FE0DF10D011448801CE8
:100B300000F07AFE0DF10F011148001D00F074FE67
:100B40009DF811000E49C88000BF00BF05B0F0BD80
:100B500018040020B800002078000020C000002009
:100B6000CE000020D6000020DE000020EC00002097
:100B7000880000202C040020500100205801002093
:100B80006201002000B52DED088B85B002216C4874
:100B900000F0DCF960B10221694800F0FFF8694912
:100BA000674800F0DFF86A460021654800F0F1FA76
:100BB0000098A0F2592000287ED1634800780228CE
:100BC0002AD19DF80A00082826D19DF80B109DF81F
:100BD0000C0041EA002001B25C48C1819DF80D1073
:100BE0009DF80E0041EA002001B2584801829DF8AC
:100BF0000F109DF8100041EA002001B253484182D5
:100C00009DF811109DF8120041EA002001B24F48F2
:100C1000818200204C4908704B480078012863D13C
:100C20009DF80A0008285FD149480068401C4849DF
:100C300008609DF80B109DF80C0041EA002000B2FE
:100C4000424908809DF80D109DF80E0041EA0020F1
:100C500000B23E494880084690ED020A10EE101A94
:100C6000084606F007FE41EC190B9DF80F209DF891
:100C7000101042EA012006F08CFB41EC1B0B9FEDAB
:100C8000350B53EC102B06F0FDF941EC1A0B53EC2D
:100C9000192B06F005FD41EC180B06F00DF92B4958
:100CA0004860084690ED010AB5EEC00AF1EE10FA70
:100CB00009D290ED010A00E03CE0DFED280A30EEB9
:100CC000200A80ED010A9DF811109DF8120041EAFA
:100CD000002000B21D49888121480078C043204986
:100CE00008700220184908701748007808BB9DF862
:100CF0000A0006281DD19DF80B109DF80C0041EA52
:100D0000002001B21148C1829DF80D109DF80E001F
:100D100041EA002000B20D4988829DF80F109DF82D
:100D2000100041EA002000B20849C88201200649AB
:100D3000087000BF00BF05B0BDEC088B00BD00000F
:100D400000680040030000128C0000207C0300209B
:100D50009000002000000000000059400000B44353
:100D60008F00002000220C4B994202D100238361A6
:100D700011E0C1F3130201F000730BB1C2600AE08D
:100D800001F080630BB1026105E001F000630BB17B
:100D9000826000E0426070477000F030B1F5007F83
:100DA0003AD00FDC202928D006DC01291CD00429E8
:100DB0001DD0082940D11DE0402921D0B1F5807F08
:100DC0003AD126E0B1F5004F31D006DCB1F5806FA5
:100DD00025D0B1F5006F2FD124E0B1F5803F12D0BE
:100DE000B1F5003F28D111E0154A826025E00822C4
:100DF000C26022E01022C2601FE0082202611CE0F3
:100E00001022026119E00822426016E010224260BE
:100E100013E00422426010E0042242600DE004224C
:100E200042600AE0002282610422426005E0002262
:100E300082610422426000E000BF00BF70470000F2
:100E40000101010010B50021837A012202FA03F1A9
:100E50003D4A126842F001023B4B1A603A4A1C328A
:100E600012688A43384B1C331A60027BCAB9364A6F
:100E70000C3212688A43344B0C331A604288C388A0
:100E800042EA0343304A4032847A42F834300288DE
:100E9000838842EA03432C4A4032847A02EBC4023C
:100EA0005360027B012A19D1274A0C3212680A4387
:100EB000254B0C331A604288038842EA0343224AD6
:100EC0004032847A42F83430C288838842EA03434D
:100ED0001D4A4032847A02EBC4025360C27A3AB9A6
:100EE000194A121D12688A43174B1B1D1A6006E02F
:100EF000154A121D12680A43134B1B1D1A60028902
:100F000032B9114A143212688A430F4B14331A60F3
:100F10000289012A06D10C4A143212680A430A4B8C
:100F200014331A60427B012A06D1074A1C32126828
:100F30000A43054B1C331A60034A126822F001026F
:100F4000014B1A6010BD00000066004070B50446F9
:100F50000D46002660692840002871D0B5F5807FD5
:100F60005CD010DC082D35D006DC012D20D0022D00
:100F700024D0042D72D127E0102D31D0202D35D072
:100F8000402D6BD138E0B5F5004F60D009DCB5F5E8
:100F9000007F49D0B5F5806F4CD0B5F5006F5DD1BD
:100FA0004FE0B5F5803F2DD0B5F5003F56D12FE08D
:100FB000A0682D4900F0F6FA064651E0E0680321EA
:100FC00000F0F0FA06464BE0E068082100F0EAFA8B
:100FD000064645E0E068102100F0E4FA06463FE0EE
:100FE0002069032100F0DEFA064639E02069082175
:100FF00000F0D8FA064633E02069102100F0D2FA5A
:1010000006462DE06068082100F0CCFA064627E08D
:101010006068102100F0C6FA064621E0A0690121AF
:1010200000F0C0FA06461BE0A069022100F0BAFAFF
:10103000064615E0A069042100F0B4FA06460FE068
:101040000FE0A069702100F0ADFA064608E0606884
:10105000042100F0A7FA064602E0FFE7002600BFE1
:1010600000E00026304670BD010101001AB143695D
:101070000B43436102E043698B434361704730B5E2
:10108000024600200023146824F00204146014684F
:1010900044F00104146000E05B1C546804F0010497
:1010A0001CB94FF6FF74A342F6D1546804F0010452
:1010B0000CB900206CE08C79012C04D1146844F048
:1010C0008004146003E0146824F080041460CC7978
:1010D000012C04D1146844F04004146003E0146847
:1010E00024F0400414600C7A012C04D1146844F0FC
:1010F0002004146003E0146824F0200414604C7A87
:10110000012C04D1146844F01004146003E0146846
:1011100024F0100414608C7A012C04D1146844F07B
:101120000804146003E0146824F008041460CC7A06
:10113000012C04D1146844F00404146003E0146822
:1011400024F0040414608C78A407CD7844EA056484
:101150000D7944EA05444D7944EA05540D886D1E25
:101160002C43D461146824F001041460002300E0CF
:101170005B1C546804F001041CB14FF6FF74A342D9
:10118000F6D1546804F001040CB1002000E0012005
:1011900030BD10B500F5D87303EB01131B6803F0E5
:1011A00004031372137A53B900F5D87303EB0113D8
:1011B0001B6840F2FF7404EA5353136009E000F522
:1011C000D87303EB01131B686FF0604404EAD30388
:1011D000536000F5D87303EB01131B6803F002039F
:1011E000537200F5D87303EB01135B6803F00F0330
:1011F000937200F5D87303EB01135B681B0AD37479
:1012000000F5D87303EB01139B68D37200F5D87314
:1012100003EB01139B681C0A147300F5D87303EBEE
:1012200001139B681C0C547300F5D87303EB011376
:101230009B681B0E937300F5D87303EB0113DB68F7
:10124000D37300F5D87303EB0113DB681C0A147425
:1012500000F5D87303EB0113DB681C0C547400F524
:10126000D87303EB0113DB681B0E937421B9C368B9
:1012700043F02003C36003E0036943F020030361EC
:1012800010BD10B502460020936803F08063B3F1EF
:10129000806F00D110E0936803F00063B3F1006F3A
:1012A00001D1012008E0936803F08053B3F1805F1F
:1012B00001D1022000E00420042874D002F5C0739C
:1012C00003EB00131B6803F0010402F5C07303EB8A
:1012D00000131C600B7A7BB94B7A0C8843EA4453A9
:1012E00002F5C07404EB00142468234302F5C074B3
:1012F00004EB0014236010E00B7A4C6843EAC4034B
:101300004C7A234302F5C07404EB00142468234391
:1013100002F5C07404EB001423608B7A03F00F0312
:101320008B7202F5C07303EB00135B6823F00F04AC
:1013300002F5C07303EB00135C6002F5C07303EBAE
:1013400000135B688C7A234302F5C07404EB00142D
:1013500063608B7B1C064B7B44EA03440B7B44EAB3
:101360000323CC7A234302F5C07404EB0014A3607A
:101370008B7C1C064B7C44EA03440B7C44EA03232D
:10138000CC7B234302F5C07404EB0014E36002F548
:10139000C07303EB00131B6843F0010402F5C07334
:1013A00003EB00131C6010BD00B58BB00121480693
:1013B00000F0CCFD0121082000F0B8FD03200690CC
:1013C00002208DF81C0000208DF81E0003208DF8EF
:1013D0001D0001208DF81F0006A9304800F02BFAEF
:1013E000092200212D4800F06EFA092201212B4824
:1013F00000F069FA00208DF826008DF827008DF89E
:10140000280001208DF8290000208DF82A000120F5
:101410008DF82B0000208DF822008DF82300082085
:101420008DF8240003208DF82500ADF8200008A9D0
:101430001B48FFF724FE00208DF812008DF81300E2
:1014400001208DF814000020ADF80800ADF80A0066
:10145000ADF80C00ADF80E00ADF8100001208DF8CD
:10146000150002A8FFF7EEFC14208DF80400002000
:101470008DF805008DF8060001208DF8070001A801
:1014800000F090FA012202210548FFF7EFFD01224A
:1014900011460348FFF7EAFD0BB000BD000C024007
:1014A0000064004000B58BB00121880600F04EFDBD
:1014B0000121022000F03AFD4FF440500690022036
:1014C0008DF81C0000208DF81E0003208DF81D00F3
:1014D00001208DF81F0006A9304800F0ACF9092260
:1014E0000C212E4800F0EFF909220D212B4800F0C5
:1014F000EAF900208DF826008DF827008DF82800E5
:101500008DF829008DF82A0001208DF82B0000208D
:101510008DF822008DF8230008208DF82400032088
:101520008DF82500ADF8200008A91D48FFF7A7FD9C
:101530000E208DF8120000208DF8130001208DF888
:1015400014000020ADF80800ADF80A00ADF80C005A
:10155000ADF80E00ADF8100001208DF8150002A8BE
:10156000FFF770FC40208DF8040003208DF8050083
:1015700000208DF8060001208DF8070001A800F07A
:1015800011FA012202210648FFF770FD01221146DF
:101590000348FFF76BFD0BB000BD000000040240E4
:1015A000006800400246002002EA01030BB101205E
:1015B00000E00020704700000246094B9A4201D229
:1015C000084801E00648103801F000531BB1064BF3
:1015D0000B40C36002E0044B0B4083607047000087
:1015E00010640240006002407D0F7D0F21B102684F
:1015F00042F00102026003E0026822F00102026090
:1016000070470000016821F00101016000210160C4
:1016100041608160C1600161212141614A49884284
:1016200004D13D21484A103A91608CE04649183176
:10163000884205D14FF47461434A103A916082E0C8
:1016400041493031884205D14FF474113E4A103A75
:10165000916078E03C494831884205D14FF074618F
:10166000394A103A91606EE037496031884204D1BE
:101670003649354A103AD16065E0334978318842BD
:1016800004D13349304A103AD1605CE02E499031A0
:10169000884204D12F492C4A103AD16053E02A499C
:1016A000A831884205D14FF03D51274A103AD16008
:1016B00049E02949884204D13D21274A083A11606E
:1016C00041E025491831884205D14FF47461224A1E
:1016D000083A116037E020493031884205D14FF493
:1016E00074111D4A083A11602DE01B4948318842A7
:1016F00005D14FF07461184A083A116023E0164989
:101700006031884204D11149134A121F11601AE056
:1017100011497831884204D10D490F4A121F1160D6
:1017200011E00D499031884204D10A490A4A121F3A
:10173000116008E00849A831884204D14FF03D51BA
:10174000054A121F11607047106002403D000020E2
:10175000400F002000003D201064024021B10268CB
:1017600042F48022026003E0026822F480220260D8
:10177000704722B1036843F40023036003E0036869
:1017800023F400230360016170470146486880B27A
:101790007047014600200A6802F400220AB10120C5
:1017A00000E000207047000010B500220268134BD3
:1017B0001A40CC680B6823434C6923438C6923434C
:1017C000CC6923430C6A23434C6A23438C6A23432A
:1017D0004C6B23438C6B23431A430260426922F013
:1017E0000702D1E90B3423431A4342610B6943607A
:1017F0004B6883608B68C36010BD00003F801CF0A5
:10180000416070470021016041608160C1600161F9
:1018100041618161C161016241628162C1620163B2
:1018200041638163704770474A780B7842EA03222C
:1018300012B202807047F0B50A460021002300244E
:1018400000BF3DE0012505FA01F3156805EA030430
:101850009C4234D105684F000326BE40B543056065
:1018600015794E00B5400668354305601579012DA0
:1018700002D01579022D16D185684F000326BE408F
:10188000B543856055794E00B5408668354385601F
:10189000456801268E40B5434560456896798E407F
:1018A000B6B235434560C5684F000326BE40B54318
:1018B000C560D5794E00B540C6683543C560491C42
:1018C0001029BFD3F0BDF0B5002300244D07ED0E65
:1018D00002FA05F3CE1000F1200555F826504E0708
:1018E000F70E0F26BE40B543CF1000F1200646F894
:1018F0002750CE1000F1200555F8265045EA030484
:10190000CE1000F1200545F82640F0BD024600202B
:1019100013690B400BB1012000E0002070474183A8
:101920007047018370474FF6FF710160002101711C
:1019300041718171C171704700BFFEE770B5054606
:101940000C46164640210C48FFF7E9FF45F080059C
:10195000284600F095FC04E0FF2000F091FC207088
:10196000641C301EA6F101018EB2F5D1402102485F
:10197000FFF7D7FF70BD0000001402404FF448701D
:10198000054908804FF4FA7048800020A1F86800EB
:10199000A1F86A0070470000F808002000BFFEE7C9
:1019A0007047000070B5002100230F22C4781CB3DB
:1019B000174C246804F4E064C4F5E064C4F3072120
:1019C000C1F10404E3B20A4144789C40E1B2847856
:1019D000144021430C07210E0E4C05786155047804
:1019E00004F01F050124AC4005786D11AD0005F130
:1019F000E025C5F8004109E0047804F01F05012442
:101A0000AC40054D0678761145F8264070BD0000C3
:101A10000CED00E000E400E080E100E010B52DED09
:101A20000C8B0446B0EE408AF0EE608AB0EE419A2C
:101A3000F0EE619A9FED8B0BB0EE40BAF0EE60BA1B
:101A40009FED880BB0EE40CAF0EE60CA9FED850BAB
:101A5000B0EE40DAF0EE60DA53EC182B51EC190BD3
:101A600005F01EFEC4E9060194ED002BB0EE420A1B
:101A7000F0EE620A94ED062BB0EE421AF0EE621A16
:101A800053EC102B51EC110B05F0D6FCC4E90A0104
:101A900094ED022BB0EE420AF0EE620A94ED062BB2
:101AA000B0EE421AF0EE621A53EC102B51EC110B0F
:101AB00005F0C2FC41EC1A0B94ED0C1BB0EE410A90
:101AC000F0EE610A53EC102B05F028FAC4E90C0182
:101AD00094ED102BB0EE420AF0EE620A94ED0C2B5E
:101AE000B0EE421AF0EE621A53EC102B51EC110BCF
:101AF00005F0A0FD04D894ED100B84ED0C0B22E052
:101B000094ED101BB0EE410AF0EE610A51EC100B9F
:101B100005F0C6F941EC1A0B94ED0C1BB0EE410A2E
:101B2000F0EE610A53EC102B05F084FD0BD894ED18
:101B3000101BB0EE410AF0EE610A51EC100B05F0FB
:101B4000AFF9C4E90C0194ED082BB0EE420AF0EEB7
:101B5000620A94ED062BB0EE421AF0EE621A53ECD4
:101B6000102B51EC110B05F09BFD41EC1A0B94ED81
:101B7000041BB0EE410AF0EE610A53EC102B05F0A5
:101B80005BFCC4E90E0194ED060B84ED080B94EDAB
:101B90000C2BB0EE420AF0EE620A94ED0A2BB0EE86
:101BA000421AF0EE621A53EC102B51EC110B05F0B7
:101BB000B5F941EC1A0B94ED0E1BB0EE410AF0EEB4
:101BC000610A53EC102B05F0A9F9C4E9140194ED56
:101BD000122BB0EE420AF0EE620A94ED142BB0EE36
:101BE000421AF0EE621A53EC102B51EC110B05F077
:101BF00021FD04D894ED120B84ED140B22E094ED3A
:101C0000121BB0EE410AF0EE610A51EC100B05F028
:101C100047F941EC1A0B94ED141BB0EE410AF0EEBB
:101C2000610A53EC102B05F005FD0BD894ED121B47
:101C3000B0EE410AF0EE610A51EC100B05F030F9FC
:101C4000C4E9140194ED141BB0EE410AF0EE610AF0
:101C500051EC100B05F030F900EE100ABDEC0C8BC6
:101C600010BD0000000000000000000010B5044698
:101C700058212046FEF75DFB10BD000010B56848F6
:101C8000FFF7F4FF9FED674B9FED683B9FED692BDE
:101C90009FED6A1B9FED6B0B614800F03BF96B48B1
:101CA000FFF7E4FF9FED5F4B9FED603B9FED612BE6
:101CB0009FED621B9FED630B644800F02BF96448B5
:101CC000FFF7D4FF9FED574B9FED583B9FED592BEE
:101CD0009FED5A1B9FED5B0B5D4800F01BF95D48C3
:101CE000FFF7C4FF9FED4F4B9FED503B9FED512BF6
:101CF0009FED521B9FED530B564800F00BF95648D1
:101D0000FFF7B4FF9FED554B9FED563B9FED572BD3
:101D10009FED581B9FED590B4F4800F0FBF85948B9
:101D2000FFF7A4FF9FED3F4B9FED573B9FED582BD7
:101D30009FED591B9FED5A0B524800F0EBF85A48A3
:101D4000FFF794FF9FED594B9FED5A3B9FED472BBB
:101D50009FED511B9FED590B534800F0DBF859489C
:101D6000FFF784FF9FED2F4B9FED473B9FED482BE7
:101D70009FED491B9FED4A0B524800F0CBF85248AB
:101D8000FFF774FF9FED354B9FED363B9FED372BF3
:101D90009FED4E1B9FED4F0B4B4800F0BBF84F489B
:101DA000FFF764FF9FED1F4B9FED373B9FED3C2BF3
:101DB0009FED391B9FED4A0B484800F0ABF84A48AD
:101DC000FFF754FF9FED394B9FED483B9FED272BCD
:101DD0009FED3E1B9FED470B434800F09BF84748A3
:101DE000FFF744FF9FED0F4B9FED273B9FED2C2B03
:101DF0009FED291B9FED3A0B404800F08BF84048BF
:101E0000FFF734FF9FED074B9FED3E3B9FED172BF8
:101E10009FED3E1B9FED270B394800F07BF810BD6E
:101E200068040020000000000088C340000000009B
:101E300000409F400000000000002440000000001F
:101E40000000E03F0000000000004940C004002006
:101E50001805002070050020780600200000000012
:101E6000000010409A9999999999D93F0000000073
:101E7000000000002D431CEBE2361A3F7B14AE47F6
:101E8000E17A843FC80500200000000000005940AE
:101E90000000000000C06240FCA9F1D24D62503F3A
:101EA0000000000000408F40D0060020000000002D
:101EB00000000840000000000000F03F7B14AE4727
:101EC000E17A943F2006002028070020F168E3888B
:101ED000B5F8E43E7B14AE47E17A743FD8070020A2
:101EE0000000000000C09240300800209A999999A3
:101EF0009999E93FFA7E6ABC7493683F8007002095
:101F000088080020000000000088B340BA490C0295
:101F10002B87863F80ED000B80ED021B80ED042BAC
:101F200080ED103B80ED124B7047704729B1064A97
:101F300012680243044B1A6004E0034A12688243A9
:101F4000014B1A60704700003038024029B1064A40
:101F500012680243044B1A6004E0034A1268824389
:101F6000014B1A60704700004038024029B1064A10
:101F700012680243044B1A6004E0034A1268824369
:101F8000014B1A60704700002038024029B1064A10
:101F900012680243044B1A6004E0034A1268824349
:101FA000014B1A60704700004438024029B1064ACC
:101FB00012680243044B1A6004E0034A1268824329
:101FC000014B1A607047000024380240F0B5002130
:101FD00000220024022500260223324F3F6807F02A
:101FE0000C0121B1042905D0082937D105E02E4F75
:101FF000076036E02D4F076033E02A4F3F1F3F68F0
:10200000C7F38056274F3F1F3F6807F03F036EB16D
:10201000264FB7FBF3F7DFF88CC0ACF1040CDCF80B
:1020200000C0CCF3881C07FB0CF40CE01E4FB7FB80
:10203000F3F7DFF870C0ACF1040CDCF800C0CCF3AF
:10204000881C07FB0CF4174F3F1F3F68C7F301477D
:102050007F1C7D00B4FBF5F7076002E0124F0760BC
:1020600000BF00BF0F4F3F6807F0F0010909104F94
:102070007A5C0768D74047600A4F3F6807F4E05131
:10208000890A0B4F7A5C4768D7408760054F3F68E5
:1020900007F46041490B064F7A5C4768D740C76038
:1020A000F0BD0000083802400024F400001BB70017
:1020B000C401002000B5014601B900BD08784A7886
:1020C00040EA0220C0F30A00304A10804878C0106D
:1020D0008A7840EA4210C0F30A002C4A508088787F
:1020E0008011CA7840EA82000A7940EA8220C0F36F
:1020F0000A00264A9080087940104A7940EAC210C6
:10210000C0F30A00214AD08048790011800810816C
:102110004879C0F3011050818879CA7940EA0220D9
:102120001A4A9081087A4A7A40EA02221748C28104
:10213000887ACA7A40EA0222144802820A7B4282E2
:102140004A7B8282887BCA7B40EA02200F4A9075D4
:1021500010464089012804D0022813D0032812D148
:1021600002E004F093F90EE00020094A1060094AE9
:102170001060094A1080094A1080094A1080094AF3
:10218000108000E000BF00BF00BF96E7E00800201D
:10219000D4010020D801002000010020020100200D
:1021A000040100200601002000B587B00121202095
:1021B000FFF7BCFE01210805FFF7E8FE402005906F
:1021C00001208DF8180000208DF81A0003208DF8EA
:1021D000190001208DF81B0005A92748FFF72BFBEC
:1021E0004FF46070059002208DF8180000208DF8E3
:1021F0001A0003208DF8190001208DF81B0005A995
:102200001D48FFF718FB052207211B48FFF75BFB62
:10221000052209211848FFF756FB05220821164818
:10222000FFF751FB01210805FFF7B0FE0020ADF8D4
:1022300000004FF48270ADF802000020ADF80400F9
:102240000220ADF806000120ADF808004002ADF80C
:102250000A003820ADF80C000020ADF80E000A206E
:10226000ADF810006946054800F040F80121034828
:1022700000F022F807B000BD0014024000500140F9
:1022800010B5044600BF02210A4800F021F80028DA
:10229000F9D02146074800F027F800BF0121054882
:1022A00000F016F80028F9D0024800F01AF8C0B281
:1022B00010BD00000050014021B1028842F04002F0
:1022C000028004E002884FF6BF731A400280704714
:1022D0000246002013890B400BB1012000E00020D2
:1022E00070470146888970478181704710B5002288
:1022F000028802F441520B884C8823438C88234384
:10230000CC8823430C8923434C8923438C89234362
:10231000CC8923431A430280838B4FF2FF742340FE
:1023200083830B8A038210BD7047000010B52DED2A
:102330000A8BFE49B1F90010FD4AB2F90020881A53
:1023400003F022FBC82804DBF948B0F90000F74984
:102350000880F649B1F90210F64AB2F90020881A4D
:1023600003F012FBC82804DBF248B0F90000EF4983
:1023700048807F20F0490870F04800784870EF48A6
:10238000008800128870EE480078C870EC48008819
:1023900000120871EB4800784871EA480088000A8A
:1023A0008871E2480078C871E0480088000A087225
:1023B000DE4880784872DD484088000A8872DB4831
:1023C00090ED010AE04880ED000A90ED000AB5EEBC
:1023D000C00AF1EE10FA07D290ED000ADFEDDB0A39
:1023E00030EE200A80ED000AD74890ED000AD84868
:1023F00080ED000AD749B1F90010D74A1268881A4F
:1024000004F0C7FF41EC1C0B9FEDD40B53EC102BD9
:1024100005F012F841EC1B0B9FEDD20B53EC102B87
:1024200004F030FE41EC1A0B9FEDD00B53EC102B57
:1024300005F002F841EC190B9FEDCE0B53EC102B7D
:1024400004F0FAFF41EC180B04F074FFBA49C872AB
:10245000C049B1F90010C04A1268881A04F099FF07
:1024600041EC1C0B9FEDBD0B53EC102B04F0E4FF73
:1024700041EC1B0B9FEDBB0B53EC102B04F002FE49
:1024800041EC1A0B9FEDB90B53EC102B04F0D4FF69
:1024900041EC190B9FEDB70B53EC102B04F0CCFF64
:1024A00041EC180B04F046FF000AA3490873A84842
:1024B00000784873A64840788873A5488078C87328
:1024C000A348C0780874AD4800784874AB480088C9
:1024D000000A8874A9488078C874A8484088000A0F
:1024E0000875A64800794875A4488088000A887550
:1024F000A34890ED050ADFEDA30A20EE200ABDEE09
:10250000C00A10EE100AC8759D4890ED050ADFED6F
:102510009D0A20EE200ABDEEC00A10EE100A000A45
:102520000876974890ED060ADFED960A20EE200A1D
:10253000BDEEC00A10EE100A4876914890ED060AEA
:10254000DFED900A20EE200ABDEEC00A10EE100A60
:10255000000A88768A4890ED070ADFED8A0A20EEA5
:10256000200ABDEEC00A10EE100AC876844890ED2D
:10257000070ADFED840A20EE200ABDEEC00A10EE45
:10258000100A000A0877804890ED000ADFED7D0A06
:1025900020EE200ABDEEC00A10EE100A48777A48F5
:1025A00090ED000ADFED770A20EE200ABDEEC00AAA
:1025B00010EE100A000A8877744890ED000ADFEDEB
:1025C000710A20EE200ABDEEC00A10EE100AC8778C
:1025D0006E4890ED000ADFED6B0A20EE200ABDEE9A
:1025E000C00A10EE100A000A81F82000684800783E
:1025F00081F821006748007881F82200664890ED54
:10260000000ADFED660A20EE200ABDEEC00A10EED9
:10261000100A81F82300604890ED000ADFED5F0AA0
:1026200020EE200ABDEEC00A10EE100A000A81F862
:1026300024005B48007881F8250059480088001282
:1026400081F826005749B1F90010574A1268881AD4
:1026500004F09FFE41EC1C0B9FED400B53EC102B44
:1026600004F0EAFE41EC1B0B9FED3E0B53EC102BEC
:1026700004F008FD41EC1A0B9FED3C0B53EC102BC2
:1026800004F0DAFE41EC190B9FED3A0B53EC102BE2
:1026900004F0D2FE41EC180B04F04CFE264981F800
:1026A00027004049B1F900103F4A1268881A04F027
:1026B00070FE41EC1C0B9FED290B53EC102B04F02A
:1026C000BBFE41EC1B0B9FED270B53EC102B04F0D2
:1026D000D9FC41EC1A0B9FED250B53EC102B04F0A9
:1026E000ABFE41EC190B9FED230B53EC102B04F0C8
:1026F000A3FE41EC180B04F01DFE000A0E4981F800
:1027000028007E2081F8290000240CE00A48015DA1
:10271000264800F057FE00BF4021244800F08CFD01
:102720000128F9D1641C2A2CF0DB41E07C03002055
:102730000400002006000020400400201A000020B1
:102740001C000020A4010020080000200000B44369
:10275000000000205801002044010020000000007B
:102760000000F03F000000000000C040000000003A
:102770000080764000000000000059402403002043
:102780004403002000401C46A0000020A4000020BC
:102790008F000020F60100201400002000007A4481
:1027A00028000020500100203C010020004400408F
:1027B0000548008805490880034840880449088086
:1027C000BDEC0A8B10BD00007C030020040000203B
:1027D00006000020F0B585B004460D4616461F469B
:1027E00040F2FF10009000208DF809008DF80800DD
:1027F00008208DF80A00200A8DF80B00E1B28DF850
:102800000C10290A8DF80D10E9B28DF80E10310A5E
:102810008DF80F10F1B28DF81010390A8DF81110E3
:10282000F9B28DF8121069460248FEF72AFD05B08C
:10283000F0BD000000640040F0B585B004460D46D0
:1028400016461F464FF40070009000208DF80900D6
:102850008DF8080008208DF80A00200A8DF80B007A
:10286000E1B28DF80C10290A8DF80D10E9B28DF83F
:102870000E10310A8DF80F10F1B28DF81010390AD0
:102880008DF81110F9B28DF8121069460248FEF762
:10289000F8FC05B0F0BD0000006400400CB500205D
:1028A000019000904148006840F480303F49086042
:1028B00000BF3E48006800F4003000900198401CC2
:1028C0000190009818B90198B0F5A04FF1D13748A0
:1028D000006800F4003010B10120009001E00020F9
:1028E00000900098012860D130484030006840F0E6
:1028F00080502E49403108602D48006840F4404027
:102900002B490860294808300068284908310860C8
:102910000846006840F4004008600846006840F43B
:10292000A05008602348091F0860081F006840F095
:102930008070091F086000BF1C48006800F000702C
:102940000028F9D01A48006840F48030184908601F
:1029500000BF1748406800F480300028F9D01448C0
:10296000006840F400301249086000BF1048406819
:1029700000F400300028F9D040F205700E490860DC
:102980000A480830006820F0030008490831086050
:102990000846006840F00200086000BF03480830A5
:1029A000006800F00C000828F8D10CBD0038024087
:1029B000007000400C544007003C02401CB501214F
:1029C0000802FFF7B3FA4FF40070009000208DF872
:1029D000040003208DF8050001208DF807006946EA
:1029E0000148FEF728FF1CBD002002407047000090
:1029F00010B51548006840F470001349086013488A
:102A0000006840F001001149086000200F490831BA
:102A100008600E4800680E4908400C4908600D48DF
:102A2000091D0860081F006820F48020091F086045
:102A3000002006490C310860FFF730FF4FF00060BE
:102A400001498039086010BD88ED00E0003802407F
:102A5000FFFFF6FE1030002410B50121880700F0BA
:102A6000FCF818B10121880700F0E8F810BD00005B
:102A700010B50121274800F0F0F8002848D00121C6
:102A8000244800F0DBF824484089022813D1234869
:102A9000006880B922480068401C21490860084647
:102AA000006841F28831884205DB00201C4908603B
:102AB00001201A4908601B480068401C1949086039
:102AC0000846006864281FDB002008601649096872
:102AD000164A1268881A02F057FF012810DC00BF5E
:102AE000BFF34F8F1248006800F4E06011490843BB
:102AF000001D0F490860BFF34F8F00BF00BFFEE706
:102B00000A4800680849086002F0D0FF02F044FF5C
:102B100010BD000000040040E0080020B8010020C3
:102B2000BC01002068000020700000206C00002024
:102B30000CED00E00000FA0510B50121294800F075
:102B40008CF800284CD00121264800F077F8264860
:102B50000068012820D1254890ED000AF7EE000A10
:102B600030EE200A80ED000A90ED000ADFED200A29
:102B7000B4EEE00AF1EE10FA0EDB02201A4908600A
:102B80001C4890ED010A80ED020A00881A498880ED
:102B9000184841881848C1801348006800BB134892
:102BA00090ED000AF7EE000A30EE200A80ED000AF0
:102BB00090ED000ADFED110AB4EEE00AF1EE10FA32
:102BC0000EDB0220084908600A4890ED010A80EDFA
:102BD000020A008808498880064841880648C18062
:102BE00010BD00000008004044000020400000200C
:102BF00000C8AF467C030020F808002000007A439C
:102C000010B50121064800F028F838B10121044828
:102C100000F014F803F016FE02F0F6FD10BD0000FF
:102C2000000C004021B1028842F08002028004E0E2
:102C300002884FF67F731A4002807047CA430282AF
:102C4000704721B1028842F00102028004E002884C
:102C50004FF6FE731A400280704730B502460020DE
:102C600000230024158A05EA0103958905EA010479
:102C700013B10CB1012000E0002030BD1AB18389EE
:102C80000B43838102E083898B438381704700007B
:102C900070B5002200230024058C4EF6FF763540E7
:102CA0000584038C8488828B48F6FF752A404FF692
:102CB000FF452A400D884FF6FF7606EA05252A4390
:102CC0004DF6FF752B408D8906EA05352B434D885F
:102CD00006EA05352B430A4DA84202D0094DA84209
:102CE00008D14BF6FF752C400D8A4FF6FF7606EAA9
:102CF00085152C43848082838D680564038470BDB0
:102D000000000140000401400A460021818B4FF27F
:102D1000FF7319404FF6FF7303EA022319438183BF
:102D20007047000000220288184B98420ED0184BC2
:102D300098420BD0B0F1804F08D0164B984205D086
:102D4000154B984202D0154B984204D14FF68F7321
:102D50001A404B881A43124B984207D0114B9842A5
:102D600004D04FF6FF431A400B891A4302804B6888
:102D7000C3620B880385054B984202D0044B9842EE
:102D800001D18B7A038601238382704700000140C2
:102D9000000401400004004000080040000C004016
:102DA00000100040001400401FB501210220FFF771
:102DB000CDF81D208DF8000000208DF801000120C5
:102DC0008DF802008DF803006846FEF7EBFD5920F0
:102DD000ADF804004FF47A7002900020ADF80C00BA
:102DE000ADF8060001A90A48FFF79CFF0121084839
:102DF000FFF718FF012211460548FFF73FFF0121A9
:102E00000348FFF71EFF01210148FFF717FF1FBD11
:102E1000000400401FB501210820FFF797F8322079
:102E20008DF8000001208DF8010003208DF80200CC
:102E300001208DF803006846FEF7B4FD5920ADF877
:102E400004004FF47A7002900020ADF80C00ADF849
:102E5000060001A90A48FFF765FF01210848FFF7AE
:102E6000E1FE012211460648FFF708FF0121044850
:102E7000FFF7E7FE01210248FFF7E0FE1FBD00005B
:102E8000000C004010B532480068401C3049086012
:102E900008460068B0F5FA7F01DB0120086040F2C7
:102EA00024412C4800F0D5F900284FD0294800884B
:102EB000284880882848FEF76CFC18BB002126486B
:102EC000FEF794FB2448FEF760FC24490968081AC1
:102ED000234908602148008880B21F49091D086005
:102EE000081F006840F40020091F086001211A48EB
:102EF000FEF77CFB1A480068122827D11948FFF713
:102F0000D9F823E000211448FEF770FB1248FEF7C1
:102F10003CFC12490968081A114908600F480088EA
:102F200080B20D49091D0860081F006820F40020C8
:102F3000091F086001210848FEF758FB084800688F
:102F4000122803D107481E30FFF7B4F810BD000067
:102F50006C0000200010014040640240640000202A
:102F6000980000209403002010B52DED048B40F252
:102F700024414F4800F06DF900287DD04C4800886E
:102F80004B48001D008800214A48FEF72FFB4A49A4
:102F90004848FEF711FB002006E04849095C7F29FC
:102FA00001D1C4B202E0401C1028F6DB00BF434947
:102FB00004F10F00085C7E286FD1601C085C40B2F1
:102FC0003F4908703D49A01C085C40B23C4948702C
:102FD0003A49E01C095C394A201D105C41EA002096
:102FE00000B2374948801146601D095CA01D105C85
:102FF00041EA002000B2324988801146E01D095C98
:10300000401C105C41EA002000B22D49C8801146E6
:1030100004F10900095C401C105C41EA002000B288
:1030200027490881114604F10B00095C401C105C23
:1030300041EA002000B222494881114604F10D0006
:10304000095C401C105C41EA002000B21C498881E8
:1030500008460078032803D108468089194908806A
:103060001748008918490880154840891749088081
:103070001349B1F90C0000E017E004F08AF941ECC3
:10308000190B9FED130B53EC102B03F0FBFF41ECDE
:10309000180B03F011FF1049086020210548FEF7C6
:1030A000AFFB01210348FEF7A1FABDEC048B10BD74
:1030B000004400408860024000080020D003002047
:1030C00060020020B4010020800100208201002065
:1030D00000000000000059408401002010B540F2BB
:1030E00024410C4800F0B5F890B10A48008809481E
:1030F000001D008800210848FEF778FA02F098FDCC
:1031000064210548FEF77CFB01210348FEF76EFAB7
:1031100010BD0000001401402864024021B18289E2
:1031200042F40052828104E082894DF6FF731A4016
:10313000828170471AB1838A0B43838202E0838ABB
:103140008B4383827047000010B5044632488442A6
:1031500008D101211020FEF729FF00211020FEF7E1
:1031600025FF57E02D48844209D101214804FEF78C
:10317000FDFE00214FF40030FEF7F8FE4AE028483B
:10318000844209D101218804FEF7F0FE00214FF4AA
:103190008020FEF7EBFE3DE02248844209D1012168
:1031A000C804FEF7E3FE00214FF40020FEF7DEFE28
:1031B00030E01D48844209D101210805FEF7D6FE02
:1031C00000214FF48010FEF7D1FE23E0174884421F
:1031D00008D101212020FEF7E9FE00212020FEF782
:1031E000E5FE17E01248844209D101218807FEF765
:1031F000BDFE00214FF08040FEF7B8FE0AE00D480A
:10320000844207D101214005FEF7B0FE0021600590
:10321000FEF7ACFE10BD000000100140004400406D
:1032200000480040004C00400050004000140140A5
:1032300000780040007C004002460020B1F5007F8D
:1032400000D100BF13880B400BB1012000E000202B
:10325000704770B50246002400230025002040F688
:103260006A16B14200D100BFC1F3421501F01F033D
:10327000012606FA03F3012D02D19689334006E0B8
:10328000022D02D1168A334001E0968A33400C1297
:10329000012606FA04F41688344013B10CB101205B
:1032A00000E0002070BDF0B5034600240026002594
:1032B000002040F66A17B94200D100BF1846C1F39A
:1032C000421401F01F06012707FA06F5012C01D16F
:1032D0000C3004E0022C01D1103000E014301AB19F
:1032E00007682F43076002E00768AF430760F0BD3F
:1032F0002DE9FF4705460E460024A14600BFA04623
:10330000B08900B100BF2C8A24F44054F0880443F3
:103310002C82AC8941F20C608443B0883189084327
:10332000718908430443AC81AC8A24F44074B089A9
:103330000443AC826846FEF749FE2048854202D02D
:103340001F48854202D1DDF80C9001E0DDF80890BD
:10335000A88900F4004040B109EBC90000EB091056
:1033600031684900B0FBF1F707E009EBC90000EB59
:10337000091031688900B0FBF1F76420B7FBF0F069
:1033800004012009642101FB1078A88900F40040A1
:1033900040B1322000EBC800B0FBF1F000F00700B4
:1033A000044308E0322000EB08106421B0FBF1F088
:1033B00000F00F0004432C81BDE8FF87001001409E
:1033C00000140140C1F30802828070474FF4165187
:1033D000016000218180C18001810C214181002197
:1033E0008181704700BFFEE72DE9F0412DED048B90
:1033F0008A49B1F90210480003F0CBFF41EC190BE8
:103400009FED870B53EC102B03F03CFE41EC180BA7
:1034100003F090FF00B2844908808049B1F904109C
:103420004942480003F0B5FF41EC190B9FED7C0BBE
:1034300053EC102B03F026FE41EC180B03F07AFF3F
:1034400000B27A4908807548B0F90600404200EEA3
:10345000100AB8EEC00A764880ED000A7248B0F94A
:1034600000004042B1F90010084400EE100AB8EE26
:10347000C00A6F48D0ED000A30EE200ABDEEC00A47
:1034800010EE100A00B26B4908806748B0F90000DE
:103490006649B1F90010084400EE100AB8EEC00AFF
:1034A0006348D0ED000A30EE200ABDEEC00A10EEEF
:1034B000100A00B2604908805B48B0F900005B491F
:1034C000B1F90010401A00EE100AB8EEC00A5848D0
:1034D000D0ED000A30EE200ABDEEC00A10EE100A50
:1034E00000B2564908805048B0F9000040424F49A8
:1034F000B1F90010401A00EE100AB8EEC00A4C48AC
:10350000D0ED000A30EE200ABDEEC00A10EE100A1F
:1035100000B24B4908800846B0F9000003F039FFBB
:1035200041EC180B4749B1F9020003F032FF41ECBE
:10353000190BB0EE481AF0EE681AB0EE490AF0EE38
:10354000690A4148FEF76AFABDEEC00A10EE100A99
:1035500004B23A48B0F9000003F01BFF41EC180B2D
:103560003A49B1F9020003F014FF41EC190BB0EE37
:10357000481AF0EE681AB0EE490AF0EE690A3448CB
:10358000FEF74CFABDEEC00A10EE100A05B22A484A
:10359000B0F9000003F0FDFE41EC180B2D49B1F924
:1035A000020003F0F6FE41EC190BB0EE481AF0EE03
:1035B000681AB0EE490AF0EE690A2748FEF72EFABB
:1035C000BDEEC00A10EE100A06B21A48B0F90000AB
:1035D00003F0DFFE41EC180B2049B1F9020003F0C3
:1035E000D8FE41EC190BB0EE481AF0EE681AB0EEB6
:1035F000490AF0EE690A1A48FEF710FABDEEC00A51
:1036000010EE100A07B223462A4631463846FFF725
:1036100013F9BDEC048BBDE8F081000060020020CE
:103620008DD13AAA9AA0F63FB0010020B201002045
:1036300028020020000100200201002004010020D7
:1036400006010020C000002070050020B800002006
:1036500018050020B0000020C0040020A8000020B1
:10366000680400202DE9F0412DED048B8E49B1F95D
:103670000210480003F08DFE41EC190B9FED8B0BFF
:1036800053EC102B03F0FEFC41EC180B03F052FE40
:1036900000B2884908808449B1F9041049424800C1
:1036A00003F077FE41EC190B9FED800B53EC102BD0
:1036B00003F0E8FC41EC180B03F03CFE00B27E493D
:1036C00008807E48D0ED010A7748B0F9060000EE88
:1036D000100AB8EEC00A30EEC00A7948D0ED000AF0
:1036E00020EE200A774880ED000A7248B0F9000009
:1036F0004042B1F90010084400EE100AB8EEC00ACA
:103700007048D0ED000A30EE200ABDEEC00A10EE7F
:10371000100A00B26C4908806648B0F9000066499A
:10372000B1F90010084400EE100AB8EEC00A65486E
:10373000D0ED000A30EE200ABDEEC00A10EE100AED
:1037400000B2624908805B48B0F900005A49B1F9FB
:103750000010401A00EE100AB8EEC00A5948D0ED29
:10376000000A30EE200ABDEEC00A10EE100A00B2C8
:10377000574908804F48B0F9000040424E49B1F91E
:103780000010401A00EE100AB8EEC00A4D48D0ED05
:10379000000A30EE200ABDEEC00A10EE100A00B298
:1037A0004C4908800846B0F9000003F0F2FD41ECF6
:1037B000180B4949B1F9020003F0EBFD41EC190B7C
:1037C000B0EE481AF0EE681AB0EE490AF0EE690A57
:1037D0004248FEF723F9BDEEC00A10EE100A04B20B
:1037E0003B48B0F9000003F0D4FD41EC180B3C4914
:1037F000B1F9020003F0CDFD41EC190BB0EE481A0F
:10380000F0EE681AB0EE490AF0EE690A3548FEF7A4
:1038100005F9BDEEC00A10EE100A05B22B48B0F94A
:10382000000003F0B6FD41EC180B2F49B1F902007E
:1038300003F0AFFD41EC190BB0EE481AF0EE681A38
:10384000B0EE490AF0EE690A2848FEF7E7F8BDEE47
:10385000C00A10EE100A06B21B48B0F9000003F0CF
:1038600098FD41EC180B2249B1F9020003F091FDDB
:1038700041EC190BB0EE481AF0EE681AB0EE490AA6
:10388000F0EE690A1B48FEF7C9F8BDEEC00A10EE5B
:10389000100A07B223462A4631463846FEF7CCFFC7
:1038A000BDEC048BBDE8F081600200208DD13AAA06
:1038B0009AA0F63FB0010020B20100207C03002056
:1038C0002C0200202802002000010020020100201C
:1038D0000401002006010020C00000207005002027
:1038E000B800002018050020B0000020C00400200F
:1038F000A8000020680400202DE9F0412DED048B84
:103900006F48B0F9000040426E49B1F90010084418
:1039100000EE100AB8EEC00A6B48D0ED000A30EE97
:10392000200ABDEEC00A10EE100A00B267490880F6
:103930006348B0F900006349B1F90010084400EE93
:10394000100AB8EEC00A6048D0ED000A30EE200A36
:10395000BDEEC00A10EE100A00B25D49088058485A
:10396000B0F900005749B1F90010401A00EE100AF2
:10397000B8EEC00A5448D0ED000A30EE200ABDEE81
:10398000C00A10EE100A00B2524908804C48B0F943
:10399000000040424B49B1F90010401A00EE100AF5
:1039A000B8EEC00A4848D0ED000A30EE200ABDEE5D
:1039B000C00A10EE100A00B2474908800846B0F964
:1039C000000003F0E6FC41EC180B4449B1F9020099
:1039D00003F0DFFC41EC190BB0EE481AF0EE681A68
:1039E000B0EE490AF0EE690A3D48FEF717F8BDEE61
:1039F000C00A10EE100A04B23648B0F9000003F015
:103A0000C8FC41EC180B3749B1F9020003F0C1FCC6
:103A100041EC190BB0EE481AF0EE681AB0EE490A04
:103A2000F0EE690A3048FDF7F9FFBDEEC00A10EE6E
:103A3000100A05B22648B0F9000003F0AAFC41ECD8
:103A4000180B2A49B1F9020003F0A3FC41EC190B51
:103A5000B0EE481AF0EE681AB0EE490AF0EE690AC4
:103A60002348FDF7DBFFBDEEC00A10EE100A06B2D8
:103A70001648B0F9000003F08CFC41EC180B1D490E
:103A8000B1F9020003F085FC41EC190BB0EE481AC5
:103A9000F0EE681AB0EE490AF0EE690A1648FDF732
:103AA000BDFFBDEEC00A10EE100A07B223462A463B
:103AB00031463846FEF7C0FEBDEC048BBDE8F08110
:103AC000B0010020B20100202802002000010020E7
:103AD000020100200401002006010020C000002097
:103AE00070050020B800002018050020B00000205C
:103AF000C0040020A8000020680400202DE9F04147
:103B00002DED048B8448006870B99FED840A8448C9
:103B100080ED000A8348B0F9000041F276618842E6
:103B200002DC01207C4908607B480068012812D132
:103B30009FED7D0A7A4880ED000A7C4800684000CD
:103B4000A0F5B05076387749B1F90010884202DC10
:103B50000020714908607648B0F90000404275497C
:103B6000B1F90010084400EE100AB8EEC00A6C4823
:103B7000D0ED000A30EE200ABDEEC00A10EE100AA9
:103B800000B26D4908806A48B0F900006949B1F98E
:103B90000010084400EE100AB8EEC00A6048D0EDEC
:103BA000000A30EE200ABDEEC00A10EE100A00B284
:103BB000624908805E48B0F900005E49B1F9001022
:103BC000401A00EE100AB8EEC00A5548D0ED000ABF
:103BD00030EE200ABDEEC00A10EE100A00B25849BD
:103BE00008805348B0F9000040425249B1F9001032
:103BF000401A00EE100AB8EEC00A4948D0ED000A9B
:103C000030EE200ABDEEC00A10EE100A00B24D4997
:103C100008800846B0F9000003F0BBFB41EC180B2C
:103C20004949B1F9020003F0B4FB41EC190BB0EEC5
:103C3000481AF0EE681AB0EE490AF0EE690A4348F5
:103C4000FDF7ECFEBDEEC00A10EE100A04B23C48CF
:103C5000B0F9000003F09DFB41EC180B3C49B1F9B1
:103C6000020003F096FB41EC190BB0EE481AF0EE9F
:103C7000681AB0EE490AF0EE690A3648FDF7CEFE42
:103C8000BDEEC00A10EE100A05B22C48B0F90000D3
:103C900003F07FFB41EC180B2F49B1F9020003F050
:103CA00078FB41EC190BB0EE481AF0EE681AB0EE52
:103CB000490AF0EE690A2948FDF7B0FEBDEEC00AD8
:103CC00010EE100A06B21C48B0F9000003F061FBC8
:103CD00041EC180B2249B1F9020003F05AFB41EC08
:103CE000190BB0EE481AF0EE681AB0EE490AF0EE81
:103CF000690A1C48FDF792FEBDEEC00A10EE100ADC
:103D000007B223462A4631463846FEF795FDBDECFC
:103D1000048BBDE8F08100003C020020000048C296
:103D2000280200201C020020000048423C01002024
:103D3000B0010020B201002000010020020100209B
:103D40000401002006010020C000002070050020B2
:103D5000B800002018050020B0000020C00400209A
:103D6000A80000206804002070B52DED048B2848C1
:103D7000B0F9000003F00DFB41EC180B2549B1F937
:103D8000020003F006FB41EC190BB0EE481AF0EE0E
:103D9000681AB0EE490AF0EE690A1F48FDF73EFEC8
:103DA000BDEEC00A10EE100A04B21C48006803F011
:103DB00061FD41EC180B9FED1A1BB0EE480AF0EEC6
:103DC000680A1948FDF72AFEBDEEC00A10EE100A77
:103DD00005B21648006803F04DFD41EC180B9FED4D
:103DE000101BB0EE480AF0EE680A1148FDF716FE07
:103DF000B1EE400ABDEEC00A10EE100A06B2002372
:103E0000224629463046FEF7E5FCBDEC048B70BD2A
:103E10006A01002062010020880800200C010020B7
:103E20000000000000000000200600200801002023
:103E3000C805002070B52DED048B01208F49086066
:103E40008F48006860B98F48B0F9000000EE100A92
:103E5000B8EEC00A8C4880ED000A0120884908604D
:103E60008A480078C8B98848006803F003FD41EC2F
:103E7000190B9FED870B53EC102B03F04FF841EC1F
:103E8000180B03F019F880490860834890ED000A88
:103E9000B8EEC00A814880ED000A7C48007801280D
:103EA0001CD17948006803F0E5FC41EC190B9FED4B
:103EB000780B53EC102B03F0F3FB41EC180B02F0E2
:103EC000FBFF7149086074480068A0F5967000EE29
:103ED000100AB8EEC00A714880ED000A7048006808
:103EE0004000A0F5B050763800EE100AB8EEC00AD7
:103EF0006548D0ED000AB4EEE00AF1EE10FA0FD8F2
:103F0000674800684000A0F5B050763800EE100A0F
:103F1000B8EEC00A5C4880ED000A01205B490870D9
:103F2000594890ED000ADFED5F0AB4EEE00AF1EEC9
:103F300010FA06D89FED5B0A80ED000A0020534975
:103F400008705148006803F095FC41EC180B4D488F
:103F5000B0F9000003F01DFA41EC190BB0EE481A5D
:103F6000F0EE681AB0EE490AF0EE690A4E48FDF725
:103F700055FD4E4880ED000A4848006803F07AFC81
:103F800041EC180B4A49B1F9000003F002FA41EC88
:103F9000190BB0EE481AF0EE681AB0EE490AF0EECE
:103FA000690A4448FDF73AFD434880ED000A43485A
:103FB000B0F9000003F0EDF941EC190B4049B1F9FB
:103FC000020003F0E6F941EC180BB0EE491AF0EEEE
:103FD000691AB0EE480AF0EE680A3A48FDF71EFD8D
:103FE000BDEEC00A10EE100A04B2334890ED000A8C
:103FF000B1EE400A10EE100A03F03CFC41EC190B44
:104000003148006803F036FC41EC180BB0EE491A59
:10401000F0EE691AB0EE480AF0EE680A2B48FDF798
:10402000FDFCBDEEC00A10EE100A05B21F48006884
:1040300003F020FC41EC180B2548006803F01AFC43
:1040400041EC190BB0EE481AF0EE681AB0EE490ACE
:10405000F0EE690A1F48FDF7E1FCB1EE400ABDEE43
:10406000C00A10EE100A06B2002322462946304646
:10407000FEF7B0FBBDEC048B70BD00000C0200200D
:10408000200200201C02002000020020600100200D
:10409000666666666666F63F4001002008020020FC
:1040A0003C01002000B0B34578060020100100203C
:1040B00058010020D0060020140100206A010020D1
:1040C00062010020880800200C010020200600204A
:1040D00008010020C805002070B52DED088B0120D7
:1040E000E8490860E848008870B9E848008830B1BD
:1040F000E648B0F9000047F6F871884204D19FED18
:10410000E40BE54880ED0C0BE448B0F90000E4490D
:104110000860DD48B0F90000404203F03AF941EC94
:104120001B0B9FEDE00B53EC102B02F0ABFF41ECAF
:104130001A0B9FEDDE0B53EC102B02F0A3FF41ECAA
:10414000190B9FEDDC0B53EC102B03F075F941ECD0
:10415000180B02F0B1FED9490860D948B0F9000047
:10416000D8490860C948B0F90000404203F011F98D
:1041700041EC1B0B9FEDCB0B53EC102B02F082FF9D
:1041800041EC1A0B9FEDC90B53EC102B02F07AFF98
:1041900041EC190B9FEDC70B53EC102B03F04CF9BE
:1041A00041EC180B02F088FEC7490860C348D0ED07
:1041B000000ABB4890ED000AB8EEC00A30EE800A53
:1041C000C24880ED000A0846D0ED000ABD4890EDD7
:1041D000000AB8EEC00A30EE800ABD4880ED000A41
:1041E000BC4800684000A0F5B050763800EE100AD8
:1041F000B8EEC00AB548D0ED000AB4EEE00AF1EE20
:1042000010FA0CD8B34800684000A0F5B0507638DA
:1042100000EE100AB8EEC00AAC4880ED000AAB48C8
:1042200090ED000ADFEDAC0AB4EEE00AF1EE10FA10
:1042300003D89FEDA90A80ED000AA448006803F0A6
:1042400019FB41EC180B9548B0F9000003F0A1F8F8
:1042500041EC190BB0EE481AF0EE681AB0EE490ABC
:10426000F0EE690A8C48FDF7D9FB9C4880ED000A06
:104270009748006803F0FEFA41EC180B9049B1F939
:10428000000003F086F841EC190BB0EE481AF0EE8E
:10429000681AB0EE490AF0EE690A9148FDF7BEFBD4
:1042A000904880ED000A7948B0F9000047F6F871AF
:1042B00088427CD18648006803F0DCFA41EC180B98
:1042C0007F49B1F9000003F064F841EC190BB0EE3E
:1042D000481AF0EE681AB0EE490AF0EE690A824810
:1042E000FDF79CFB7F4880ED000A8048B0F9000094
:1042F00003F04FF841EC180B7D49B1F9020003F0CF
:1043000048F841EC190BB0EE481AF0EE681AB0EE1E
:10431000490AF0EE690A7748FDF780FBBDEEC00A56
:1043200010EE100A05B26F4890ED000AB1EE400A97
:1043300010EE100A03F09EFA41EC180B6E4800686C
:1043400003F098FA41EC190BB0EE481AF0EE681A37
:10435000B0EE490AF0EE690A6848FDF75FFBBDEE72
:10436000C00A10EE100A04B25C48006803F082FA3A
:1043700041EC180B6248006803F07CFA41EC190B21
:10438000B0EE481AF0EE681AB0EE490AF0EE690A8B
:104390005C48FDF743FBB1EE400ABDEEC00A10EEEB
:1043A000100A06B200232A462146304600E002E009
:1043B000FEF710FA62E04D48B0F9000002F0E9FFA4
:1043C00041EC180B4A49B1F9020002F0E2FF41EC5E
:1043D000190BB0EE481AF0EE681AB0EE490AF0EE8A
:1043E000690A4448FDF71AFBBDEEC00A10EE100A38
:1043F00005B23C4890ED000AB1EE400A10EE100AFA
:1044000003F038FA41EC180B3B48006803F032FA2D
:1044100041EC190BB0EE481AF0EE681AB0EE490AFA
:10442000F0EE690A3848FDF7F9FABDEEC00A10EE61
:10443000100A04B22948006803F01CFA41EC190B79
:104440002F48006803F016FA41EC180BB0EE491A39
:10445000F0EE691AB0EE480AF0EE680A2948FDF756
:10446000DDFAB1EE400ABDEEC00A10EE100A06B247
:1044700000232A4621463046FEF7ACF9BDEC088BF6
:1044800070BD00000C02002080010020820100208D
:104490000000000000000000280700201C0200208F
:1044A000480100200000000000005940000000000A
:1044B00000807640000000000000C0403401002071
:1044C000580100204C01002038010020000200208B
:1044D000080200203C01002000B0B345100100207C
:1044E0003008002014010020D00600206A010020BE
:1044F00062010020880800200C0100202006002016
:1045000008010020D80700208007002070B52DED9D
:10451000088BAD48B0F90000AC490860AC48B0F970
:104520000000AC490860AC48B0F90000404202F01D
:1045300030FF41EC1B0B9FEDA90B53EC102B02F04D
:10454000A1FD41EC1A0B9FEDA70B53EC102B02F0D1
:1045500099FD41EC190B9FEDA50B53EC102B02F0CC
:104560006BFF41EC180B02F0A7FCA2490860A248BF
:10457000B0F90000404202F00CFF41EC1B0B9FED34
:10458000970B53EC102B02F07DFD41EC1A0B9FEDC5
:10459000950B53EC102B02F075FD41EC190B9FEDC0
:1045A000930B53EC102B02F047FF41EC180B02F079
:1045B00083FC924908608849B1F90000002801DBBA
:1045C000014600E041420A2913DD8D4909680129AD
:1045D0000FD18848D0ED000A7C4890ED000AB8EE73
:1045E000C00A30EE800A874880ED000A0020844926
:1045F0000860854800684000A0F5B050763800EEAD
:10460000100AB8EEC00A7F48D0ED000AB4EEE00A06
:10461000F1EE10FA0CD87C4800684000A0F5B050CC
:10462000763800EE100AB8EEC00A764880ED000A2F
:10463000744890ED000ADFED750AB4EEE00AF1EE81
:1046400010FA03D89FED710A80ED000A70480068E7
:1046500003F010F941EC180B9FED6E0B53EC102B8F
:1046600002F0AEFE0BD26D480068A0F5C87000EEF7
:10467000100AB8EEC00A6A4880ED000A07E06748F1
:1046800090ED000AB8EEC00A654880ED000A5D486A
:10469000006803F0EFF841EC180B4B48B0F900004C
:1046A00002F077FE41EC190BB0EE481AF0EE681AF2
:1046B000B0EE490AF0EE690A5A48FDF7AFF95A48D8
:1046C00080ED000A5648006803F0D4F841EC180B5E
:1046D0003F49B1F9000002F05CFE41EC190BB0EE6D
:1046E000481AF0EE681AB0EE490AF0EE690A4F482F
:1046F000FDF794F94E4880ED000A4E48B0F90000ED
:1047000002F047FE41EC180B4B49B1F9020002F0F0
:1047100040FE41EC190BB0EE481AF0EE681AB0EE0C
:10472000490AF0EE690A4548FDF778F9BDEEC00A7E
:1047300010EE100A04B23E4890ED000AB1EE400AB5
:1047400010EE100A03F096F841EC180B3C48006894
:1047500003F090F841EC190BB0EE481AF0EE681A2D
:10476000B0EE490AF0EE690A3648FDF757F9BDEE9A
:10477000C00A10EE100A05B22B48006803F07AF860
:1047800041EC180B3048006803F074F841EC190B49
:10479000B0EE481AF0EE681AB0EE490AF0EE690A77
:1047A0002A48FDF73BF9B1EE400ABDEEC00A10EE13
:1047B000100A06B20023224629463046FEF70AF8C0
:1047C000BDEC088B70BD00001C02002048010020D9
:1047D000580100204C010020800100200000000052
:1047E00000005940000000000080764000000000FA
:1047F0000000C04034010020820100203801002068
:104800000C020020000200203C01002000B0B34553
:1048100084010020666666666666E63F4001002009
:104820000802002028070020100100203008002086
:10483000140100206A010020620100208808002085
:104840000C0100208007002008010020D80700206C
:104850007047000070B52DED088BA748008870B92F
:10486000A648008830B1A548B0F9000047F6F871B5
:10487000884204D19FEDA20BA34880ED0C0BA34806
:10488000B0F90000A2490860A248B0F90000A249AE
:1048900008609948B0F90000404202F07AFD41EC0E
:1048A0001B0B9FED9E0B53EC102B02F0EBFB41EC2E
:1048B0001A0B9FED9C0B53EC102B02F0E3FB41EC29
:1048C000190B9FED9A0B53EC102B02F0B5FD41EC48
:1048D000180B02F0F1FA974908608848B0F9000017
:1048E000404202F056FD41EC1B0B9FED8C0B53EC4C
:1048F000102B02F0C7FB41EC1A0B9FED8A0B53EC17
:10490000102B02F0BFFB41EC190B9FED880B53EC11
:10491000102B02F091FD41EC180B02F0CDFA864904
:1049200008607648B0F9000047F6F871884213D065
:104930008248006801280FD17E48D0ED000A7448F3
:1049400090ED000AB8EEC00A30EE800A7C4880ED97
:10495000000A0020794908607A4800684000A0F504
:10496000B050763800EE100AB8EEC00A7448D0EDA8
:10497000000AB4EEE00AF1EE10FA0CD871480068B3
:104980004000A0F5B050763800EE100AB8EEC00A2C
:104990006B4880ED000A6A4890ED000ADFED6A0A74
:1049A000B4EEE00AF1EE10FA03D89FED670A80ED4D
:1049B000000A6248006800287DD16148006802F062
:1049C00059FF41EC180B5148B0F9000002F0E1FC2E
:1049D00041EC190BB0EE481AF0EE681AB0EE490A35
:1049E000F0EE690A4848FDF719F8584880ED000ACA
:1049F0005748006802F0CDFC41EC180B4549B1F96D
:104A0000000002F0C6FC41EC190BB0EE481AF0EEC3
:104A1000681AB0EE490AF0EE690A4E48FCF7FEFF4C
:104A20004D4880ED000A4D48B0F9000002F0B1FC9D
:104A300041EC180B4A49B1F9020002F0AAFC41EC22
:104A4000190BB0EE481AF0EE681AB0EE490AF0EE13
:104A5000690A4448FCF7E2FFBDEEC00A10EE100AF6
:104A600004B23D4890ED000AB1EE400A10EE100A83
:104A700002F000FF41EC180B3B48006802F0FAFE20
:104A800041EC190BB0EE481AF0EE681AB0EE490A84
:104A9000F0EE690A3548FCF7C1FFBDEEC00A10EE22
:104AA000100A05B22948006802F0E4FE41EC180B38
:104AB0002F48006800E01BE002F0DCFE41EC190B1F
:104AC000B0EE481AF0EE681AB0EE490AF0EE690A44
:104AD0002848FCF7A3FFB1EE400ABDEEC00A10EE75
:104AE000100A06B20023224629463046FDF772FE20
:104AF000BDEC088B70BD0000800100208201002009
:104B00000000000000000000280700201C02002018
:104B100048010020580100204C0100200000000046
:104B200000005940000000000080764000000000B6
:104B30000000C04034010020380100200C02002099
:104B4000000200203C01002000B0B345100100200D
:104B50004001002030080020140100206A010020DC
:104B600062010020880800200C010020800700203E
:104B700008010020D807002070B52DED088B01201A
:104B8000E24908604FF44870E14908800120E1499A
:104B90000860E148B0F90000E0490860E048B0F979
:104BA0000000E0490860E048B0F90000404202F02F
:104BB000F0FB41EC1B0B9FEDDD0B53EC102B02F0D7
:104BC00061FA41EC1A0B9FEDDB0B53EC102B02F05A
:104BD00059FA41EC190B9FEDD90B53EC102B02F055
:104BE0002BFC41EC180B02F067F9D6490860D64857
:104BF000B0F90000404202F0CCFB41EC1B0B9FEDF2
:104C0000CB0B53EC102B02F03DFA41EC1A0B9FED4D
:104C1000C90B53EC102B02F035FA41EC190B9FED48
:104C2000C70B53EC102B02F007FC41EC180B02F001
:104C300043F9C6490860C348D0ED000AB74890ED73
:104C4000000AB8EEC00A30EE800AC14880ED000AC2
:104C50000846D0ED000AB34890ED000AB8EEC00A4D
:104C600030EE800ABB4880ED000ABB480068400077
:104C7000A0F5B050763800EE100AB8EEC00AB4487D
:104C8000D0ED000AB4EEE00AF1EE10FA0CD8B2480A
:104C900000684000A0F5B050763800EE100AB8EE7B
:104CA000C00AAB4880ED000AA94890ED000ADFED8C
:104CB000AB0AB4EEE00AF1EE10FA03D89FEDA70AB2
:104CC00080ED000AA248006802F0D4FD41EC180B08
:104CD0009148B0F9000002F05CFB41EC190BB0EE1A
:104CE000481AF0EE681AB0EE490AF0EE690A9C48DC
:104CF000FCF794FE9B4880ED000A9648006802F09D
:104D0000B9FD41EC180B8649B1F9000002F041FBF6
:104D100041EC190BB0EE481AF0EE681AB0EE490AF1
:104D2000F0EE690A9048FCF779FE904880ED000AA1
:104D30008548B0F9000047F6F87188427FD18C4869
:104D4000006802F026FB41EC180B7549B1F9000030
:104D500002F01FFB41EC190BB0EE481AF0EE681A96
:104D6000B0EE490AF0EE690A8248FCF757FE7F4828
:104D700080ED000A6648B0F9000002F00AFB41EC41
:104D8000180B7D49B1F9020002F003FB41EC190B4D
:104D9000B0EE481AF0EE681AB0EE490AF0EE690A71
:104DA0007648FCF73BFEBDEEC00A10EE100A05B2D5
:104DB0006E4890ED000AB1EE400A10EE100A02F0C3
:104DC00059FD41EC180B6E48006802F053FD41ECB0
:104DD000190BB0EE481AF0EE681AB0EE490AF0EE80
:104DE000690A6848FCF71AFEBDEEC00A10EE100A08
:104DF00004B25C48006802F03DFD41EC180B6248CB
:104E0000006802F037FD41EC190BB0EE481AF0EEE5
:104E1000681AB0EE490AF0EE690A5C48FCF7FEFD3C
:104E2000B1EE400ABDEEC00A10EE100A06B2002331
:104E30002A4621463046FDF7CDFC63E0FFE73448C3
:104E4000B0F9000002F0A5FA41EC180B4A49B1F99B
:104E5000020002F09EFA41EC190BB0EE481AF0EE97
:104E6000681AB0EE490AF0EE690A4448FCF7D6FD2C
:104E7000BDEEC00A10EE100A04B23C4890ED000AE4
:104E8000B1EE400A10EE100A02F0F4FC41EC190BEE
:104E90003B48006802F0EEFC41EC180BB0EE491AFA
:104EA000F0EE691AB0EE480AF0EE680A3848FCF7EE
:104EB000B5FDBDEEC00A10EE100A05B22948006823
:104EC00002F0D8FC41EC180B2F48006802F0D2FC2D
:104ED00041EC190BB0EE481AF0EE681AB0EE490A30
:104EE000F0EE690A2948FCF799FDB1EE400ABDEEE3
:104EF000C00A10EE100A06B20023224629463046A8
:104F0000FDF768FCBDEC088B70BD00005C02002062
:104F10006A0100200C0200201C0200204801002031
:104F2000580100204C0100208001002000000000FA
:104F300000005940000000000080764000000000A2
:104F40000000C04034010020820100203801002010
:104F500000020020080200203C01002000B0B34500
:104F60002807002010010020300800201401002034
:104F700040010020D00600206201002088080020A7
:104F80000C0100202006002008010020D807002086
:104F90008007002070B52DED088B0120E2490860E4
:104FA0004FF44870E14908800120E1490860E14878
:104FB000B0F90000E0490860E048B0F90000E049BD
:104FC0000860E048B0F90000404202F0E2F941EC2C
:104FD0001B0B9FEDDD0B53EC102B02F053F841EC53
:104FE0001A0B9FEDDB0B53EC102B02F04BF841EC4E
:104FF000190B9FEDD90B53EC102B02F01DFA41EC6D
:10500000180B01F059FFD6490860D648B0F90000E6
:10501000404202F0BEF941EC1B0B9FEDCB0B53EC71
:10502000102B02F02FF841EC1A0B9FEDC90B53EC3B
:10503000102B02F027F841EC190B9FEDC70B53EC36
:10504000102B02F0F9F941EC180B01F035FFC649BD
:105050000860C348D0ED000AB74890ED000AB8EEEA
:10506000C00A30EE800AC14880ED000A0846D0ED43
:10507000000AB34890ED000AB8EEC00A30EE800A8C
:10508000BB4880ED000ABB4800684000A0F5B05066
:10509000763800EE100AB8EEC00AB448D0ED000A27
:1050A000B4EEE00AF1EE10FA0CD8B2480068400005
:1050B000A0F5B050763800EE100AB8EEC00AAB4842
:1050C00080ED000AA94890ED000ADFEDAB0AB4EECE
:1050D000E00AF1EE10FA03D89FEDA70A80ED000A6E
:1050E000A248006802F0C6FB41EC180B9148B0F9E9
:1050F000000002F04EF941EC190BB0EE481AF0EE48
:10510000681AB0EE490AF0EE690A9C48FCF786FC82
:105110009B4880ED000A9648006802F0ABFB41EC2A
:10512000180B8649B1F9000002F033F941EC190B74
:10513000B0EE481AF0EE681AB0EE490AF0EE690ACD
:105140009048FCF76BFC904880ED000A8548B0F968
:10515000000047F6F87188427FD18C48006802F061
:1051600018F941EC180B7549B1F9000002F011F97A
:1051700041EC190BB0EE481AF0EE681AB0EE490A8D
:10518000F0EE690A8248FCF749FC7F4880ED000A8E
:105190006648B0F9000002F0FCF841EC180B7D49BC
:1051A000B1F9020002F0F5F841EC190BB0EE481A23
:1051B000F0EE681AB0EE490AF0EE690A7648FCF79C
:1051C0002DFCBDEEC00A10EE100A05B26E4890ED3F
:1051D000000AB1EE400A10EE100A02F04BFB41EC5F
:1051E000180B6E48006802F045FB41EC190BB0EE5D
:1051F000481AF0EE681AB0EE490AF0EE690A6848FB
:10520000FCF70CFCBDEEC00A10EE100A04B25C48BC
:10521000006802F02FFB41EC180B6248006802F0B6
:1052200029FB41EC190BB0EE481AF0EE681AB0EE0B
:10523000490AF0EE690A5C48FCF7F0FBB1EE400A5F
:10524000BDEEC00A10EE100A06B200232A4621461F
:105250003046FDF7BFFA63E0FFE73448B0F90000DD
:1052600002F097F841EC180B4A49B1F9020002F03C
:1052700090F841EC190BB0EE481AF0EE681AB0EE57
:10528000490AF0EE690A4448FCF7C8FBBDEEC00AC3
:1052900010EE100A04B23C4890ED000AB1EE400A4C
:1052A00010EE100A02F0E6FA41EC190B3B480068D8
:1052B00002F0E0FA41EC180BB0EE491AF0EE691A70
:1052C000B0EE480AF0EE680A3848FCF7A7FBBDEEDE
:1052D000C00A10EE100A05B22948006802F0CAFAA6
:1052E00041EC180B2F48006802F0C4FA41EC190B8E
:1052F000B0EE481AF0EE681AB0EE490AF0EE690A0C
:105300002948FCF78BFBB1EE400ABDEEC00A10EE57
:10531000100A06B20023224629463046FDF75AFA03
:10532000BDEC088B70BD00005C0200206A0100200B
:105330000C0200201C02002048010020580100201F
:105340004C010020800100200000000000005940B6
:105350000000000000807640000000000000C04017
:1053600034010020820100203801002000020020CA
:10537000080200203C01002000B0B34528070020AF
:1053800010010020300800201401002040010020FE
:10539000D006002062010020880800200C010020B7
:1053A0002006002008010020D807002080070020E8
:1053B00070B52DED088B0120E24908604FF448706C
:1053C000E14908800120E1490860E148B0F90000A6
:1053D000E0490860E048B0F90000E0490860E048B2
:1053E000B0F90000404201F0D4FF41EC1B0B9FEDEF
:1053F000DD0B53EC102B01F045FE41EC1A0B9FED39
:10540000DB0B53EC102B01F03DFE41EC190B9FED33
:10541000D90B53EC102B02F00FF841EC180B01F0F4
:105420004BFDD6490860D648B0F90000404201F073
:10543000B0FF41EC1B0B9FEDCB0B53EC102B01F09D
:1054400021FE41EC1A0B9FEDC90B53EC102B01F020
:1054500019FE41EC190B9FEDC70B53EC102B01F01B
:10546000EBFF41EC180B01F027FDC6490860C3486B
:10547000D0ED000AB74890ED000AB8EEC00A30EE51
:10548000800AC14880ED000A0846D0ED000AB34802
:1054900090ED000AB8EEC00A30EE800ABB4880EDFD
:1054A000000ABB4800684000A0F5B050763800EE16
:1054B000100AB8EEC00AB448D0ED000AB4EEE00A13
:1054C000F1EE10FA0CD8B24800684000A0F5B050D8
:1054D000763800EE100AB8EEC00AAB4880ED000A3C
:1054E000A94890ED000ADFEDAB0AB4EEE00AF1EE58
:1054F00010FA03D89FEDA70A80ED000AA2480068C1
:1055000002F0B8F941EC180B9148B0F9000001F035
:1055100040FF41EC190BB0EE481AF0EE681AB0EEFD
:10552000490AF0EE690A9C48FCF778FA9B4880ED3E
:10553000000A9648006802F09DF941EC180B864974
:10554000B1F9000001F025FF41EC190BB0EE481A4B
:10555000F0EE681AB0EE490AF0EE690A9048FCF7DE
:105560005DFA904880ED000A8548B0F9000047F6E2
:10557000F87188427FD18C48006801F00AFF41EC45
:10558000180B7549B1F9000001F003FF41EC190B4C
:10559000B0EE481AF0EE681AB0EE490AF0EE690A69
:1055A0008248FCF73BFA7F4880ED000A6648B0F974
:1055B000000001F0EEFE41EC180B7D49B1F902004C
:1055C00001F0E7FE41EC190BB0EE481AF0EE681A54
:1055D000B0EE490AF0EE690A7648FCF71FFABDEE14
:1055E000C00A10EE100A05B26E4890ED000AB1EE46
:1055F000400A10EE100A02F03DF941EC180B6E481B
:10560000006802F037F941EC190BB0EE481AF0EEE1
:10561000681AB0EE490AF0EE690A6848FCF7FEF92C
:10562000BDEEC00A10EE100A04B25C48006802F039
:1056300021F941EC180B6248006802F01BF941ECBB
:10564000190BB0EE481AF0EE681AB0EE490AF0EE07
:10565000690A5C48FCF7E2F9B1EE400ABDEEC00A07
:1056600010EE100A06B200232A4621463046FDF706
:10567000B1F863E0FFE73448B0F9000001F089FEBB
:1056800041EC180B4A49B1F9020001F082FE41ECED
:10569000190BB0EE481AF0EE681AB0EE490AF0EEB7
:1056A000690A4448FCF7BAF9BDEEC00A10EE100AC8
:1056B00004B23C4890ED000AB1EE400A10EE100A28
:1056C00002F0D8F841EC190B3B48006802F0D2F820
:1056D00041EC180BB0EE491AF0EE691AB0EE480A28
:1056E000F0EE680A3848FCF799F9BDEEC00A10EEF2
:1056F000100A05B22948006802F0BCF841EC180B0A
:105700002F48006802F0B6F841EC190BB0EE481AC9
:10571000F0EE681AB0EE490AF0EE690A2948FCF783
:105720007DF9B1EE400ABDEEC00A10EE100A06B2D5
:105730000023224629463046FDF74CF8BDEC088B85
:1057400070BD00005C0200206A0100200C020020F5
:105750001C02002048010020580100204C010020BC
:1057600080010020000000000000594000000000FF
:1057700000807640000000000000C040340100209E
:1057800082010020380100200002002008020020D1
:105790003C01002000B0B345280700201001002084
:1057A000300800201401002040010020D006002015
:1057B00062010020880800200C0100202006002043
:1057C00008010020D8070020800700201CB5012117
:1057D0000220FCF7ABFB1020009001208DF80400A4
:1057E00000208DF8060003208DF8050002208DF8BA
:1057F000070069460348FCF71EF810210148FCF732
:105800008EF81CBD0004024010B52DED0A8B4848EF
:10581000408960B1012811D0022812D0032813D189
:1058200000231A4619461846FDF706F80CE0002337
:105830001A4619461846FCF7FFFF05E000F02CFD5C
:1058400002E0FAF70DFE00BF00BF3A49B1F90210BD
:105850004942394AB2F902201144384AB2F90220C9
:105860001144374AB2F90220881A01F092FD41EC46
:105870001C0B9FED340B53EC102B01F0DDFD41ECC4
:105880001B0B9FED320B53EC102B01F0FBFB41EC9B
:105890001A0B9FED300B53EC102B01F0CDFD41ECBA
:1058A000190B9FED2E0B53EC102B01F0EBFB41EC91
:1058B000180B01F001FB2B4908601E49B1F90210D9
:1058C00049421D4AB2F9022011441C4AB2F9022091
:1058D000891A1B4AB2F90220881801F05AFD41ECDE
:1058E0001C0B9FED180B53EC102B01F0A5FD41ECA8
:1058F0001A0B9FED160B53EC102B01F0C3FB41EC80
:10590000190B9FED140B53EC102B01F095FD41EC9E
:10591000180B9FED120B53EC102B01F0B3FB41EC75
:105920001B0B01F0C9FA10490860BDEC0A8B10BDD1
:10593000E0080020A8000020B8000020B0000020EF
:10594000C00000207B14AE47E17A843F00000000D5
:10595000000010408DD13AAA9AA0F63F0000000046
:1059600000000040A0000020A400002010B500218D
:1059700007E042F63C0200BF131EA2F10102FBD178
:10598000491C8142F5D310BD0146002901DB0846C0
:1059900070474842FCE7000010B53A4840780128BB
:1059A00002D000203849086036484078032802D0E9
:1059B0000120364908603648008836490880084684
:1059C000B0F90000B0F5FA6F05DC0846008800F574
:1059D000005000B208803048008820B99FED2F0B9E
:1059E000304880ED0C0B30484089B8B1012827D0F1
:1059F000022828D0032843D10020274908800846E0
:105A0000008820B99FED250B264880ED0C0B002364
:105A10001A4619461846FCF7DDFE31E000201E4903
:105A200008800846008820B99FED1C0B1D4880EDBA
:105A30000C0B00231A4619461846FCF7CBFE1FE054
:105A400000F0E2FD1CE00F48407898B10D48407826
:105A500001280FD00B48407802280BD00948407825
:105A6000032807D007484078042803D00548407829
:105A7000052802D1002008490880FAF70FFD00BF71
:105A800000BF10BD60020020200200200C02002098
:105A9000500100201C0200206A01002000000000CC
:105AA0000000000088080020E008002010B500F089
:105AB0000DFA10BD10B50446062221464920FBF719
:105AC0003DFF10BD10B530216A2000F0C1FB0A2057
:105AD000FFF74CFF0D21242000F0BAFB0A20FFF74E
