:020000040800F2
:100000008010002069020008551B000875190008BF
:10001000511B0008F50400083D36000800000000F0
:10002000000000000000000000000000D1240008D3
:100030006318000800000000CF200008BD2B000856
:10004000830200088302000883020008830200087C
:10005000830200088302000883020008830200086C
:10006000830200088302000883020008830200085C
:10007000830200088302000883020008830200084C
:10008000830200088302000883020008830200083C
:10009000F9040008830200088302000883020008B4
:1000A000830200088302000883020008830200081C
:1000B000292C0008452C00080D2E0008830200089A
:1000C00083020008830200088302000883020008FC
:1000D00083020008D1300008B5310008830200080F
:1000E00083020008830200088302000883020008DC
:1000F00083020008830200088302000883020008CC
:100100008302000883020008552E000883020008BD
:1001100083020008830200088302000883020008AB
:10012000830200088302000883020008830200089B
:10013000830200088302000883020008830200088B
:10014000850B000883020008830200088302000870
:100150008302000883020008830200083533000888
:10016000830200088302000883020008830200085B
:10017000830200088302000883020008830200084B
:10018000830200088302000800F002F800F05CF827
:100190000AA090E8000C82448344AAF10107DA45E2
:1001A00001D100F051F8AFF2090EBAE80F0013F0D8
:1001B000010F18BFFB1A43F0010318470C7C000025
:1001C0002C7C00000A444FF0000C10F8013B13F0A7
:1001D000070408BF10F8014B1D1108BF10F8015BA0
:1001E000641E05D010F8016B641E01F8016BF9D193
:1001F00013F0080F1EBF10F8014BAD1C0C1B09D1EA
:100200006D1E58BF01F801CBFAD505E014F8016B5B
:1002100001F8016B6D1EF9D59142D6D370470000ED
:100220000023002400250026103A28BF78C1FBD8FF
:10023000520728BF30C148BF0B6070471FB507F099
:10024000B0FD1FBD10B510BD00F0CFF81146FFF78F
:10025000F5FF06F02DF800F0EDF803B4FFF7F2FF1C
:1002600003BC00F0F5F80000094880470948004742
:10027000FEE7FEE7FEE7FEE7FEE7FEE7FEE7FEE756
:10028000FEE7FEE704480549054A064B70470000B3
:10029000C12B000889010008800A0020801000207E
:1002A000800C0020800C0020032A40F2308010F0E7
:1002B000030C00F0158011F8013BBCF1020F624401
:1002C00098BF11F801CB00F8013B38BF11F8013B92
:1002D000A2F1040298BF00F801CB38BF00F8013B3F
:1002E00011F0030300F04F80083AC0F0088051F885
:1002F000043B083A51F804CBA0E80810F5E7121DBA
:100300005CBF51F8043B40F8043BAFF30080D207D8
:1003100024BF11F8013B11F801CB48BF11F8012BA4
:1003200024BF00F8013B00F801CB48BF00F8012BC7
:1003300070474FF0000200B51346944696462039A8
:1003400022BFA0E80C50A0E80C50B1F12001BFF48E
:10035000F7AF090728BFA0E80C5048BF0CC05DF8F4
:1003600004EB890028BF40F8042B08BF704748BF42
:1003700020F8022B11F0804F18BF00F8012B7047B6
:1003800070477047704710B5203AC0F00B80B1E855
:100390001850203AA0E81850B1E81850A0E81850BA
:1003A000BFF4F5AF5FEA027C24BFB1E81850A0E8C3
:1003B000185044BF18C918C0BDE810405FEA827CDD
:1003C00024BF51F8043B40F8043B08BF7047D207F4
:1003D00028BF31F8023B48BF11F8012B28BF20F895
:1003E000023B48BF00F8012B7047754600F02CF81F
:1003F000AE4605006946534620F00700854618B012
:1004000020B5FFF73FFFBDE820404FF000064FF05A
:1004100000074FF000084FF0000B21F00701AC4639
:10042000ACE8C009ACE8C009ACE8C009ACE8C00958
:100430008D46704710B50446AFF300802046BDE8F6
:100440001040FFF70ABF000000487047200A002054
:1004500001491820ABBEFEE72600020070470000ED
:1004600010B50D4890F90000012806D0022807D0E9
:10047000032808D004280CD108E003F0E1F808E0D4
:1004800003F01CFA05E003F063FB02E003F0AAFCB2
:1004900000BF00BF10BD0000A802002010B5144826
:1004A00090F90100092821D2DFE800F00508110BBE
:1004B000140E171A1D0003F0CDFD17E003F030FEF7
:1004C00014E004F0BFF911E004F060FB0EE003F06B
:1004D00075FF0BE004F058FB08E004F0E9FC05E0D0
:1004E00004F00CFF02E005F02FF900BF00BF10BDC3
:1004F000A802002000BFFEE7F0B585B00221FE484B
:1005000000F042FD00287DD00221FB4800F064FC91
:10051000FA49F94800F044FC6A460021F64800F028
:1005200056FEF7480068B0F57A7F04DAF4480068B0
:10053000401CF3490860F2480068B0F57A7F03DB9D
:100540004FF47A70EE4908600098A0F20120072865
:100550007ED2DFE800F004AAFDFCFBFAF900E848CF
:100560000068B0F57A7F0DDA9DF80C009DF80B104D
:1005700040EA012000B2E349088008460088E249C9
:1005800008805FE0DF480088E04908809DF80C00A3
:100590009DF80B1040EA012000B2DA4908800846B5
:1005A000B0F90000D949B1F90010401AB0F5805FE8
:1005B00010DDD7480088401E00B2D5490880D148D8
:1005C0000088D2490988401AA0F5005000B2CD49F0
:1005D000C88024E0CB48B0F90000CC49B1F9001044
:1005E000401A10F5805F12DAC9480088401C00B23A
:1005F000C7490880C3480088C4490988401A00F5E3
:10060000005000E0A2E200B2BE49C88007E0BD4849
:100610000088BE490988401A00B2BA49C880B94862
:10062000B0F90010BA48B0F9000001EB4030B6490B
:10063000B1F90010401A00EE100AB8EEC00AB54831
:1006400080ED000A0024AF48B0F90610B24800E07F
:1006500049E202680068401CAF4B1860AF4840F8A0
:10066000221018460068052802DB002019460860A1
:10067000002005E0A94951F820100C44411CC8B2E3
:100680000528F7DB052094FBF0F000EE100AB8EE29
:10069000C00ADFEDA30A20EE200ABDEEC00A10EE6C
:1006A000100A00B2974948804FE295480068B0F5BB
:1006B0007A7F0DDA9DF80C009DF80B1040EA0120BE
:1006C00000B298490880084600889749088063E08E
:1006D00094480088954908809DF80C009DF80B10FF
:1006E00040EA012000B28F4908800846B0F90000B6
:1006F0008E49B1F90010401AB0F5805F10DD8C48CA
:100700000088401E00B28A490880864800888749D0
:100710000988401AA0F5005000B28249C88028E03C
:100720008048B0F900008149B1F90010401A10F575
:10073000805F16DA7E480088401C00B27C49088041
:1007400078480088794904E0E4E1D8E1CCE129E186
:1007500053E00988401A00F5005000B27149C88082
:1007600007E07048008871490988401A00B26D4955
:10077000C8806C48B0F900106D48B0F9000001EB7A
:1007800040306949B1F90010401A00EE100AB8EE85
:10079000C00A684880ED000A00256248B0F90610DA
:1007A000654802680068401C634B1860634840F865
:1007B000221018460068052802DB00201946086050
:1007C000002005E05D4951F820100D44411CC8B2DD
:1007D0000528F7DB052095FBF0F000EE100AB8EED7
:1007E000C00ADFED4F0A20EE200ABDEEC00A10EE6F
:1007F000100A00B24B494880A7E141480068B0F5B3
:100800007A7F0DDA9DF80C009DF80B1040EA01206C
:1008100000B24B490880084600884A4908805DE0DC
:1008200047480088484908809DF80C009DF80B1047
:1008300040EA012000B2424908800846B0F90000B1
:100840004149B1F90010401AB0F5805F10DD3F4812
:100850000088401E00B23D490880394800883A4966
:100860000988401AA0F5005000B23549C88022E03E
:100870003348B0F900003449B1F90010401A10F5BE
:10088000805F10DA31480088401C00B22F49088090
:100890002B4800882C490988401A00F5005000B206
:1008A0002749C88007E02648008827490988401A58
:1008B00000B22349C8802248B0F900102348B0F99B
:1008C000000001EB40301F49B1F90010401A00EE62
:1008D000100AB8EEC00A1E4880ED000A002618482B
:1008E000B0F906101B4802680068401C194B1860DC
:1008F000194840F8221031E0006400400300001263
:10090000A4000020D4000020F4000020FC000020FF
:10091000040100200C010020A8000020AC040020ED
:10092000355EEA40DC000020F6000020FE000020DA
:100930000601002010010020AC000020C0040020AF
:10094000E4000020F8000020000100200801002041
:1009500014010020B0000020D404002018460068D4
:10096000052802DB002019460860002005E07849D0
:1009700051F820100E44411CC8B20528F7DB0520B1
:1009800096FBF0F000EE100AB8EEC00A5FED1C0A0C
:1009900020EE200ABDEEC00A10EE100A00B26D492A
:1009A0004880D2E06C480068B0F57A7F0DDA9DF897
:1009B0000C009DF80B1040EA012000B26749088046
:1009C00008460088664908805DE0644800886549FB
:1009D00008809DF80C009DF80B1040EA012000B241
:1009E0005E4908800846B0F900005E49B1F9001080
:1009F000401AB0F5805F10DD5B480088401E00B2F1
:100A0000594908805548008856490988401AA0F578
:100A1000005000B25149C88022E05048B0F90000AF
:100A20005049B1F90010401A10F5805F10DA4E48B5
:100A30000088401C00B24C49088048480088494959
:100A40000988401A00F5005000B24449C88007E008
:100A50004248008843490988401A00B23F49C8808B
:100A60003E48B0F900104048B0F9000001EB4030BA
:100A70003B49B1F90010401A00EE100AB8EEC00A66
:100A80003A4880ED000A00273448B0F9061038488B
:100A900002680068401C364B1860364840F8221047
:100AA00018460068052802DB00201946086000206F
:100AB00005E0304951F820100F44411CC8B2052808
:100AC000F7DB052097FBF0F000EE100AB8EEC00A45
:100AD0005FED6D0A20EE200ABDEEC00A10EE100A8E
:100AE00000B21E49488030E01B480068B0F57A7FAC
:100AF00004DB0DF10B01204800F0B4FE25E01648A0
:100B00000068B0F57A7F04DB0DF10B011B4800F0A3
:100B1000A9FE1AE010480068B0F57A7F14DB0DF1E9
:100B20000B01174800F09EFE0DF10D011448801CCA
:100B300000F098FE0DF10F011148001D00F092FE2B
:100B40009DF811000E49C88000BF00BF05B0F0BD80
:100B5000D4040020E4000020A4000020EC000020C9
:100B6000FA000020020100200A01002018010020E4
:100B7000B4000020E80400207C0100208401002053
:100B80009401002000B52DED088B85B00221794835
:100B900000F0FAF960B10221764800F01DF97649BB
:100BA000744800F0FDF86A460021724800F00FFB1F
:100BB0000098A0F25920E0B1B0F5D47F18D19DF88B
:100BC0000B0001069DF80C0041EA00419DF80D0064
:100BD00041EA00209DF80E10084300EE100AB8EE1E
:100BE000C00ADFED660A20EE200A654880ED000AA3
:100BF000BAE06448007802282AD19DF80A00082843
:100C000026D19DF80B109DF80C0041EA002001B29E
:100C10005D48C1819DF80D109DF80E0041EA00204D
:100C200001B2594801829DF80F109DF8100041EA69
:100C3000002001B2544841829DF811109DF8120025
:100C400041EA002001B25048818200204D490870DD
:100C50004C480078012861D19DF80A0008285DD130
:100C60004A480068401C494908609DF80B109DF8EF
:100C70000C0041EA002000B2434908809DF80D10A5
:100C80009DF80E0041EA002000B23F494880084626
:100C900090ED020A10EE101A084607F011F841EC28
:100CA000190B9DF80F209DF8101042EA012006F064
:100CB00096FD41EC1B0B9FED360B53EC102B06F011
:100CC00007FC41EC1A0B53EC192B06F00FFF41EC1B
:100CD000180B06F017FB2C494860084690ED010AF6
:100CE000B5EEC00AF1EE10FA07D290ED010ADFED81
:100CF0002A0A30EE200A80ED010A9DF811109DF8B5
:100D0000120041EA002000B21F4988812348007880
:100D1000C0432249087002201A4908701948007817
:100D200008BB9DF80A0006281DD19DF80B109DF800
:100D30000C0041EA002001B21348C1829DF80D1059
:100D40009DF80E0041EA002000B20F4988829DF80C
:100D50000F109DF8100041EA002000B20A49C88235
:100D600001200849087000BF00BF05B0BDEC088B2A
:100D700000BD000000680040030000126F12833ABB
:100D800050010020B800002038040020BC000020E2
:100D900000000000000059400000B443BB000020E8
:100DA00000220C4B994202D10023836111E0C1F370
:100DB000130201F000730BB1C2600AE001F080631E
:100DC0000BB1026105E001F000630BB1826000E04D
:100DD000426070477000F030B1F5007F3AD00FDC10
:100DE000202928D006DC01291CD004291DD008297F
:100DF00040D11DE0402921D0B1F5807F3AD126E0D5
:100E0000B1F5004F31D006DCB1F5806F25D0B1F5DA
:100E1000006F2FD124E0B1F5803F12D0B1F5003F33
:100E200028D111E0154A826025E00822C26022E044
:100E30001022C2601FE0082202611CE01022026141
:100E400019E00822426016E01022426013E00422FA
:100E5000426010E0042242600DE0042242600AE099
:100E6000002282610422426005E0002282610422A5
:100E7000426000E000BF00BF7047000001010100B8
:100E800010B50021837A012202FA03F13D4A12686B
:100E900042F001023B4B1A603A4A1C3212688A4304
:100EA000384B1C331A60027BCAB9364A0C321268BE
:100EB0008A43344B0C331A604288C38842EA0343A6
:100EC000304A4032847A42F834300288838842EAD9
:100ED00003432C4A4032847A02EBC4025360027B03
:100EE000012A19D1274A0C3212680A43254B0C33C8
:100EF0001A604288038842EA0343224A4032847AD5
:100F000042F83430C288838842EA03431D4A4032A3
:100F1000847A02EBC4025360C27A3AB9194A121DAC
:100F200012688A43174B1B1D1A6006E0154A121DF2
:100F300012680A43134B1B1D1A60028932B9114A09
:100F4000143212688A430F4B14331A600289012A43
:100F500006D10C4A143212680A430A4B14331A6041
:100F6000427B012A06D1074A1C3212680A43054B0C
:100F70001C331A60034A126822F00102014B1A6006
:100F800010BD00000066004070B504460D46002606
:100F900060692840002871D0B5F5807F5CD010DCF6
:100FA000082D35D006DC012D20D0022D24D0042DB3
:100FB00072D127E0102D31D0202D35D0402D6BD1AE
:100FC00038E0B5F5004F60D009DCB5F5007F49D0B9
:100FD000B5F5806F4CD0B5F5006F5DD14FE0B5F53C
:100FE000803F2DD0B5F5003F56D12FE0A0682D49A8
:100FF00000F0F6FA064651E0E068032100F0F0FA4E
:1010000006464BE0E068082100F0EAFA064645E0B3
:10101000E068102100F0E4FA06463FE02069032171
:1010200000F0DEFA064639E02069082100F0D8FA1F
:10103000064633E02069102100F0D2FA06462DE082
:101040006068082100F0CCFA064627E060681021AD
:1010500000F0C6FA064621E0A069012100F0C0FABE
:1010600006461BE0A069022100F0BAFA064615E028
:10107000A069042100F0B4FA06460FE00FE0A06971
:10108000702100F0ADFA064608E06068042100F027
:10109000A7FA064602E0FFE7002600BF00E00026B0
:1010A000304670BD010101001AB143690B43436131
:1010B00002E043698B434361704730B5024600202C
:1010C0000023146824F002041460146844F001043E
:1010D000146000E05B1C546804F001041CB94FF676
:1010E000FF74A342F6D1546804F001040CB9002047
:1010F0006CE08C79012C04D1146844F080041460F5
:1011000003E0146824F080041460CC79012C04D12D
:10111000146844F04004146003E0146824F04004B0
:1011200014600C7A012C04D1146844F0200414607B
:1011300003E0146824F0200414604C7A012C04D1DC
:10114000146844F01004146003E0146824F01004E0
:1011500014608C7A012C04D1146844F008041460E3
:1011600003E0146824F008041460CC7A012C04D144
:10117000146844F00404146003E0146824F00404C8
:1011800014608C78A407CD7844EA05640D7944EAAC
:1011900005444D7944EA05540D886D1E2C43D461F5
:1011A000146824F001041460002300E05B1C546800
:1011B00004F001041CB14FF6FF74A342F6D1546849
:1011C00004F001040CB1002000E0012030BD10B596
:1011D00000F5D87303EB01131B6803F004031372CB
:1011E000137A53B900F5D87303EB01131B6840F26F
:1011F000FF7404EA5353136009E000F5D87303EB5E
:1012000001131B686FF0604404EAD303536000F5D8
:10121000D87303EB01131B6803F00203537200F54C
:10122000D87303EB01135B6803F00F03937200F5AF
:10123000D87303EB01135B681B0AD37400F5D873F2
:1012400003EB01139B68D37200F5D87303EB011312
:101250009B681C0A147300F5D87303EB01139B6899
:101260001C0C547300F5D87303EB01139B681B0E21
:10127000937300F5D87303EB0113DB68D37300F5A8
:10128000D87303EB0113DB681C0A147400F5D873E0
:1012900003EB0113DB681C0C547400F5D87303EBEB
:1012A0000113DB681B0E937421B9C36843F020035C
:1012B000C36003E0036943F02003036110BD10B570
:1012C00002460020936803F08063B3F1806F00D181
:1012D00010E0936803F00063B3F1006F01D10120C7
:1012E00008E0936803F08053B3F1805F01D10220DE
:1012F00000E00420042874D002F5C07303EB00134F
:101300001B6803F0010402F5C07303EB00131C60BB
:101310000B7A7BB94B7A0C8843EA445302F5C074CC
:1013200004EB00142468234302F5C07404EB00149A
:10133000236010E00B7A4C6843EAC4034C7A2343E1
:1013400002F5C07404EB00142468234302F5C07452
:1013500004EB001423608B7A03F00F038B7202F509
:10136000C07303EB00135B6823F00F0402F5C07336
:1013700003EB00135C6002F5C07303EB00135B68C2
:101380008C7A234302F5C07404EB001463608B7BFA
:101390001C064B7B44EA03440B7B44EA0323CC7AD0
:1013A000234302F5C07404EB0014A3608B7C1C067D
:1013B0004B7C44EA03440B7C44EA0323CC7B234369
:1013C00002F5C07404EB0014E36002F5C07303EB94
:1013D00000131B6843F0010402F5C07303EB001314
:1013E0001C6010BD00B58BB00121480600F080FEE6
:1013F0000121082000F06CFE0320069002208DF8E9
:101400001C0000208DF81E0003208DF81D00012017
:101410008DF81F0006A9304800F02BFA09220021A0
:101420002D4800F06EFA092201212B4800F069FADC
:1014300000208DF826008DF827008DF82800012067
:101440008DF8290000208DF82A0001208DF82B004E
:1014500000208DF822008DF8230008208DF824004C
:1014600003208DF82500ADF8200008A91B48FFF7E0
:1014700024FE00208DF812008DF8130001208DF855
:1014800014000020ADF80800ADF80A00ADF80C001B
:10149000ADF80E00ADF8100001208DF8150002A87F
:1014A000FFF7EEFC14208DF8040000208DF80500F5
:1014B0008DF8060001208DF8070001A800F04CFB14
:1014C000012202210548FFF7EFFD012211460348E2
:1014D000FFF7EAFD0BB000BD000C024000640040C5
:1014E00000B58BB00121880600F002FE0121022028
:1014F00000F0EEFD4FF44050069002208DF81C00E5
:1015000000208DF81E0003208DF81D0001208DF8AD
:101510001F0006A9304800F0ACF909220C212E4822
:1015200000F0EFF909220D212B4800F0EAF9002024
:101530008DF826008DF827008DF828008DF82900F9
:101540008DF82A0001208DF82B0000208DF8220054
:101550008DF8230008208DF8240003208DF8250045
:10156000ADF8200008A91D48FFF7A7FD0E208DF853
:10157000120000208DF8130001208DF814000020C7
:10158000ADF80800ADF80A00ADF80C00ADF80E009B
:10159000ADF8100001208DF8150002A8FFF770FCCF
:1015A00040208DF8040003208DF8050000208DF800
:1015B000060001208DF8070001A800F0CDFA0122F5
:1015C00002210648FFF770FD012211460348FFF78C
:1015D0006BFD0BB000BD000000040240006800403D
:1015E0000246002002EA01030BB1012000E00020C6
:1015F000704700000246094B9A4201D2084801E0B8
:101600000648103801F000531BB1064B0B40C36075
:1016100002E0044B0B4083607047000010640240FE
:10162000006002407D0F7D0F21B1026842F001028F
:10163000026003E0026822F00102026070470000CD
:10164000016821F0010101600021016041608160B9
:10165000C1600161212141614A49884204D13D2193
:10166000484A103A91608CE046491831884205D1C9
:101670004FF47461434A103A916082E0414930313D
:10168000884205D14FF474113E4A103A916078E0D7
:101690003C494831884205D14FF07461394A103ACB
:1016A00091606EE037496031884204D13649354A4D
:1016B000103AD16065E033497831884204D133492A
:1016C000304A103AD1605CE02E499031884204D112
:1016D0002F492C4A103AD16053E02A49A831884258
:1016E00005D14FF03D51274A103AD16049E02949D0
:1016F000884204D13D21274A083A116041E025493A
:101700001831884205D14FF47461224A083A1160B9
:1017100037E020493031884205D14FF474111D4A19
:10172000083A11602DE01B494831884205D14FF03D
:101730007461184A083A116023E016496031884202
:1017400004D11149134A121F11601AE0114978316E
:10175000884204D10D490F4A121F116011E00D4952
:101760009031884204D10A490A4A121F116008E0E8
:101770000849A831884204D14FF03D51054A121F53
:1017800011607047106002403D000020400F0020B3
:1017900000003D201064024021B1026842F4802222
:1017A000026003E0026822F480220260704722B1E6
:1017B000036843F40023036003E0036823F4002379
:1017C0000360016170470146486880B27047014676
:1017D00000200A6802F400220AB1012000E0002083
:1017E0007047000010B500220268134B1A40CC6805
:1017F0000B6823434C6923438C692343CC692343FF
:101800000C6A23434C6A23438C6A23434C6B234367
:101810008C6B23431A430260426922F00702D1E92C
:101820000B3423431A4342610B6943604B68836066
:101830008B68C36010BD00003F801CF041607047A2
:101840000021016041608160C1600161416181618D
:10185000C161016241628162C1620163416381636E
:10186000704770474A780B7842EA032212B202802E
:101870007047F0B50A4600210023002400BF3DE078
:10188000012505FA01F3156805EA03049C4234D1E9
:1018900005684F000326BE40B543056015794E002C
:1018A000B5400668354305601579012D02D01579DC
:1018B000022D16D185684F000326BE40B5438560D2
:1018C00055794E00B54086683543856045680126E8
:1018D0008E40B5434560456896798E40B6B2354333
:1018E0004560C5684F000326BE40B543C560D57945
:1018F0004E00B540C6683543C560491C1029BFD3AA
:10190000F0BDF0B5002300244D07ED0E02FA05F3FB
:10191000CE1000F1200555F826504E07F70E0F2681
:10192000BE40B543CF1000F1200646F82750CE1038
:1019300000F1200555F8265045EA0304CE1000F1C9
:10194000200545F82640F0BD0246002013690B40F3
:101950000BB1012000E000207047418370470183F4
:1019600070474FF6FF710160002101714171817173
:10197000C171704700BFFEE770B505460C461646BC
:1019800040210C48FFF7E9FF45F08005284600F0AC
:101990004BFD04E0FF2000F047FD2070641C301E6A
:1019A000A6F101018EB2F5D140210248FFF7D7FF21
:1019B00070BD0000001402404FF448706349088075
:1019C0004FF4FA704880702008814FF494715F489A
:1019D000418168205D498881C0215C48C1818B209C
:1019E0005A4908824FF49B7158484182EF20574969
:1019F000888240F237115548C182782053490883C4
:101A00007D2152484183F0205049888378214F48F6
:101A1000C1833F204D49088440F2B9114B484184AD
:101A2000DC204A4988844FF4D8714848C184492051
:101A30004649088540F2591144484185F020434900
:101A400088854FF4A0714148C185FA203F49088636
:101A5000FA213E48418640F265103C498886EE21D5
:101A60003A48C1864FF4C8703849088740F20B11D4
:101A7000364841874FF4FF7034498887FA2133484C
:101A8000C1874FF402703149A1F840004FF4C3718F
:101A90002E48A0F8421040F27B202C49A1F84400C7
:101AA00040F277112948A0F8461040F21220274949
:101AB000A1F84800D2212548A0F84A104FF4207020
:101AC0002249A1F84C00C8212048A0F84E1040F24D
:101AD00017201E49A1F85000A7211C48A0F8521059
:101AE0004FF42F701949A1F85400AF211748A0F8FE
:101AF00056104FF405701549A1F8580050211348AD
:101B0000A0F85A1040F2C6201049A1F85C004E21FE
:101B10000E48A0F85E104FF425700C49A1F8600043
:101B200040F24F110948A0F8621040F29520074991
:101B3000A1F86400DE210548A0F8661000200349E2
:101B4000A1F86800A1F86A0070470000B009002001
:101B500000BFFEE77047000070B5002100230F2290
:101B6000C4781CB3174C246804F4E064C4F5E06442
:101B7000C4F30721C1F10404E3B20A4144789C4054
:101B8000E1B28478144021430C07210E0E4C0578F5
:101B90006155047804F01F050124AC4005786D11EF
:101BA000AD0005F1E025C5F8004109E0047804F036
:101BB0001F050124AC40054D0678761145F82640F6
:101BC00070BD00000CED00E000E400E080E100E00A
:101BD00010B52DED0C8B0446B0EE408AF0EE608A15
:101BE000B0EE419AF0EE619A9FED8B0BB0EE40BAE9
:101BF000F0EE60BA9FED880BB0EE40CAF0EE60CA1E
:101C00009FED850BB0EE40DAF0EE60DA53EC182B66
:101C100051EC190B05F06AFFC4E9060194ED002BA5
:101C2000B0EE420AF0EE620A94ED062BB0EE421AD4
:101C3000F0EE621A53EC102B51EC110B05F022FE62
:101C4000C4E90A0194ED022BB0EE420AF0EE620AFA
:101C500094ED062BB0EE421AF0EE621A53EC102B04
:101C600051EC110B05F00EFE41EC1A0B94ED0C1B20
:101C7000B0EE410AF0EE610A53EC102B05F074FB54
:101C8000C4E90C0194ED102BB0EE420AF0EE620AAA
:101C900094ED0C2BB0EE421AF0EE621A53EC102BBE
:101CA00051EC110B05F0ECFE04D894ED100B84ED13
:101CB0000C0B22E094ED101BB0EE410AF0EE610A2D
:101CC00051EC100B05F012FB41EC1A0B94ED0C1BC0
:101CD000B0EE410AF0EE610A53EC102B05F0D0FE95
:101CE0000BD894ED101BB0EE410AF0EE610A51ECF6
:101CF000100B05F0FBFAC4E90C0194ED082BB0EED3
:101D0000420AF0EE620A94ED062BB0EE421AF0EEB3
:101D1000621A53EC102B51EC110B05F0E7FE41EC6D
:101D20001A0B94ED041BB0EE410AF0EE610A53EC7D
:101D3000102B05F0A7FDC4E90E0194ED060B84ED10
:101D4000080B94ED0C2BB0EE420AF0EE620A94ED13
:101D50000A2BB0EE421AF0EE621A53EC102B51EC43
:101D6000110B05F001FB41EC1A0B94ED0E1BB0EECC
:101D7000410AF0EE610A53EC102B05F0F5FAC4E9C4
:101D8000140194ED122BB0EE420AF0EE620A94EDCB
:101D9000142BB0EE421AF0EE621A53EC102B51ECF9
:101DA000110B05F06DFE04D894ED120B84ED140BAD
:101DB00022E094ED121BB0EE410AF0EE610A51EC04
:101DC000100B05F093FA41EC1A0B94ED141BB0EED6
:101DD000410AF0EE610A53EC102B05F051FE0BD8CE
:101DE00094ED121BB0EE410AF0EE610A51EC100BBB
:101DF00005F07CFAC4E9140194ED141BB0EE410A1D
:101E0000F0EE610A51EC100B05F07CFA00EE100ABE
:101E1000BDEC0C8B10BD00000000000000000000B5
:101E200010B5044658212046FEF783FA10BD000085
:101E300010B56848FFF7F4FF9FED674B9FED683BD7
:101E40009FED692B9FED6A1B9FED6B0B614800F0C6
:101E500033F96B48FFF7E4FF9FED5F4B9FED603B6D
:101E60009FED612B9FED621B9FED630B644800F0BB
:101E700023F96448FFF7D4FF9FED574B9FED583B84
:101E80009FED592B9FED5A1B9FED5B0B5D4800F0BA
:101E900013F95D48FFF7C4FF9FED4F4B9FED503B9B
:101EA0009FED512B9FED521B9FED530B564800F0B9
:101EB00003F95648FFF7B4FF9FED554B9FED563B96
:101EC0009FED572B9FED581B9FED590B4F4800F08E
:101ED000F3F85948FFF7A4FF9FED3F4B9FED573BA9
:101EE0009FED582B9FED591B9FED5A0B524800F068
:101EF000E3F85A48FFF794FF9FED594B9FED5A3B8B
:101F00009FED472B9FED511B9FED590B534800F060
:101F1000D3F85948FFF784FF9FED2F4B9FED473BC8
:101F20009FED482B9FED491B9FED4A0B524800F057
:101F3000C3F85248FFF774FF9FED354B9FED363BDA
:101F40009FED372B9FED4E1B9FED390B4B4800F05B
:101F5000B3F84D48FFF764FF9FED1F4B9FED373BF4
:101F60009FED3C2B9FED391B9FED480B464800F041
:101F7000A3F84848FFF754FF9FED394B9FED463BD0
:101F80009FED272B9FED3E1B9FED450B414800F039
:101F900093F84548FFF744FF9FED0F4B9FED273B1C
:101FA0009FED2C2B9FED291B9FED380B3E4800F039
:101FB00083F83E48FFF734FF9FED074B9FED3C3B16
:101FC0009FED172B9FED211B9FED270B374800F04E
:101FD00073F810BD20050020000000000088C340F9
:101FE0000000000000409F4000000000000024406E
:101FF000000000000000E03F0000000000003C4046
:1020000078050020D0050020280600203007002099
:1020100000000000000010409A9999999999D93FC1
:1020200000000000000000002D431CEBE2361A3FC8
:102030007B14AE47E17A843F800600200000000058
:10204000000059400000000000C06240FCA9F1D22D
:102050004D62503F0000000000408F408807002084
:102060000000000000000840000000000000F03FF9
:102070007B14AE47E17A943FD8060020E0070020A9
:10208000F168E388B5F8E43E900800200000000005
:1020900000C09240E80800209A9999999999E93FDF
:1020A000FA7E6ABC7493683F38080020400900201B
:1020B000000000000088B34080ED000B80ED021BA3
:1020C00080ED042B80ED103B80ED124B7047704784
:1020D00029B1064A12680243044B1A6004E0034A1D
:1020E00012688243014B1A6070470000303802408A
:1020F00029B1064A12680243044B1A6004E0034AFD
:1021000012688243014B1A60704700004038024059
:1021100029B1064A12680243044B1A6004E0034ADC
:1021200012688243014B1A60704700002038024059
:1021300029B1064A12680243044B1A6004E0034ABC
:1021400012688243014B1A60704700004438024015
:1021500029B1064A12680243044B1A6004E0034A9C
:1021600012688243014B1A60704700002438024015
:10217000F0B5002100220024022500260223324F60
:102180003F6807F00C0121B1042905D0082937D197
:1021900005E02E4F076036E02D4F076033E02A4FF1
:1021A0003F1F3F68C7F38056274F3F1F3F6807F028
:1021B0003F036EB1264FB7FBF3F7DFF88CC0ACF1ED
:1021C000040CDCF800C0CCF3881C07FB0CF40CE01A
:1021D0001E4FB7FBF3F7DFF870C0ACF1040CDCF86E
:1021E00000C0CCF3881C07FB0CF4174F3F1F3F685F
:1021F000C7F301477F1C7D00B4FBF5F7076002E0E1
:10220000124F076000BF00BF0F4F3F6807F0F0019B
:102210000909104F7A5C0768D74047600A4F3F684A
:1022200007F4E051890A0B4F7A5C4768D740876012
:10223000054F3F6807F46041490B064F7A5C4768D9
:10224000D740C760F0BD0000083802400024F40009
:10225000001BB700F801002000B5014601B900BD20
:1022600008784A7840EA0220C0F30A00314A108018
:102270004878C0108A7840EA4210C0F30A002D4A1C
:10228000508088788011CA7840EA82000A7940EA52
:102290008220C0F30A00274A9080087940104A79CA
:1022A00040EAC210C0F30A00224AD08048790011E7
:1022B000800810814879C0F3011050818879CA796B
:1022C00040EA02201B4A9081087A4A7A40EA0222B8
:1022D0001848C281887ACA7A40EA022215480282E6
:1022E0000A7B42824A7B8282887BCA7B40EA022048
:1022F000104A907510464089012804D0022813D056
:10230000032814D102E004F02DFB10E000200A4A5B
:1023100010600A4A10600A4A10800A4A10800A4A6D
:1023200010800A4A108002E004F01CFB00BF00BFCE
:1023300000BF94E798090020080200200C0200204A
:102340002C0100202E01002030010020320100204D
:1023500000B587B001212020FFF7BAFE0121080552
:10236000FFF7E6FE4020059001208DF818000020C0
:102370008DF81A0003208DF8190001208DF81B003C
:1023800005A92748FFF775FA4FF460700590022001
:102390008DF8180000208DF81A0003208DF8190020
:1023A00001208DF81B0005A91D48FFF762FA0522E0
:1023B00007211B48FFF7A5FA052209211848FFF756
:1023C000A0FA052208211648FFF79BFA012108050B
:1023D000FFF7AEFE0020ADF800004FF48270ADF8BC
:1023E00002000020ADF804000220ADF80600012034
:1023F000ADF808004002ADF80A003820ADF80C0036
:102400000020ADF80E000A20ADF81000694605481E
:1024100000F040F80121034800F022F807B000BDA9
:10242000001402400050014010B5044600BF0221D4
:102430000A4800F021F80028F9D02146074800F0AA
:1024400027F800BF0121054800F016F80028F9D050
:10245000024800F01AF8C0B210BD00000050014060
:1024600021B1028842F04002028004E002884FF667
:10247000BF731A40028070470246002013890B4048
:102480000BB1012000E000207047014688897047A9
:102490008181704710B50022028802F441520B88F6
:1024A0004C8823438C882343CC8823430C892343C3
:1024B0004C8923438C892343CC8923431A430280CC
:1024C000838B4FF2FF74234083830B8A038210BDFA
:1024D0007047000010B52DED0A8BFB49B1F90010D3
:1024E000FA4AB2F90020881A03F052FCC82804DB2B
:1024F000F648B0F90000F4490880F349B1F9021038
:10250000F34AB2F90020881A03F042FCC82804DB21
:10251000EF48B0F90000EC4948807F20ED49087091
:10252000ED4800784870EC48008800128870EB484D
:102530000078C870E948008800120871E8480078FF
:102540004871E7480088000A8871DF480078C87140
:10255000DD480088000A0872DB4880784872DA4853
:102560004088000A8872D84890ED010ADD4880ED65
:10257000000A90ED000ADC4880ED000ADB49B1F961
:102580000010DB4A1268881A05F029F941EC1C0B8F
:102590009FEDD80B53EC102B05F074F941EC1B0B9D
:1025A0009FEDD60B53EC102B04F092FF41EC1A0B6D
:1025B0009FEDD40B53EC102B05F064F941EC190B93
:1025C0009FEDD20B53EC102B05F05CF941EC180B8E
:1025D00005F0D6F8BF49C872C449B1F90010C44A21
:1025E0001268881A05F0FBF841EC1C0B9FEDC10B3B
:1025F00053EC102B05F046F941EC1B0B9FEDBF0B84
:1026000053EC102B04F064FF41EC1A0B9FEDBD0B53
:1026100053EC102B05F036F941EC190B9FEDBB0B79
:1026200053EC102B05F02EF941EC180B05F0A8F82F
:10263000000AA8490873AC4800784873AA48407853
:102640008873A9488078C873A748C0780874B148CF
:1026500000784874AF480088000A8874AD488078D4
:10266000C874AC484088000A0875AA4800794875C3
:10267000A8488088000A8875A74890ED050ADFED14
:10268000A70A20EE200ABDEEC00A10EE100AC87597
:10269000A14890ED050ADFEDA10A20EE200ABDEE6B
:1026A000C00A10EE100A000A08769B4890ED060A50
:1026B000DFED9A0A20EE200ABDEEC00A10EE100AE5
:1026C0004876954890ED060ADFED940A20EE200A40
:1026D000BDEEC00A10EE100A000A88768E4890ED12
:1026E000070ADFED8E0A20EE200ABDEEC00A10EECA
:1026F000100AC876884890ED070ADFED880A20EEB8
:10270000200ABDEEC00A10EE100A000A08778448BD
:1027100090ED000ADFED810A20EE200ABDEEC00A2E
:1027200010EE100A48777E4890ED000ADFED7B0A34
:1027300020EE200ABDEEC00A10EE100A000A8877CB
:10274000784890ED000ADFED750A20EE200ABDEE14
:10275000C00A10EE100AC877724890ED000ADFED4B
:102760006F0A20EE200ABDEEC00A10EE100A000A21
:1027700081F820006C48007881F821006B480078CF
:1027800081F822006A4890ED000ADFED6A0A20EE27
:10279000200ABDEEC00A10EE100A81F8230064483A
:1027A00090ED000ADFED630A20EE200ABDEEC00ABC
:1027B00010EE100A000A81F824005F48007881F8C2
:1027C00025005D480088001281F826005B49B1F9B8
:1027D00000105B4A1268881A05F001F841EC1C0BE6
:1027E0009FED440B53EC102B05F04CF841EC1B0B08
:1027F0009FED420B53EC102B04F06AFE41EC1A0BD8
:102800009FED400B53EC102B05F03CF841EC190BFD
:102810009FED3E0B53EC102B05F034F841EC180BF8
:1028200004F0AEFF2B4981F827004449B1F90010AC
:10283000434A1268881A04F0D2FF41EC1C0B9FED4A
:102840002D0B53EC102B05F01DF841EC1B0B9FEDED
:102850002B0B53EC102B04F03BFE41EC1A0B9FEDBD
:10286000290B53EC102B05F00DF841EC190B9FEDE3
:10287000270B53EC102B05F005F841EC180B04F076
:102880007FFF000A134981F828007E2081F8290083
:1028900000240CE00F48015D2A4800F0BFFE00BF95
:1028A0004021284800F0F4FD0128F9D1641C2A2CAD
:1028B000F0DB054800880549088003484088044942
:1028C0000880BDEC0A8B10BD3804002000000020F9
:1028D00002000020FC040020220000202400002030
:1028E000DC010020040000200800002084010020FA
:1028F00070010020000000000000F03F0000000018
:102900000000C04000000000008076400000000091
:1029100000005940E00300200004002000401C4655
:10292000CC000020D0000020BB0000202A020020A4
:102930001000002000007A447C0000207C01002070
:10294000680100200044004000B585B040F2064018
:10295000009000208DF809008DF8080008208DF8FF
:102960000A0000208DF80B0001218DF80C100221C7
:102970008DF80D1003218DF80E1004218DF80F1025
:1029800005218DF8101006218DF8111007218DF802
:10299000121069460248FEF792FC05B000BD000027
:1029A00000680040F0B585B004460D4616461F4647
:1029B00040F2FF10009000208DF809008DF808000B
:1029C00008208DF80A00200A8DF80B00E1B28DF87E
:1029D0000C10290A8DF80D10E9B28DF80E10310A8D
:1029E0008DF80F10F1B28DF81010390A8DF8111012
:1029F000F9B28DF8121069460248FEF760FC05B086
:102A0000F0BD000000640040F0B585B004460D46FE
:102A100016461F464FF40070009000208DF8090004
:102A20008DF8080008208DF80A00200A8DF80B00A8
:102A3000E1B28DF80C10290A8DF80D10E9B28DF86D
:102A40000E10310A8DF80F10F1B28DF81010390AFE
:102A50008DF81110F9B28DF8121069460248FEF790
:102A60002EFC05B0F0BD0000006400400CB5002055
:102A7000019000904148006840F480303F49086070
:102A800000BF3E48006800F4003000900198401CF0
:102A90000190009818B90198B0F5A04FF1D13748CE
:102AA000006800F4003010B10120009001E0002027
:102AB00000900098012860D130484030006840F014
:102AC00080502E49403108602D48006840F4404055
:102AD0002B490860294808300068284908310860F7
:102AE0000846006840F4004008600846006840F46A
:102AF000A05008602348091F0860081F006840F0C4
:102B00008070091F086000BF1C48006800F000705A
:102B10000028F9D01A48006840F48030184908604D
:102B200000BF1748406800F480300028F9D01448EE
:102B3000006840F400301249086000BF1048406847
:102B400000F400300028F9D040F205700E4908600A
:102B50000A480830006820F003000849083108607E
:102B60000846006840F00200086000BF03480830D3
:102B7000006800F00C000828F8D10CBD00380240B5
:102B8000007000400C544007003C02401CB501217D
:102B90000802FFF79DFA4FF40070009000208DF8B6
:102BA000040003208DF8050001208DF80700694618
:102BB0000148FEF75EFE1CBD002002407047000089
:102BC00010B51548006840F47000134908601348B8
:102BD000006840F001001149086000200F490831E9
:102BE00008600E4800680E4908400C4908600D480E
:102BF000091D0860081F006820F48020091F086074
:102C0000002006490C310860FFF730FF4FF00060EC
:102C100001498039086010BD88ED00E000380240AD
:102C2000FFFFF6FE1030002410B50121880700F0E8
:102C30003CF928B10121880700F028F902F0C8FF0B
:102C400010BD000010B501215F4800F02EF90028EA
:102C50007ED001215C4800F019F95C480068012829
:102C600026D15B4890ED000AF7EE000A30EE200A0C
:102C700080ED000A90ED000ADFED560AB4EEE00A9E
:102C8000F1EE10FA3DDB0220504908609FED510A39
:102C90004F4880ED000A504890ED010A80ED020A8D
:102CA00000884E4988804C4841884C48C18028E0C3
:102CB0004648006828BB464890ED000AF7EE000A37
:102CC00030EE200A80ED000A90ED000ADFED440AA4
:102CD000B4EEE00AF1EE10FA13DB02203B49086083
:102CE0009FED3F0A3A4880ED000A3B4890ED010A0B
:102CF00080ED020A00883949888037484188374882
:102D0000C18038480088002830DD37480088401CE2
:102D10003549088008460088B0F5FA7F26DB002098
:102D2000088032480088401C3049088008460088E6
:102D30000B2804DB0020088001202D4908802C4846
:102D4000008878B92B490988264A1288881A00E039
:102D500039E003F01DF8012804DA00202349088037
:102D6000204908801F4800882249088022480068BE
:102D7000401C214908600846006864281FDB0020C9
:102D800008601E4909681E4A1268881A03F000F894
:102D9000012810DC00BFBFF34F8F1A48006800F411
:102DA000E06019490843001D16490860BFF34F8FC2
:102DB00000BF00BFFEE7124800681049086003F03A
:102DC000A3F802F0EDFF10BD000400405000002009
:102DD0005400002000C8AF4738040020B00900208C
:102DE00000007A441E000020780000207A000020B5
:102DF0007C00002020000020940000209C00002087
:102E0000980000200CED00E00000FA0510B501214B
:102E10000D4800F04AF8B0B101210B4800F036F837
:102E20000A48006801280ED109480068401C08497A
:102E3000086008460068B0F5967F04DB0120086052
:102E400000200249086010BD000800406802002010
:102E50008C00002010B50121054800F026F828B1AB
:102E60000121034800F012F803F052FF10BD0000EA
:102E7000000C004021B1028842F08002028004E090
:102E800002884FF67F731A4002807047CA4302825D
:102E9000704721B1028842F00102028004E00288FA
:102EA0004FF6FE731A400280704730B5024600208C
:102EB00000230024158A05EA0103958905EA010427
:102EC00013B10CB1012000E0002030BD1AB183899C
:102ED0000B43838102E083898B4383817047000029
:102EE00070B5002400220023058C4FF6FE76354095
:102EF0000584028C8388048B4FF68F752C40B51E99
:102F00002C400D882C43751E2A408D892A434D88FC
:102F10002A43104DA84202D00F4DA84213D14FF6BC
:102F2000F7752A40CD892A434FF6FB752A408D88D4
:102F30002A434FF6FF652B404FF6FF552B400D8A75
:102F40002B434D8A2B43838004838D684563028421
:102F500070BD000000000140000401400A4600214D
:102F6000018B4FF6F773194011430183704700003E
:102F700000220288184B98420ED0184B98420BD072
:102F8000B0F1804F08D0164B984205D0154B9842AF
:102F900002D0154B984204D14FF68F731A404B88DC
:102FA0001A43124B984207D0114B984204D04FF667
:102FB000FF431A400B891A4302804B68C3620B8897
:102FC0000385054B984202D0044B984201D18B7A7D
:102FD0000386012383827047000001400004014002
:102FE0000004004000080040000C004000100040B9
:102FF000001400401FB501210220FFF779F81D20C1
:103000008DF8000000208DF8010001208DF80200ED
:103010008DF803006846FEF79FFD5920ADF80400C7
:103020004FF47A7002900020ADF80C00ADF8060065
:1030300001A90A48FFF79CFF01210848FFF71AFF82
:10304000012211460548FFF741FF01210348FFF720
:1030500020FF01210148FFF719FF1FBD00040040B8
:103060001FB501210820FFF743F832208DF800003A
:1030700001208DF8010003208DF8020001208DF859
:1030800003006846FEF768FD6320ADF804004FF4C6
:103090007A7002900020ADF80C00ADF8060001A98E
:1030A0000A48FFF765FF01210848FFF7E3FE012208
:1030B00011460648FFF70AFF01210448FFF7E9FE21
:1030C00001210248FFF7E2FE1FBD0000000C004096
:1030D00010B532480068401C304908600846006856
:1030E000B0F5FA7F01DB0120086040F224412C4852
:1030F00000F0DBF900284FD0294800882848808854
:103100002848FEF764FB18BB00212648FEF78CFA1E
:103110002448FEF758FB24490968081A2349086027
:103120002148008880B21F49091D0860081F0068F7
:1031300040F40020091F086001211A48FEF774FAC4
:103140001A480068122827D11948FFF785F823E0AC
:1031500000211448FEF768FA1248FEF734FB1249C2
:103160000968081A114908600F48008880B20D49A3
:10317000091D0860081F006820F40020091F08606E
:1031800001210848FEF750FA08480068122803D1C8
:1031900007481E30FFF760F810BD000098000020BF
:1031A000001001404064024090000020C400002054
:1031B0005004002010B52DED048B40F224415248FC
:1031C00000F073F900287DD04F4800884E48001D5C
:1031D000008800214D48FEF727FA4D494B48FEF77D
:1031E00009FA002006E04B49095C7F2901D1C4B2ED
:1031F00002E0401C1028F6DB00BF464904F10F0036
:10320000085C7E2875D1601C085C40B24249087099
:103210004049A01C085C40B23F4948703D49E01C51
:10322000095C3C4A201D105C41EA002000B23A498A
:1032300048801146601D095CA01D105C41EA002019
:1032400000B2354988801146E01D095C401C105CC5
:1032500041EA002000B23049C880114604F109005B
:10326000095C401C105C41EA002000B22A49088138
:10327000114604F10B00095C401C105C41EA00207F
:1032800000B225494881114604F10D00095C401C3B
:10329000105C41EA002000B21F498881084600788E
:1032A000032809D10846B0F9060000EE100AB8EE6E
:1032B000C00A1A4880ED000A17480089184908809A
:1032C000154800E01DE04089164908801249B1F90F
:1032D0000C0004F084FA41EC190B9FED130B53EC36
:1032E000102B04F0F5F841EC180B04F00BF8104922
:1032F000086020210548FEF7A1FA01210348FEF7E6
:1033000093F9BDEC048B10BD00440040886002407E
:10331000000800208C040020A8020020EC010020FE
:10332000B4010020B6010020000000000000594058
:10333000B801002010B540F224410C4800F0B5F867
:1033400090B10A4800880948001D008800210848FB
:10335000FEF76AF902F09AFEC8210548FEF76EFAF8
:1033600001210348FEF760F910BD00000014014080
:103370002864024021B1828942F40052828104E033
:1033800082894DF6FF731A40828170471AB1838A91
:103390000B43838202E0838A8B4383827047000061
:1033A00010B504463248844208D101211020FEF7AE
:1033B000CFFE00211020FEF7CBFE57E02D488442BF
:1033C00009D101214804FEF7A3FE00214FF400308B
:1033D000FEF79EFE4AE02848844209D10121880474
:1033E000FEF796FE00214FF48020FEF791FE3DE0AF
:1033F0002248844209D10121C804FEF789FE002138
:103400004FF40020FEF784FE30E01D48844209D1CD
:1034100001210805FEF77CFE00214FF48010FEF725
:1034200077FE23E01748844208D101212020FEF7CF
:103430008FFE00212020FEF78BFE17E01248844209
:1034400009D101218807FEF763FE00214FF080407B
:10345000FEF75EFE0AE00D48844207D101214005D7
:10346000FEF756FE00216005FEF752FE10BD00007B
:10347000001001400044004000480040004C004063
:10348000005000400014014000780040007C0040E3
:1034900002460020B1F5007F00D100BF13880B4029
:1034A0000BB1012000E00020704770B502460024F7
:1034B00000230025002040F66A16B14200D100BF6B
:1034C000C1F3421501F01F03012606FA03F3012D93
:1034D00002D19689334006E0022D02D1168A33408C
:1034E00001E0968A33400C12012606FA04F416888D
:1034F000344013B10CB1012000E0002070BDF0B5E4
:103500000346002400260025002040F66A17B94231
:1035100000D100BF1846C1F3421401F01F06012775
:1035200007FA06F5012C01D10C3004E0022C01D180
:10353000103000E014301AB107682F43076002E032
:103540000768AF430760F0BD2DE9FF4705460E460B
:103550000024A14600BFA046B08900B100BF2C8A5C
:1035600024F44054F08804432C82AC8941F20C606E
:103570008443B08831890843718908430443AC818E
:10358000AC8A24F44074B0890443AC826846FEF7E8
:10359000EFFD2048854202D01F48854202D1DDF868
:1035A0000C9001E0DDF80890A88900F4004040B1DB
:1035B00009EBC90000EB091031684900B0FBF1F7D5
:1035C00007E009EBC90000EB091031688900B0FB86
:1035D000F1F76420B7FBF0F004012009642101FB3E
:1035E0001078A88900F4004040B1322000EBC800F8
:1035F000B0FBF1F000F00700044308E0322000EBDC
:1036000008106421B0FBF1F000F00F0004432C819E
:10361000BDE8FF870010014000140140C1F308021B
:10362000828070474FF41651016000218180C18073
:1036300001810C21418100218181704700BFFEE79B
:103640002DE9F0412DED048B8A49B1F902104800B3
:1036500004F0C5F841EC190B9FED870B53EC102BD0
:1036600003F036FF41EC180B04F08AF800B28449ED
:1036700008808049B1F904104942480004F0AFF8CD
:1036800041EC190B9FED7C0B53EC102B03F020FF4A
:1036900041EC180B04F074F800B27A4908807548C0
:1036A000B0F90600404200EE100AB8EEC00A7648B3
:1036B00080ED000A7248B0F900004042B1F90010F4
:1036C000084400EE100AB8EEC00A6F48D0ED000AB8
:1036D00030EE200ABDEEC00A10EE100A00B26B49AF
:1036E00008806748B0F900006649B1F90010084445
:1036F00000EE100AB8EEC00A6348D0ED000A30EEC2
:10370000200ABDEEC00A10EE100A00B2604908801F
:103710005B48B0F900005B49B1F90010401A00EEB7
:10372000100AB8EEC00A5848D0ED000A30EE200A60
:10373000BDEEC00A10EE100A00B25649088050488B
:10374000B0F9000040424F49B1F90010401A00EEB4
:10375000100AB8EEC00A4C48D0ED000A30EE200A3C
:10376000BDEEC00A10EE100A00B24B4908800846B0
:10377000B0F9000004F033F841EC180B4749B1F9F7
:10378000020004F02CF841EC190BB0EE481AF0EEF0
:10379000681AB0EE490AF0EE690A4148FEF718FAD5
:1037A000BDEEC00A10EE100A04B23A48B0F90000AB
:1037B00004F015F841EC180B3A49B1F9020004F095
:1037C0000EF841EC190BB0EE481AF0EE681AB0EEA4
:1037D000490AF0EE690A3448FEF7FAF9BDEEC00A6C
:1037E00010EE100A05B22A48B0F9000003F0F7FF06
:1037F00041EC180B2D49B1F9020003F0F0FF41EC48
:10380000190BB0EE481AF0EE681AB0EE490AF0EE65
:10381000690A2748FEF7DCF9BDEEC00A10EE100A6F
:1038200006B21A48B0F9000003F0D9FF41EC180BBA
:103830002049B1F9020003F0D2FF41EC190BB0EEC0
:10384000481AF0EE681AB0EE490AF0EE690A1A4812
:10385000FEF7BEF9BDEEC00A10EE100A07B223460D
:103860002A4631463846FFF7CFF8BDEC048BBDE859
:10387000F0810000A80200208DD13AAA9AA0F63F5C
:10388000E8010020EA0100205C0200202C01002059
:103890002E0100203001002032010020EC00002029
:1038A00028060020E4000020D0050020DC000020D5
:1038B00078050020D4000020200500202DE9F041EB
:1038C0002DED048B8E49B1F90210480003F087FFFB
:1038D00041EC190B9FED8B0B53EC102B03F0F8FD13
:1038E00041EC180B03F04CFF00B288490880844972
:1038F000B1F904104942480003F071FF41EC190B83
:103900009FED800B53EC102B03F0E2FD41EC180B04
:1039100003F036FF00B27E4908807E48D0ED010AF0
:103920007748B0F9060000EE100AB8EEC00A30EE93
:10393000C00A7948D0ED000A20EE200A774880EDD1
:10394000000A7248B0F900004042B1F90010084482
:1039500000EE100AB8EEC00A7048D0ED000A30EE52
:10396000200ABDEEC00A10EE100A00B26C490880B1
:103970006648B0F900006649B1F90010084400EE4D
:10398000100AB8EEC00A6548D0ED000A30EE200AF1
:10399000BDEEC00A10EE100A00B2624908805B4812
:1039A000B0F900005A49B1F90010401A00EE100AAF
:1039B000B8EEC00A5948D0ED000A30EE200ABDEE3C
:1039C000C00A10EE100A00B2574908804F48B0F9FB
:1039D000000040424E49B1F90010401A00EE100AB2
:1039E000B8EEC00A4D48D0ED000A30EE200ABDEE18
:1039F000C00A10EE100A00B24C4908800846B0F91F
:103A0000000003F0ECFE41EC180B4949B1F902004B
:103A100003F0E5FE41EC190BB0EE481AF0EE681A1F
:103A2000B0EE490AF0EE690A4248FEF7D1F8BDEE61
:103A3000C00A10EE100A04B23B48B0F9000003F0CF
:103A4000CEFE41EC180B3C49B1F9020003F0C7FE71
:103A500041EC190BB0EE481AF0EE681AB0EE490AC4
:103A6000F0EE690A3548FEF7B3F8BDEEC00A10EE75
:103A7000100A05B22B48B0F9000003F0B0FE41EC8B
:103A8000180B2F49B1F9020003F0A9FE41EC190B04
:103A9000B0EE481AF0EE681AB0EE490AF0EE690A84
:103AA0002848FEF795F8BDEEC00A10EE100A06B2DF
:103AB0001B48B0F9000003F092FE41EC180B2249BC
:103AC000B1F9020003F08BFE41EC190BB0EE481A7D
:103AD000F0EE681AB0EE490AF0EE690A1B48FEF7EC
:103AE00077F8BDEEC00A10EE100A07B223462A4648
:103AF00031463846FEF788FFBDEC048BBDE8F08107
:103B0000A80200208DD13AAA9AA0F63FE801002031
:103B1000EA01002038040020600200205C0200203E
:103B20002C0100202E010020300100203201002055
:103B3000EC00002028060020E4000020D005002032
:103B4000DC00002078050020D400002020050020A3
:103B50002DE9F0412DED048B8E48006828B96420D2
:103B60008D49088000208D4908808A48006840B946
:103B70008B48006828B98B480068012801D1854925
:103B8000086084480068012807D16FF00900824965
:103B900008806FF06300814908807E480068012832
:103BA00009D17F480068012805D17E48006810B916
:103BB0000220784908607748006802280AD100206E
:103BC00075490880754908800120774908800020E0
:103BD000764908607048B0F9000040426F49B1F979
:103BE0000010084400EE100AB8EEC00A7048D0ED8C
:103BF000000A30EE200ABDEEC00A10EE100A00B234
:103C00006C4908806448B0F900006449B1F90010BB
:103C1000084400EE100AB8EEC00A6548D0ED000A6C
:103C200030EE200ABDEEC00A10EE100A00B2624962
:103C300008805948B0F900005849B1F90010401AFD
:103C400000EE100AB8EEC00A5948D0ED000A30EE76
:103C5000200ABDEEC00A10EE100A00B257490880D3
:103C60004D48B0F9000040424C49B1F90010401AEB
:103C700000EE100AB8EEC00A4D48D0ED000A30EE52
:103C8000200ABDEEC00A10EE100A00B24C490880AE
:103C90000846B0F9000003F0A2FD41EC180B4949B9
:103CA000B1F9020003F09BFD41EC190BB0EE481A8C
:103CB000F0EE681AB0EE490AF0EE690A4248FDF7E4
:103CC00087FFBDEEC00A10EE100A04B23B48B0F9FF
:103CD000000003F084FD41EC180B3C49B1F90200EF
:103CE00003F07DFD41EC190BB0EE481AF0EE681AB6
:103CF000B0EE490AF0EE690A3548FDF769FFBDEEFE
:103D0000C00A10EE100A05B22B48B0F9000003F00B
:103D100066FD41EC180B2F49B1F9020003F05FFD7D
:103D200041EC190BB0EE481AF0EE681AB0EE490AF1
:103D3000F0EE690A2848FDF74BFFBDEEC00A10EE11
:103D4000100A06B21B48B0F9000003F048FD41EC30
:103D5000180B2249B1F9020003F041FD41EC190BA7
:103D6000B0EE481AF0EE681AB0EE490AF0EE690AB1
:103D70001B48FDF72DFFBDEEC00A10EE100A07B27A
:103D800023462A4631463846FEF73EFEBDEC048BFC
:103D9000BDE8F08188020020E8010020EA0100204F
:103DA00080020020840200207C0000208C02002081
:103DB0005C0200202C0100202E0100203001002098
:103DC00032010020EC00002028060020E400002042
:103DD000D0050020DC00002078050020D400002061
:103DE000200500202DE9F0412DED048B8548006869
:103DF000A0B99FED850A854880ED000A84480068D7
:103E000041F6B051081A022202FB10108149B1F9A3
:103E10000010884202DB01207A4908607948006876
:103E200001280ED19FED7C0A784880ED000A794880
:103E3000B0F9000041F6B051884202DB0020714920
:103E400008607648B0F9000040427549B1F90010A9
:103E5000084400EE100AB8EEC00A6C48D0ED000A23
:103E600030EE200ABDEEC00A10EE100A00B26D4915
:103E700008806A48B0F900006949B1F900100844A7
:103E800000EE100AB8EEC00A6048D0ED000A30EE2D
:103E9000200ABDEEC00A10EE100A00B26249088086
:103EA0005E48B0F900005E49B1F90010401A00EE1A
:103EB000100AB8EEC00A5548D0ED000A30EE200ACC
:103EC000BDEEC00A10EE100A00B2584908805348EF
:103ED000B0F9000040425249B1F90010401A00EE1A
:103EE000100AB8EEC00A4948D0ED000A30EE200AA8
:103EF000BDEEC00A10EE100A00B24D490880084617
:103F0000B0F9000003F06BFC41EC180B4949B1F922
:103F1000020003F064FC41EC190BB0EE481AF0EE1D
:103F2000681AB0EE490AF0EE690A4348FDF750FE00
:103F3000BDEEC00A10EE100A04B23C48B0F9000011
:103F400003F04DFC41EC180B3C49B1F9020003F0C1
:103F500046FC41EC190BB0EE481AF0EE681AB0EED0
:103F6000490AF0EE690A3648FDF732FEBDEEC00A96
:103F700010EE100A05B22C48B0F9000003F02FFC37
:103F800041EC180B2F49B1F9020003F028FC41EC79
:103F9000190BB0EE481AF0EE681AB0EE490AF0EECE
:103FA000690A2948FDF714FEBDEEC00A10EE100A9A
:103FB00006B21C48B0F9000003F011FC41EC180BEC
:103FC0002249B1F9020003F00AFC41EC190BB0EEF2
:103FD000481AF0EE681AB0EE490AF0EE690A1C4879
:103FE000FDF7F6FDBDEEC00A10EE100A07B223463B
:103FF0002A4631463846FEF707FDBDEC048BBDE886
:10400000F081000064020020000048C25C02002031
:10401000680100205402002000004842E80100200E
:10402000EA0100202C0100202E0100203001002098
:1040300032010020EC00002028060020E4000020CF
:10404000D0050020DC00002078050020D4000020EE
:104050002005002070B52DED048B2848B0F9000034
:1040600003F0BDFB41EC180B2549B1F9020003F048
:10407000B6FB41EC190BB0EE481AF0EE681AB0EE40
:10408000490AF0EE690A1F48FDF7A2FDBDEEC00A1D
:1040900010EE100A04B21C48006803F011FE41EC57
:1040A000180B9FED1A1BB0EE480AF0EE680A19488B
:1040B000FDF78EFDBDEEC00A10EE100A05B21648DF
:1040C000006803F0FDFD41EC180B9FED101BB0EEF6
:1040D000480AF0EE680A1148FDF77AFDB1EE400A91
:1040E000BDEEC00A10EE100A06B200232246294691
:1040F0003046FEF757FCBDEC048B70BD9C010020E0
:104100009401002040090020380100200000000038
:1041100000000000D80600203401002080060020A6
:1041200070B52DED048B8F48006860B98E48B0F9EA
:10413000000000EE100AB8EEC00A8C4880ED000ABC
:104140000120884908608A480078C8B98748006813
:1041500003F0B6FD41EC190B9FED860B53EC102BD1
:1041600003F002F941EC180B03F0CCF87F4908602A
:10417000824890ED000AB8EEC00A814880ED000A3E
:104180007B48007801281CD17848006803F098FD2E
:1041900041EC190B9FED770B53EC102B03F0A6FCB1
:1041A00041EC180B03F0AEF87049086073480068E2
:1041B000A0F5967000EE100AB8EEC00A704880EDC7
:1041C000000A6A4890ED000ADFED6E0AB4EEE00ADC
:1041D000F1EE10FA06DB9FED6B0A80ED000A01207C
:1041E000634908706848006841F6FE71081A0222A7
:1041F00002FB101000EE100AB8EEC00A5B48D0EDCA
:10420000000AB4EEE00AF1EE10FA0EDB5E48006838
:10421000081A02FB101000EE100AB8EEC00A53484C
:1042200080ED000A0020524908705048006803F0F1
:1042300047FD41EC180B4C48B0F9000003F0CFFAF1
:1042400041EC190BB0EE481AF0EE681AB0EE490ACC
:10425000F0EE690A4D48FDF7BBFC4D4880ED000AC1
:104260004748006803F02CFD41EC180B4949B1F9AF
:10427000000003F0B4FA41EC190BB0EE481AF0EE6E
:10428000681AB0EE490AF0EE690A4348FDF7A0FC4F
:10429000424880ED000A4248B0F9000003F09FFA5E
:1042A00041EC180B3F49B1F9020003F098FA41ECD8
:1042B000190BB0EE481AF0EE681AB0EE490AF0EEAB
:1042C000690A3948FDF784FCBDEEC00A10EE100AF9
:1042D00005B2324890ED000AB1EE400A10EE100A25
:1042E00003F0EEFC41EC180B3048006803F0E8FCEA
:1042F00041EC190BB0EE481AF0EE681AB0EE490A1C
:10430000F0EE690A2A48FDF763FCBDEEC00A10EE24
:10431000100A04B21E48006803F0D2FC41EC180BEE
:104320002448006803F0CCFC41EC190BB0EE481AAD
:10433000F0EE681AB0EE490AF0EE690A1E48FDF781
:1043400047FCB1EE400ABDEEC00A10EE100A06B2FC
:1043500000232A4621463046FEF724FBBDEC048BA1
:1043600070BD0000580200205402002034020020DA
:104370008C010020666666666666F63F6C0100206A
:104380004002002000F0FF456801002030070020B7
:104390003C0100208401002088070020400100200B
:1043A0009C010020940100204009002038010020D9
:1043B000D8060020340100208006002070B52DEDC5
:1043C000088B0120F9490860F948008870B9F9485C
:1043D000008830B1F748B0F9000047F6F87188421C
:1043E00004D19FEDF50BF64880ED0C0BF548B0F9C4
:1043F0000000F5490860EE48B0F90000404203F0C3
:10440000EEF941EC1B0B9FEDF10B53EC102B03F07D
:104410005FF841EC1A0B9FEDEF0B53EC102B03F000
:1044200057F841EC190B9FEDED0B53EC102B03F0FB
:1044300029FA41EC180B02F065FFEA490860EA48E6
:10444000B0F90000E9490860DA48B0F900004042DC
:1044500003F0C5F941EC1B0B9FEDDC0B53EC102B6B
:1044600003F036F841EC1A0B9FEDDA0B53EC102BEE
:1044700003F02EF841EC190B9FEDD80B53EC102BE9
:1044800003F000FA41EC180B02F03CFFD849086039
:10449000D448D0ED000ACC4890ED000AB8EEC00A2E
:1044A00030EE800AD34880ED000A0846D0ED000ABD
:1044B000CE4890ED000AB8EEC00A30EE800ACE4831
:1044C00080ED000ACB4890ED000ADFEDCC0AB4EE97
:1044D000E00AF1EE10FA03DB9FEDC80A80ED000A56
:1044E000C748006841F6FE71081A022202FB10104C
:1044F00000EE100AB8EEC00ABE48D0ED000AB4EED5
:10450000E00AF1EE10FA0BDBBD480068081A02FB66
:10451000101000EE100AB8EEC00AB64880ED000A8E
:10452000B848006803F0CCFB41EC180B9FEDB60BCC
:1045300053EC102B03F06AF90BD2B5480068A0F5D4
:10454000C87000EE100AB8EEC00AAB4880ED000A51
:1045500007E0AF4890ED000AB8EEC00AA64880ED2B
:10456000000AA448006803F0ABFB41EC180B954827
:10457000B0F9000003F033F941EC190BB0EE481A22
:10458000F0EE681AB0EE490AF0EE690A8C48FDF7C1
:104590001FFBA04880ED000A9748006803F090FBDD
:1045A00041EC180B9049B1F9000003F018F941EC07
:1045B000190BB0EE481AF0EE681AB0EE490AF0EEA8
:1045C000690A9548FDF704FB944880ED000A794894
:1045D000B0F9000047F6F87188427CD1864800683F
:1045E00003F06EFB41EC180B7F49B1F9000003F0BA
:1045F000F6F841EC190BB0EE481AF0EE681AB0EE7E
:10460000490AF0EE690A8648FDF7E2FA834880ED30
:10461000000A8448B0F9000003F0E1F841EC180BFF
:104620008149B1F9020003F0DAF841EC190BB0EE60
:10463000481AF0EE681AB0EE490AF0EE690A7B48B3
:10464000FDF7C6FABDEEC00A10EE100A04B27348B8
:1046500090ED000AB1EE400A10EE100A03F030FBB4
:1046600041EC180B7248006803F02AFB41EC190B6F
:10467000B0EE481AF0EE681AB0EE490AF0EE690A98
:104680006C48FDF7A5FABDEEC00A10EE100A05B29F
:104690006048006803F014FB41EC180B66480068A2
:1046A00003F00EFB41EC190BB0EE481AF0EE681A5D
:1046B000B0EE490AF0EE690A6048FDF789FAB1EEFA
:1046C000400ABDEEC00A10EE100A06B200232246D0
:1046D0002946304600E002E0FEF764F962E0514806
:1046E000B0F9000003F07BF841EC180B4E49B1F92A
:1046F000020003F074F841EC190BB0EE481AF0EE2A
:10470000681AB0EE490AF0EE690A4848FDF760FA07
:10471000BDEEC00A10EE100A06B2404890ED000A45
:10472000B1EE400A10EE100A03F0CAFA41EC180B81
:104730003F48006803F0C4FA41EC190BB0EE481A88
:10474000F0EE681AB0EE490AF0EE690A3C48FDF74F
:104750003FFABDEEC00A10EE100A04B22D48006800
:1047600003F0AEFA41EC180B3348006803F0A8FAE6
:1047700041EC190BB0EE481AF0EE681AB0EE490A97
:10478000F0EE690A2D48FDF723FAB1EE400ABDEEBE
:10479000C00A10EE100A05B2002332462146284610
:1047A000FEF700F9BDEC088B70BD0000440200204C
:1047B000B4010020B601002000000000000000004D
:1047C000E0070020540200207401002000000000D7
:1047D000000059400000000000807640000000000A
:1047E0000000C0406001002084010020780100200A
:1047F00064010020340200204002002000F0FF4548
:1048000068010020B8010020666666666666E63FBD
:104810006C0100203C010020E8080020400100203D
:10482000880700209C0100209401002040090020FE
:1048300038010020D8060020340100209008002014
:104840003808002070B52DED088BAD48B0F9000098
:10485000AC490860AC48B0F90000AC490860AC480D
:10486000B0F90000404202F0BAFF41EC1B0B9FED93
:10487000A90B53EC102B02F02BFE41EC1A0B9FED11
:10488000A70B53EC102B02F023FE41EC190B9FED0C
:10489000A50B53EC102B02F0F5FF41EC180B02F0C6
:1048A00031FDA2490860A248B0F90000404202F080
:1048B00096FF41EC1B0B9FED970B53EC102B02F076
:1048C00007FE41EC1A0B9FED950B53EC102B02F0F9
:1048D000FFFD41EC190B9FED930B53EC102B02F0F5
:1048E000D1FF41EC180B02F00DFD92490860884998
:1048F000B1F90000002801DB014600E041420A292D
:1049000013DD8D49096801290FD18848D0ED000ACF
:104910007C4890ED000AB8EEC00A30EE800A874865
:1049200080ED000A002084490860844890ED000A68
:10493000DFED830AB4EEE00AF1EE10FA03DB9FED3F
:10494000800A80ED000A7F48006841F6FE71081A6F
:10495000022202FB101000EE100AB8EEC00A7748DF
:10496000D0ED000AB4EEE00AF1EE10FA0BDB754868
:104970000068081A02FB101000EE100AB8EEC00A18
:104980006E4880ED000A7048006803F099F941EC28
:10499000180B9FED6E0B53EC102B02F037FF0BD270
:1049A0006C480068A0F5C87000EE100AB8EEC00AA6
:1049B000694880ED000A07E0664890ED000AB8EE0D
:1049C000C00A654880ED000A5C48006803F078F989
:1049D00041EC180B4A48B0F9000002F000FF41EC2E
:1049E000190BB0EE481AF0EE681AB0EE490AF0EE74
:1049F000690A5A48FDF7ECF8594880ED000A564814
:104A0000006803F05DF941EC180B3F49B1F9000073
:104A100002F0E5FE41EC190BB0EE481AF0EE681A10
:104A2000B0EE490AF0EE690A4E48FDF7D1F84E485B
:104A300080ED000A4D48B0F9000002F0D0FE41ECD4
:104A4000180B4B49B1F9020002F0C9FE41EC190BF9
:104A5000B0EE481AF0EE681AB0EE490AF0EE690AB4
:104A60004448FDF7B5F8BDEEC00A10EE100A04B2D6
:104A70003D4890ED000AB1EE400A10EE100A03F036
:104A80001FF941EC190B3C48006803F019F941EC9F
:104A9000180BB0EE491AF0EE691AB0EE480AF0EEC3
:104AA000680A3648FDF794F8BDEEC00A10EE100A09
:104AB00006B22B48006803F003F941EC180B3048AC
:104AC000006803F0FDF841EC190BB0EE481AF0EE67
:104AD000681AB0EE490AF0EE690A2A48FDF778F83C
:104AE000B1EE400ABDEEC00A10EE100A05B2002376
:104AF000224631462846FDF755FFBDEC088B70BDB8
:104B0000540200207401002084010020780100205C
:104B1000B401002000000000000059400000000027
:104B200000807640000000000000C04060010020CE
:104B3000B60100206401002044020020340200205D
:104B400000F0FF4568010020B80100206666666637
:104B50006666E63F6C01002040020020E00700206E
:104B60003C010020E8080020400100209C010020BA
:104B7000940100204009002038010020380800205E
:104B800034010020900800207047000070B52DED22
:104B9000088BA748008870B9A648008830B1A5489E
:104BA000B0F9000047F6F871884204D19FEDA20BDE
:104BB000A34880ED0C0BA348B0F90000A24908609F
:104BC000A248B0F90000A24908609948B0F9000075
:104BD000404202F004FE41EC1B0B9FED9E0B53EC98
:104BE000102B02F075FC41EC1A0B9FED9C0B53EC63
:104BF000102B02F06DFC41EC190B9FED9A0B53EC5E
:104C0000102B02F03FFE41EC180B02F07BFB9749A2
:104C100008608848B0F90000404202F0E0FD41EC35
:104C20001B0B9FED8C0B53EC102B02F051FC41EC55
:104C30001A0B9FED8A0B53EC102B02F049FC41EC50
:104C4000190B9FED880B53EC102B02F01BFE41EC6F
:104C5000180B02F057FB864908607648B0F900004F
:104C600047F6F871884213D08248006801280FD1B6
:104C70007E48D0ED000A744890ED000AB8EEC00AF4
:104C800030EE800A7C4880ED000A002079490860F7
:104C9000794890ED000ADFED790AB4EEE00AF1EE12
:104CA00010FA03DB9FED750A80ED000A7448006876
:104CB00041F6FE71081A022202FB101000EE100AE3
:104CC000B8EEC00A6C48D0ED000AB4EEE00AF1EE8E
:104CD00010FA0BDB6A480068081A02FB101000EE9D
:104CE000100AB8EEC00A644880ED000A6148006806
:104CF00000287DD16048006802F0E2FF41EC180B0B
:104D00005048B0F9000002F06AFD41EC190BB0EE1A
:104D1000481AF0EE681AB0EE490AF0EE690A4848FF
:104D2000FCF756FF574880ED000A5748006802F02C
:104D300056FD41EC180B4549B1F9000002F04FFD5A
:104D400041EC190BB0EE481AF0EE681AB0EE490AC1
:104D5000F0EE690A4D48FCF73BFF4D4880ED000A34
:104D60004C48B0F9000002F03AFD41EC180B4A49FA
:104D7000B1F9020002F033FD41EC190BB0EE481A14
:104D8000F0EE681AB0EE490AF0EE690A4348FCF703
:104D90001FFFBDEEC00A10EE100A05B23C4890EDB0
:104DA000000AB1EE400A10EE100A02F089FF41EC51
:104DB000180B3B48006802F083FF41EC190BB0EE82
:104DC000481AF0EE681AB0EE490AF0EE690A354862
:104DD000FCF7FEFEBDEEC00A10EE100A06B229482E
:104DE000006802F06DFF41EC180B2F48006800E0EE
:104DF0001BE002F065FF41EC190BB0EE481AF0EE33
:104E0000681AB0EE490AF0EE690A2848FCF7E0FE9D
:104E1000B1EE400ABDEEC00A10EE100A04B2002343
:104E20002A4631462046FDF7BDFDBDEC088B70BD1E
:104E3000B4010020B60100200000000000000000C6
:104E4000E0070020540200207401002084010020AB
:104E50007801002000000000000059400000000020
:104E600000807640000000000000C040600100208B
:104E700064010020440200203402002000F0FF45BD
:104E8000680100203C0100206C010020E80800209F
:104E9000400100209C0100209401002040090020D6
:104EA000380100203808002034010020900800203C
:104EB00070B52DED088B0120EC49086040F62820E4
:104EC000EB4908800120EB490860EB48008870B985
:104ED000EA48008830B1E948B0F9000047F6F871B7
:104EE000884204D19FEDE60BE74880ED0C0BE748C4
:104EF000B0F90000E6490860E648B0F90000E6496C
:104F00000860DD48B0F90000404202F068FC41EC66
:104F10001B0B9FEDE20B53EC102B02F0D9FA41EC86
:104F20001A0B9FEDE00B53EC102B02F0D1FA41EC81
:104F3000190B9FEDDE0B53EC102B02F0A3FC41ECA0
:104F4000180B02F0DFF9DB490860CC48B0F900002B
:104F5000404202F044FC41EC1B0B9FEDD00B53ECA4
:104F6000102B02F0B5FA41EC1A0B9FEDCE0B53EC6F
:104F7000102B02F0ADFA41EC190B9FEDCC0B53EC6A
:104F8000102B02F07FFC41EC180B02F0BBF9CA4970
:104F90000860C848D0ED000ABD4890ED000AB8EEA0
:104FA000C00A30EE800AC54880ED000A0846D0ED00
:104FB000000AB94890ED000AB8EEC00A30EE800A47
:104FC000BF4880ED000ABD4890ED000ADFEDBD0A44
:104FD000B4EEE00AF1EE10FA03DB9FEDBA0A80EDC1
:104FE000000AB948006841F6FE71081A022202FB65
:104FF000101000EE100AB8EEC00AB048D0ED000A5A
:10500000B4EEE00AF1EE10FA0BDBAF480068081AC4
:1050100002FB101000EE100AB8EEC00AA74880ED9F
:10502000000AA648006802F04BFE41EC180B9748B6
:10503000B0F9000002F0D3FB41EC190BB0EE481AB6
:10504000F0EE681AB0EE490AF0EE690A8E48FCF7F5
:10505000BFFD9E4880ED000A9948006802F030FECE
:1050600041EC180B8B49B1F9000002F0B8FB41ECA0
:10507000190BB0EE481AF0EE681AB0EE490AF0EEDD
:10508000690A9348FCF7A4FD924880ED000A7B482A
:10509000B0F9000047F6F87188427CD18E4800686C
:1050A00002F09DFB41EC180B7A49B1F9000002F0C7
:1050B00096FB41EC190BB0EE481AF0EE681AB0EE10
:1050C000490AF0EE690A8548FCF782FD814880EDC7
:1050D000000A6748B0F9000002F081FB41EC180BB0
:1050E0007F49B1F9020002F07AFB41EC190BB0EEF6
:1050F000481AF0EE681AB0EE490AF0EE690A7948EB
:10510000FCF766FDBDEEC00A10EE100A04B271484D
:1051100090ED000AB1EE400A10EE100A02F0D0FD48
:1051200041EC180B7048006802F0CAFD41EC190B05
:10513000B0EE481AF0EE681AB0EE490AF0EE690ACD
:105140006A48FCF745FDBDEEC00A10EE100A06B233
:105150005E48006802F0B4FD41EC180B644800683A
:1051600002F0AEFD41EC190BB0EE481AF0EE681AF1
:10517000B0EE490AF0EE690A5E48FCF729FDB1EE8F
:10518000400ABDEEC00A10EE100A05B20023224606
:105190003146284600E002E0FDF704FC62E03448B6
:1051A000B0F9000002F01BFB41EC180B4C49B1F9BF
:1051B000020002F014FB41EC190BB0EE481AF0EEBD
:1051C000681AB0EE490AF0EE690A4648FCF700FD9D
:1051D000BDEEC00A10EE100A06B23E4890ED000A7D
:1051E000B1EE400A10EE100A02F06AFD41EC190B14
:1051F0003D48006802F064FD41EC180BB0EE491A1E
:10520000F0EE691AB0EE480AF0EE680A3A48FCF788
:10521000DFFCBDEEC00A10EE100A04B22B48006895
:1052200002F04EFD41EC180B3148006802F048FDD9
:1052300041EC190BB0EE481AF0EE681AB0EE490ACC
:10524000F0EE690A2B48FCF7C3FCB1EE400ABDEE54
:10525000C00A10EE100A05B2002332462146284645
:10526000FDF7A0FBBDEC088B70BD0000A402002080
:105270009C01002044020020B4010020B60100205F
:105280000000000000000000E007002054020020A1
:10529000740100208401002078010020000000003B
:1052A000000059400000000000807640000000002F
:1052B0000000C04060010020640100203402002092
:1052C0004002002000F0FF45680100203C01002062
:1052D000E8080020400100206C0100208807002021
:1052E000940100204009002038010020D806002049
:1052F00034010020900800203808002070B52DED02
:10530000088B0120EC49086040F62820EB49088012
:105310000120EB490860EB48008870B9EA48008832
:1053200030B1E948B0F9000047F6F871884204D17D
:105330009FEDE60BE74880ED0C0BE748B0F9000065
:10534000E6490860E648B0F90000E6490860DD4833
:10535000B0F90000404202F042FA41EC1B0B9FED15
:10536000E20B53EC102B02F0B3F841EC1A0B9FED5B
:10537000E00B53EC102B02F0ABF841EC190B9FED56
:10538000DE0B53EC102B02F07DFA41EC180B01F010
:10539000B9FFDB490860CC48B0F90000404202F098
:1053A0001EFA41EC1B0B9FEDD00B53EC102B02F0BF
:1053B0008FF841EC1A0B9FEDCE0B53EC102B02F043
:1053C00087F841EC190B9FEDCC0B53EC102B02F03E
:1053D00059FA41EC180B01F095FFCA490860C8481A
:1053E000D0ED000ABD4890ED000AB8EEC00A30EEDC
:1053F000800AC54880ED000A0846D0ED000AB94889
:1054000090ED000AB8EEC00A30EE800ABF4880ED89
:10541000000ABD4890ED000ADFEDBD0AB4EEE00AD7
:10542000F1EE10FA03DB9FEDBA0A80ED000AB948ED
:10543000006841F6FE71081A022202FB101000EE0D
:10544000100AB8EEC00AB048D0ED000AB4EEE00A87
:10545000F1EE10FA0BDBAF480068081A02FB1010DF
:1054600000EE100AB8EEC00AA74880ED000AA64870
:10547000006802F025FC41EC180B9748B0F90000D9
:1054800002F0ADF941EC190BB0EE481AF0EE681AD3
:10549000B0EE490AF0EE690A8E48FCF799FB9E4887
:1054A00080ED000A9948006802F00AFC41EC180BF4
:1054B0008B49B1F9000002F092F941EC190BB0EE02
:1054C000481AF0EE681AB0EE490AF0EE690A9348FD
:1054D000FCF77EFB924880ED000A7B48B0F90000A3
:1054E00047F6F87188427CD18E48006802F077F95F
:1054F00041EC180B7A49B1F9000002F070F941EC67
:10550000190BB0EE481AF0EE681AB0EE490AF0EE48
:10551000690A8548FCF75CFB814880ED000A674812
:10552000B0F9000002F05BF941EC180B7F49B1F9CA
:10553000020002F054F941EC190BB0EE481AF0EEFB
:10554000681AB0EE490AF0EE690A7948FCF740FBA8
:10555000BDEEC00A10EE100A04B2714890ED000AC8
:10556000B1EE400A10EE100A02F0AAFB41EC180B53
:105570007048006802F0A4FB41EC190BB0EE481A29
:10558000F0EE681AB0EE490AF0EE690A6A48FCF7D4
:105590001FFBBDEEC00A10EE100A06B25E4800689E
:1055A00002F08EFB41EC180B6448006802F088FBA7
:1055B00041EC190BB0EE481AF0EE681AB0EE490A49
:1055C000F0EE690A5E48FCF703FBB1EE400ABDEE5F
:1055D000C00A10EE100A05B20023224631462846C2
:1055E00000E002E0FDF7DEF962E03448B0F90000C7
:1055F00002F0F5F841EC180B4C49B1F9020002F049
:10560000EEF841EC190BB0EE481AF0EE681AB0EE65
:10561000490AF0EE690A4648FCF7DAFABDEEC00A1C
:1056200010EE100A06B23E4890ED000AB1EE400AB4
:1056300010EE100A02F044FB41EC190B3D480068E3
:1056400002F03EFB41EC180BB0EE491AF0EE691A7D
:10565000B0EE480AF0EE680A3A48FCF7B9FABDEE37
:10566000C00A10EE100A04B22B48006802F028FBB2
:1056700041EC180B3148006802F022FB41EC190B99
:10568000B0EE481AF0EE681AB0EE490AF0EE690A78
:105690002B48FCF79DFAB1EE400ABDEEC00A10EEB1
:1056A000100A05B20023324621462846FDF77AF952
:1056B000BDEC088B70BD0000A40200209C010020FE
:1056C00044020020B4010020B601002000000000C8
:1056D00000000000E00700205402002074010020B8
:1056E00084010020780100200000000000005940E3
:1056F0000000000000807640000000000000C04074
:1057000060010020640100203402002040020020DB
:1057100000F0FF45680100203C010020E80800205F
:10572000400100206C010020880700209401002027
:105730004009002038010020D80600203401002054
:10574000900800203808002070B52DED088B01204E
:10575000EC49086040F62820EB4908800120EB491D
:105760000860EB48008870B9EA48008830B1E94821
:10577000B0F9000047F6F871884204D19FEDE60BBE
:10578000E74880ED0C0BE748B0F90000E6490860F7
:10579000E648B0F90000E6490860DD48B0F90000CD
:1057A000404202F01CF841EC1B0B9FEDE20B53EC66
:1057B000102B01F08DFE41EC1A0B9FEDE00B53EC2A
:1057C000102B01F085FE41EC190B9FEDDE0B53EC25
:1057D000102B02F057F841EC180B01F093FDDB4958
:1057E0000860CC48B0F90000404201F0F8FF41ECFD
:1057F0001B0B9FEDD00B53EC102B01F069FE41EC1D
:105800001A0B9FEDCE0B53EC102B01F061FE41EC17
:10581000190B9FEDCC0B53EC102B02F033F841EC3D
:10582000180B01F06FFDCA490860C848D0ED000AA6
:10583000BD4890ED000AB8EEC00A30EE800AC548B7
:1058400080ED000A0846D0ED000AB94890ED000A44
:10585000B8EEC00A30EE800ABF4880ED000ABD48AD
:1058600090ED000ADFEDBD0AB4EEE00AF1EE10FAA9
:1058700003DB9FEDBA0A80ED000AB948006841F6E3
:10588000FE71081A022202FB101000EE100AB8EE98
:10589000C00AB048D0ED000AB4EEE00AF1EE10FA0A
:1058A0000BDBAF480068081A02FB101000EE100A6C
:1058B000B8EEC00AA74880ED000AA648006802F0CA
:1058C000FFF941EC180B9748B0F9000001F087FF91
:1058D00041EC190BB0EE481AF0EE681AB0EE490A26
:1058E000F0EE690A8E48FCF773F99E4880ED000AD5
:1058F0009948006802F0E4F941EC180B8B49B1F9C2
:10590000000001F06CFF41EC190BB0EE481AF0EE0C
:10591000681AB0EE490AF0EE690A9348FCF758F9A4
:10592000924880ED000A7B48B0F9000047F6F87114
:1059300088427CD18E48006801F051FF41EC180B81
:105940007A49B1F9000001F04AFF41EC190BB0EEC1
:10595000481AF0EE681AB0EE490AF0EE690A854876
:10596000FCF736F9814880ED000A6748B0F900007D
:1059700001F035FF41EC180B7F49B1F9020001F04D
:105980002EFF41EC190BB0EE481AF0EE681AB0EE9B
:10599000490AF0EE690A7948FCF71AF9BDEEC00A27
:1059A00010EE100A04B2714890ED000AB1EE400A00
:1059B00010EE100A02F084F941EC180B70480068F0
:1059C00002F07EF941EC190BB0EE481AF0EE681ABD
:1059D000B0EE490AF0EE690A6A48FCF7F9F8BDEE44
:1059E000C00A10EE100A06B25E48006802F068F9BC
:1059F00041EC180B6448006802F062F941EC190BA5
:105A0000B0EE481AF0EE681AB0EE490AF0EE690AF4
:105A10005E48FCF7DDF8B1EE400ABDEEC00A10EEBC
:105A2000100A05B2002322463146284600E002E073
:105A3000FCF7B8FF62E03448B0F9000001F0CFFE97
:105A400041EC180B4C49B1F9020001F0C8FE41ECE1
:105A5000190BB0EE481AF0EE681AB0EE490AF0EEF3
:105A6000690A4648FCF7B4F8BDEEC00A10EE100A09
:105A700006B23E4890ED000AB1EE400A10EE100A60
:105A800002F01EF941EC190B3D48006802F018F9CC
:105A900041EC180BB0EE491AF0EE691AB0EE480A64
:105AA000F0EE680A3A48FCF793F8BDEEC00A10EE33
:105AB000100A04B22B48006802F002F941EC180BFE
:105AC0003148006802F0FCF841EC190BB0EE481ABE
:105AD000F0EE681AB0EE490AF0EE690A2B48FCF7BE
