:020000040800F2
:10000000B00C002069020008BD1500087315000837
:10001000B91500086F030008E92700080000000078
:10002000000000000000000000000000091F0008A0
:100030007314000800000000EF1A00089120000867
:10004000830200088302000883020008830200087C
:10005000830200088302000883020008830200086C
:10006000830200088302000883020008830200085C
:10007000830200088302000883020008830200084C
:10008000830200088302000883020008830200083C
:100090007503000883020008830200088302000839
:1000A000830200088302000883020008830200081C
:1000B000FD2000081D2100088302000883020008BB
:1000C00083020008830200088302000883020008FC
:1000D0008302000829230008E123000883020008A6
:1000E00083020008830200088302000883020008DC
:1000F00083020008830200088302000883020008CC
:1001000083020008830200088302000883020008BB
:1001100083020008830200088302000883020008AB
:10012000830200088302000883020008830200089B
:10013000830200088302000883020008830200088B
:10014000010A0008830200088302000883020008F5
:10015000830200088302000883020008830200086B
:10016000830200088302000883020008830200085B
:10017000830200088302000883020008830200084B
:10018000830200088302000800F002F800F05CF827
:100190000AA090E8000C82448344AAF10107DA45E2
:1001A00001D100F051F8AFF2090EBAE80F0013F0D8
:1001B000010F18BFFB1A43F0010318470441000068
:1001C000244100000A444FF0000C10F8013B13F0EA
:1001D000070408BF10F8014B1D1108BF10F8015BA0
:1001E000641E05D010F8016B641E01F8016BF9D193
:1001F00013F0080F1EBF10F8014BAD1C0C1B09D1EA
:100200006D1E58BF01F801CBFAD505E014F8016B5B
:1002100001F8016B6D1EF9D59142D6D370470000ED
:100220000023002400250026103A28BF78C1FBD8FF
:10023000520728BF30C148BF0B6070471FB504F09C
:100240002CF81FBD10B510BD00F058F81146FFF78F
:10025000F5FF02F05BFD00F076F803B4FFF7F2FF64
:1002600003BC00F07DF800000948804709480047BA
:10027000FEE7FEE7FEE7FEE7FEE7FEE7FEE7FEE756
:10028000FEE7FEE704480549054A064B70470000B3
:100290009520000889010008B0060020B00C00205D
:1002A000B0080020B00800204FF0000200B513464F
:1002B00094469646203922BFA0E80C50A0E80C5086
:1002C000B1F12001BFF4F7AF090728BFA0E80C5037
:1002D00048BF0CC05DF804EB890028BF40F8042B30
:1002E00008BF704748BF20F8022B11F0804F18BF9D
:1002F00000F8012B7047704770477047754600F053
:100300002BF8AE4605006946534620F007008546A7
:1003100018B020B5FFF7B6FFBDE820404FF000064B
:100320004FF000074FF000084FF0000B21F00701DD
:10033000AC46ACE8C009ACE8C009ACE8C009ACE820
:10034000C0098D46704710B50446AFF300802046C3
:10035000BDE81040FFF781BF0048704750060020FD
:1003600001491820ABBEFEE726000200704700BF1F
:10037000FEE70000F0B585B00221FE4800F08CFCDD
:1003800000287DD00221FB4800F0AEFBFA49F94875
:1003900000F08EFB6A460021F64800F0A0FDF74809
:1003A0000068B0F57A7F04DAF4480068401CF3492D
:1003B0000860F2480068B0F57A7F03DB4FF47A708A
:1003C000EE4908600098A0F2012007287ED2DFE8FD
:1003D00000F004AAFDFCFBFAF900E8480068B0F55B
:1003E0007A7F0DDA9DF80C009DF80B1040EA012091
:1003F00000B2E349088008460088E24908805FE0CF
:10040000DF480088E04908809DF80C009DF80B103B
:1004100040EA012000B2DA4908800846B0F900003D
:10042000D949B1F90010401AB0F5805F10DDD74806
:100430000088401E00B2D5490880D1480088D249C2
:100440000988401AA0F5005000B2CD49C88024E0C8
:10045000CB48B0F90000CC49B1F90010401A10F5B2
:10046000805F12DAC9480088401C00B2C749088082
:10047000C3480088C4490988401A00F5005000E0CC
:10048000A2E200B2BE49C88007E0BD480088BE496C
:100490000988401A00B2BA49C880B948B0F90010BA
:1004A000BA48B0F9000001EB4030B649B1F900108C
:1004B000401A00EE100AB8EEC00AB54880ED000AF6
:1004C0000024AF48B0F90610B24800E049E20268E3
:1004D0000068401CAF4B1860AF4840F82210184627
:1004E0000068052802DB002019460860002005E0AE
:1004F000A94951F820100C44411CC8B20528F7DB6B
:10050000052094FBF0F000EE100AB8EEC00ADFED13
:10051000A30A20EE200ABDEEC00A10EE100A00B2B7
:10052000974948804FE295480068B0F57A7F0DDA28
:100530009DF80C009DF80B1040EA012000B298498C
:100540000880084600889749088063E0944800883E
:10055000954908809DF80C009DF80B1040EA012099
:1005600000B28F4908800846B0F900008E49B1F901
:100570000010401AB0F5805F10DD8C480088401EE6
:1005800000B28A4908808648008887490988401A4D
:10059000A0F5005000B28249C88028E08048B0F938
:1005A00000008149B1F90010401A10F5805F16DA99
:1005B0007E480088401C00B27C490880784800884A
:1005C000794904E0E4E1D8E1CCE129E153E009888C
:1005D000401A00F5005000B27149C88007E0704829
:1005E000008871490988401A00B26D49C8806C487A
:1005F000B0F900106D48B0F9000001EB40306949D6
:10060000B1F90010401A00EE100AB8EEC00A6848AE
:1006100080ED000A00256248B0F9061065480268BE
:100620000068401C634B1860634840F8221018466D
:100630000068052802DB002019460860002005E05C
:100640005D4951F820100D44411CC8B20528F7DB64
:10065000052095FBF0F000EE100AB8EEC00ADFEDC1
:100660004F0A20EE200ABDEEC00A10EE100A00B2BA
:100670004B494880A7E141480068B0F57A7F0DDA20
:100680009DF80C009DF80B1040EA012000B24B4988
:100690000880084600884A4908805DE0474800888D
:1006A000484908809DF80C009DF80B1040EA012095
:1006B00000B2424908800846B0F900004149B1F94A
:1006C0000010401AB0F5805F10DD3F480088401EE2
:1006D00000B23D490880394800883A490988401AE3
:1006E000A0F5005000B23549C88022E03348B0F987
:1006F00000003449B1F90010401A10F5805F10DA9B
:1007000031480088401C00B22F4908802B480088DF
:100710002C490988401A00F5005000B22749C880CA
:1007200007E02648008827490988401A00B2234973
:10073000C8802248B0F900102348B0F9000001EB4E
:1007400040301F49B1F90010401A00EE100AB8EE0F
:10075000C00A1E4880ED000A00261848B0F90610AD
:100760001B4802680068401C194B1860194840F883
:10077000221031E000640040030000121800002045
:1007800030000020500000205800002060000020B1
:10079000680000201C0000201C020020355EEA409A
:1007A00038000020520000205A0000206200002083
:1007B0006C000020200000203002002040000020BB
:1007C000540000205C000020640000207000002025
:1007D000240000204402002018460068052802DB9F
:1007E000002019460860002005E0784951F82010E3
:1007F0000E44411CC8B20528F7DB052096FBF0F03B
:1008000000EE100AB8EEC00A5FED1C0A20EE200AC6
:10081000BDEEC00A10EE100A00B26D494880D2E069
:100820006C480068B0F57A7F0DDA9DF80C009DF8F1
:100830000B1040EA012000B2674908800846008892
:10084000664908805DE064480088654908809DF835
:100850000C009DF80B1040EA012000B25E490880B0
:100860000846B0F900005E49B1F90010401AB0F531
:10087000805F10DD5B480088401E00B25949088047
:100880005548008856490988401AA0F5005000B222
:100890005149C88022E05048B0F900005049B1F9F0
:1008A0000010401A10F5805F10DA4E480088401C96
:1008B00000B24C4908804848008849490988401AD4
:1008C00000F5005000B24449C88007E04248008863
:1008D00043490988401A00B23F49C8803E48B0F9F0
:1008E00000104048B0F9000001EB40303B49B1F93D
:1008F0000010401A00EE100AB8EEC00A3A4880ED27
:10090000000A00273448B0F9061038480268006829
:10091000401C364B1860364840F8221018460068D4
:10092000052802DB002019460860002005E0304958
:1009300051F820100F44411CC8B20528F7DB0520F0
:1009400097FBF0F000EE100AB8EEC00A5FED6D0AFA
:1009500020EE200ABDEEC00A10EE100A00B21E49B9
:10096000488030E01B480068B0F57A7F04DB0DF169
:100970000B01204800F07EFD25E016480068B0F528
:100980007A7F04DB0DF10B011B4800F073FD1AE0C8
:1009900010480068B0F57A7F14DB0DF10B011748A1
:1009A00000F068FD0DF10D011448801C00F062FD9F
:1009B0000DF10F011148001D00F05CFD9DF81100C4
:1009C0000E49C88000BF00BF05B0F0BD4402002042
:1009D00040000020180000204800002056000020A1
:1009E0005E00002066000020740000202800002027
:1009F00058020020C0000020C8000020D0000020C5
:100A000000B585B00221254800F046F960B1022109
:100A1000224800F069F82249204800F049F86A4667
:100A200000211E4800F05BFA0098A0F2014090BB44
:100A30009DF80B0001069DF80C0041EA00419DF86D
:100A40000D0041EA00209DF80E10084300EE100A48
:100A5000B8EEC00ADFED130A20EE200A124880ED3E
:100A6000000A9DF80F0001069DF8100041EA0041C0
:100A70009DF8110041EA00209DF81210084300EE95
:100A8000100AB8EEC00ADFED070A20EE200A074878
:100A900080ED000A00BF00BF05B000BD0068004047
:100AA000030000126F12833AAC000020B000002057
:100AB00000220C4B994202D10023836111E0C1F363
:100AC000130201F000730BB1C2600AE001F0806311
:100AD0000BB1026105E001F000630BB1826000E040
:100AE000426070477000F030B1F5007F3AD00FDC03
:100AF000202928D006DC01291CD004291DD0082972
:100B000040D11DE0402921D0B1F5807F3AD126E0C7
:100B1000B1F5004F31D006DCB1F5806F25D0B1F5CD
:100B2000006F2FD124E0B1F5803F12D0B1F5003F26
:100B300028D111E0154A826025E00822C26022E037
:100B40001022C2601FE0082202611CE01022026134
:100B500019E00822426016E01022426013E00422ED
:100B6000426010E0042242600DE0042242600AE08C
:100B7000002282610422426005E000228261042298
:100B8000426000E000BF00BF7047000001010100AB
:100B900010B50021837A012202FA03F13D4A12685E
:100BA00042F001023B4B1A603A4A1C3212688A43F7
:100BB000384B1C331A60027BCAB9364A0C321268B1
:100BC0008A43344B0C331A604288C38842EA034399
:100BD000304A4032847A42F834300288838842EACC
:100BE00003432C4A4032847A02EBC4025360027BF6
:100BF000012A19D1274A0C3212680A43254B0C33BB
:100C00001A604288038842EA0343224A4032847AC7
:100C100042F83430C288838842EA03431D4A403296
:100C2000847A02EBC4025360C27A3AB9194A121D9F
:100C300012688A43174B1B1D1A6006E0154A121DE5
:100C400012680A43134B1B1D1A60028932B9114AFC
:100C5000143212688A430F4B14331A600289012A36
:100C600006D10C4A143212680A430A4B14331A6034
:100C7000427B012A06D1074A1C3212680A43054BFF
:100C80001C331A60034A126822F00102014B1A60F9
:100C900010BD00000066004070B504460D460026F9
:100CA00060692840002871D0B5F5807F5CD010DCE9
:100CB000082D35D006DC012D20D0022D24D0042DA6
:100CC00072D127E0102D31D0202D35D0402D6BD1A1
:100CD00038E0B5F5004F60D009DCB5F5007F49D0AC
:100CE000B5F5806F4CD0B5F5006F5DD14FE0B5F52F
:100CF000803F2DD0B5F5003F56D12FE0A0682D499B
:100D000000F076FA064651E0E068032100F070FA40
:100D100006464BE0E068082100F06AFA064645E026
:100D2000E068102100F064FA06463FE020690321E4
:100D300000F05EFA064639E02069082100F058FA12
:100D4000064633E02069102100F052FA06462DE0F5
:100D50006068082100F04CFA064627E06068102120
:100D600000F046FA064621E0A069012100F040FAB1
:100D700006461BE0A069022100F03AFA064615E09B
:100D8000A069042100F034FA06460FE00FE0A069E4
:100D9000702100F02DFA064608E06068042100F09A
:100DA00027FA064602E0FFE7002600BF00E0002623
:100DB000304670BD010101001AB143690B43436124
:100DC00002E043698B434361704730B5024600201F
:100DD0000023146824F002041460146844F0010431
:100DE000146000E05B1C546804F001041CB94FF669
:100DF000FF74A342F6D1546804F001040CB900203A
:100E00006CE08C79012C04D1146844F080041460E7
:100E100003E0146824F080041460CC79012C04D120
:100E2000146844F04004146003E0146824F04004A3
:100E300014600C7A012C04D1146844F0200414606E
:100E400003E0146824F0200414604C7A012C04D1CF
:100E5000146844F01004146003E0146824F01004D3
:100E600014608C7A012C04D1146844F008041460D6
:100E700003E0146824F008041460CC7A012C04D137
:100E8000146844F00404146003E0146824F00404BB
:100E900014608C78A407CD7844EA05640D7944EA9F
:100EA00005444D7944EA05540D886D1E2C43D461E8
:100EB000146824F001041460002300E05B1C5468F3
:100EC00004F001041CB14FF6FF74A342F6D154683C
:100ED00004F001040CB1002000E0012030BD10B589
:100EE00000F5D87303EB01131B6803F004031372BE
:100EF000137A53B900F5D87303EB01131B6840F262
:100F0000FF7404EA5353136009E000F5D87303EB50
:100F100001131B686FF0604404EAD303536000F5CB
:100F2000D87303EB01131B6803F00203537200F53F
:100F3000D87303EB01135B6803F00F03937200F5A2
:100F4000D87303EB01135B681B0AD37400F5D873E5
:100F500003EB01139B68D37200F5D87303EB011305
:100F60009B681C0A147300F5D87303EB01139B688C
:100F70001C0C547300F5D87303EB01139B681B0E14
:100F8000937300F5D87303EB0113DB68D37300F59B
:100F9000D87303EB0113DB681C0A147400F5D873D3
:100FA00003EB0113DB681C0C547400F5D87303EBDE
:100FB0000113DB681B0E937421B9C36843F020034F
:100FC000C36003E0036943F02003036110BD10B563
:100FD00002460020936803F08063B3F1806F00D174
:100FE00010E0936803F00063B3F1006F01D10120BA
:100FF00008E0936803F08053B3F1805F01D10220D1
:1010000000E00420042874D002F5C07303EB001341
:101010001B6803F0010402F5C07303EB00131C60AE
:101020000B7A7BB94B7A0C8843EA445302F5C074BF
:1010300004EB00142468234302F5C07404EB00148D
:10104000236010E00B7A4C6843EAC4034C7A2343D4
:1010500002F5C07404EB00142468234302F5C07445
:1010600004EB001423608B7A03F00F038B7202F5FC
:10107000C07303EB00135B6823F00F0402F5C07329
:1010800003EB00135C6002F5C07303EB00135B68B5
:101090008C7A234302F5C07404EB001463608B7BED
:1010A0001C064B7B44EA03440B7B44EA0323CC7AC3
:1010B000234302F5C07404EB0014A3608B7C1C0670
:1010C0004B7C44EA03440B7C44EA0323CC7B23435C
:1010D00002F5C07404EB0014E36002F5C07303EB87
:1010E00000131B6843F0010402F5C07303EB001307
:1010F0001C6010BD00B58BB00121480600F008FD52
:101100000121082000F0F4FC0320069002208DF855
:101110001C0000208DF81E0003208DF81D0001200A
:101120008DF81F0006A9304800F0ABF90922002114
:101130002D4800F0EEF9092201212B4800F0E9F9D1
:1011400000208DF826008DF827008DF8280001205A
:101150008DF8290000208DF82A0001208DF82B0041
:1011600000208DF822008DF8230008208DF824003F
:1011700003208DF82500ADF8200008A91B48FFF7D3
:1011800024FE00208DF812008DF8130001208DF848
:1011900014000020ADF80800ADF80A00ADF80C000E
:1011A000ADF80E00ADF8100001208DF8150002A872
:1011B000FFF7EEFC14208DF8040000208DF80500E8
:1011C0008DF8060001208DF8070001A800F0F8F95D
:1011D000012202210548FFF7EFFD012211460348D5
:1011E000FFF7EAFD0BB000BD000C024000640040B8
:1011F0000246002002EA01030BB1012000E00020BA
:10120000704700000246094B9A4201D2084801E0AB
:101210000648103801F000531BB1064B0B40C36069
:1012200002E0044B0B4083607047000010640240F2
:10123000006002407D0F7D0F21B1026842F0010283
:10124000026003E0026822F00102026070470000C1
:10125000016821F0010101600021016041608160AD
:10126000C1600161212141614A49884204D13D2187
:10127000484A103A91608CE046491831884205D1BD
:101280004FF47461434A103A916082E04149303131
:10129000884205D14FF474113E4A103A916078E0CB
:1012A0003C494831884205D14FF07461394A103ABF
:1012B00091606EE037496031884204D13649354A41
:1012C000103AD16065E033497831884204D133491E
:1012D000304A103AD1605CE02E499031884204D106
:1012E0002F492C4A103AD16053E02A49A83188424C
:1012F00005D14FF03D51274A103AD16049E02949C4
:10130000884204D13D21274A083A116041E025492D
:101310001831884205D14FF47461224A083A1160AD
:1013200037E020493031884205D14FF474111D4A0D
:10133000083A11602DE01B494831884205D14FF031
:101340007461184A083A116023E0164960318842F6
:1013500004D11149134A121F11601AE01149783162
:10136000884204D10D490F4A121F116011E00D4946
:101370009031884204D10A490A4A121F116008E0DC
:101380000849A831884204D14FF03D51054A121F47
:1013900011607047106002403D000020400F0020A7
:1013A00000003D201064024021B1026842F4802216
:1013B000026003E0026822F480220260704722B1DA
:1013C000036843F40023036003E0036823F400236D
:1013D0000360016170470146486880B2704701466A
:1013E00000200A6802F400220AB1012000E0002077
:1013F0007047000010B500220268134B1A40CC68F9
:101400000B6823434C6923438C692343CC692343F2
:101410000C6A23434C6A23438C6A23434C6B23435B
:101420008C6B23431A430260426922F00702D1E920
:101430000B3423431A4342610B6943604B6883605A
:101440008B68C36010BD00003F801CF04160704796
:101450000021016041608160C16001614161816181
:10146000C161016241628162C16201634163816362
:10147000704770474A780B7842EA032212B2028022
:101480007047F0B50A4600210023002400BF3DE06C
:10149000012505FA01F3156805EA03049C4234D1DD
:1014A00005684F000326BE40B543056015794E0020
:1014B000B5400668354305601579012D02D01579D0
:1014C000022D16D185684F000326BE40B5438560C6
:1014D00055794E00B54086683543856045680126DC
:1014E0008E40B5434560456896798E40B6B2354327
:1014F0004560C5684F000326BE40B543C560D57939
:101500004E00B540C6683543C560491C1029BFD39D
:10151000F0BDF0B5002300244D07ED0E02FA05F3EF
:10152000CE1000F1200555F826504E07F70E0F2675
:10153000BE40B543CF1000F1200646F82750CE102C
:1015400000F1200555F8265045EA0304CE1000F1BD
:10155000200545F82640F0BD418370470183704760
:101560004FF6FF7101600021017141718171C171FC
:10157000704700BFFEE7000070B505460C461646F2
:1015800040210C48FFF7E8FF45F08005284600F0B1
:1015900067FC04E0FF2000F063FC2070641C301E38
:1015A000A6F101018EB2F5D140210248FFF7D6FF26
:1015B00070BD00000014024000BFFEE7704700004D
:1015C00070B5002100230F22C4781CB3174C246887
:1015D00004F4E064C4F5E064C4F30721C1F1040439
:1015E000E3B20A4144789C40E1B28478144021433C
:1015F0000C07210E0E4C05786155047804F01F0588
:101600000124AC4005786D11AD0005F1E025C5F869
:10161000004109E0047804F01F050124AC40054DA9
:101620000678761145F8264070BD00000CED00E00C
:1016300000E400E080E100E010B52DED0E8B0446E3
:10164000B0EE408AF0EE608AB0EE419AF0EE619A18
:101650009FED8D0BB0EE40CAF0EE60CA9FED8A0B95
:10166000B0EE40DAF0EE60DA9FED870BB0EE40EAC4
:10167000F0EE60EA53EC182B51EC190B02F0B2FCBF
:10168000C4E9060194ED002BB0EE420AF0EE620AC6
:1016900094ED062BB0EE421AF0EE621A53EC102BCA
:1016A00051EC110B02F06AFBC4E90A0194ED022B24
:1016B000B0EE420AF0EE620A94ED062BB0EE421A4A
:1016C000F0EE621A53EC102B51EC110B02F056FBAA
:1016D00041EC1A0B94ED0C1BB0EE410AF0EE610ADE
:1016E00053EC102B02F0BCF8C4E90C0194ED102B64
:1016F000B0EE420AF0EE620A94ED0C2BB0EE421A04
:10170000F0EE621A53EC102B51EC110B02F034FC8A
:1017100004D894ED100B84ED0C0B22E094ED101B1B
:10172000B0EE410AF0EE610A51EC100B02F05AF8EB
:1017300041EC1A0B94ED0C1BB0EE410AF0EE610A7D
:1017400053EC102B02F018FC0BD894ED101BB0EEEC
:10175000410AF0EE610A51EC100B02F043F8C4E9C3
:101760000C0194ED062BB0EE420AF0EE620A94ED05
:10177000082BB0EE421AF0EE621A53EC102B51EC2B
:10178000110B02F02FFC41EC1B0B02F02BF841EC8B
:101790001A0B94ED041BB0EE410AF0EE610A53EC13
:1017A000102B02F0EBFAC4E90E0194ED060B84ED68
:1017B000080B94ED0C2BB0EE420AF0EE620A94EDA9
:1017C0000A2BB0EE421AF0EE621A53EC102B51ECD9
:1017D000110B02F045F841EC1A0B94ED0E1BB0EE24
:1017E000410AF0EE610A53EC102B02F039F8C4E91B
:1017F000140194ED122BB0EE420AF0EE620A94ED61
:10180000142BB0EE421AF0EE621A53EC102B51EC8E
:10181000110B02F0B1FB04D894ED120B84ED140B04
:1018200022E094ED121BB0EE410AF0EE610A51EC99
:10183000100B01F0D7FF41EC1A0B94ED141BB0EE26
:10184000410AF0EE610A53EC102B02F095FB0BD825
:1018500094ED121BB0EE410AF0EE610A51EC100B50
:1018600001F0C0FFC4E9140194ED141BB0EE410A6D
:10187000F0EE610A51EC100B01F0C0FF00EE100A0F
:10188000BDEC0E8B10BD0000000000000000000049
:1018900010B5044658212046FEF706FD10BD000095
:1018A00010B55848FFF7F4FF9FED574B9FED583B9D
:1018B0009FED592B9FED5A1B9FED570B514800F0A0
:1018C0000BF95948FFF7E4FF9FED4F4B9FED503B5D
:1018D0009FED512B9FED521B9FED4F0B524800F097
:1018E000FBF85248FFF7D4FF9FED474B9FED483B75
:1018F0009FED492B9FED4A1B9FED470B4B4800F096
:10190000EBF84B48FFF7C4FF9FED3F4B9FED403B8B
:101910009FED412B9FED421B9FED3F0B444800F094
:10192000DBF84448FFF7B4FF9FED374B9FED423B98
:101930009FED432B9FED3A1B9FED430B3D4800F07D
:10194000CBF84348FFF7A4FF9FED424B9FED433B8D
:101950009FED442B9FED321B9FED440B3C4800F064
:10196000BBF84448FFF794FF9FED434B9FED443B8A
:101970009FED3C2B9FED2A1B9FED430B3D4800F054
:10198000ABF84348FFF784FF9FED1F4B9FED2A3BC9
:101990009FED2B2B9FED221B9FED2B0B3C4800F066
:1019A0009BF83C48FFF774FF9FED3B4B9FED3C3BA2
:1019B0009FED2C2B9FED1A1B9FED3B0B354800F044
:1019C0008BF83B48FFF764FF9FED3A4B9FED3B3BA5
:1019D0009FED242B9FED121B9FED2B0B344800F045
:1019E0007BF83848FFF754FF9FED074B9FED363BE0
:1019F0009FED092B9FED361B9FED290B314800F021
:101A00006BF810BD70020020000000000088C34089
:101A10000000000000407F40000000000000244063
:101A2000FCA9F1D24D62503FC802002020030020E3
:101A300078030020D003002000000000000059407F
:101A40000000000000C062400000000000408F4025
:101A50002804002000000000000004409A99999991
:101A60009999E93F0000000000000000000000001C
:101A70000000E03F80040020333333333333F33F3F
:101A8000B81E85EB51B8BE3FFA7E6ABC7493683FBE
:101A9000D8040020300500200000000000000840AD
:101AA000000000000000F03F7B14AE47E17A943F55
:101AB000880500209A9999999999F93FEC51B81E97
:101AC00085EBE13FE005002000000000007097403A
:101AD0007B14AE47E17A843F80ED000B80ED021B62
:101AE00080ED042B80ED103B80ED124B704770476A
:101AF00029B1064A12680243044B1A6004E0034A03
:101B000012688243014B1A6070470000303802406F
:101B100029B1064A12680243044B1A6004E0034AE2
:101B200012688243014B1A6070470000403802403F
:101B300029B1064A12680243044B1A6004E0034AC2
:101B400012688243014B1A6070470000203802403F
:101B500029B1064A12680243044B1A6004E0034AA2
:101B600012688243014B1A607047000044380240FB
:101B700029B1064A12680243044B1A6004E0034A82
:101B800012688243014B1A607047000024380240FB
:101B9000F0B5002100220024022500260223324F46
:101BA0003F6807F00C0121B1042905D0082937D17D
:101BB00005E02E4F076036E02D4F076033E02A4FD7
:101BC0003F1F3F68C7F38056274F3F1F3F6807F00E
:101BD0003F036EB1264FB7FBF3F7DFF88CC0ACF1D3
:101BE000040CDCF800C0CCF3881C07FB0CF40CE000
:101BF0001E4FB7FBF3F7DFF870C0ACF1040CDCF854
:101C000000C0CCF3881C07FB0CF4174F3F1F3F6844
:101C1000C7F301477F1C7D00B4FBF5F7076002E0C6
:101C2000124F076000BF00BF0F4F3F6807F0F00181
:101C30000909104F7A5C0768D74047600A4F3F6830
:101C400007F4E051890A0B4F7A5C4768D7408760F8
:101C5000054F3F6807F46041490B064F7A5C4768BF
:101C6000D740C760F0BD0000083802400024F400EF
:101C7000001BB700F800002010B5044604B910BDE1
:101C80002078617840EA0120C0F30A0035490880D5
:101C90006078C010A17840EA4110C0F30A003149D1
:101CA0004880A0788011E17840EA8100217940EAFB
:101CB0008120C0F30A002B49888020794010617987
:101CC00040EAC110C0F30A002649C88060790011BB
:101CD000800808816079C0F301104881A079E1791A
:101CE00040EA01201F498881207A617A40EA012177
:101CF0001C48C181A07AE17A40EA01211948018299
:101D0000217B4182617B8182A07BE17B40EA0120D3
:101D10001449887508464089012804D0022808D053
:101D200003281CD102E001F0C9FA18E000F060FDC0
:101D300015E000200C4908600C4908600C49088037
:101D40000C4908800C4908800C4908800C4890ED2B
:101D5000000AB1EE400A0B4880ED000A00BF00BF48
:101D600000BF8CE738060020080100200C0100208D
:101D7000880000208A0000208C0000208E000020B7
:101D8000AC000020B400002000B587B00121202065
:101D9000FFF7AEFE01210805FFF7DAFE40200590AF
:101DA00001208DF8180000208DF81A0003208DF80E
:101DB000190001208DF81B0005A92748FFF761FBDA
:101DC0004FF46070059002208DF8180000208DF807
:101DD0001A0003208DF8190001208DF81B0005A9B9
:101DE0001D48FFF74EFB052207211B48FFF791FB1B
:101DF000052209211848FFF78CFB05220821164807
:101E0000FFF787FB01210805FFF7A2FE0020ADF8D0
:101E100000004FF48270ADF802000020ADF804001D
:101E20000220ADF806000120ADF808004002ADF830
:101E30000A003820ADF80C000020ADF80E000A2092
:101E4000ADF810006946054800F040F8012103484C
:101E500000F022F807B000BD00140240005001401D
:101E600010B5044600BF02210A4800F021F80028FE
:101E7000F9D02146074800F027F800BF01210548A6
:101E800000F016F80028F9D0024800F01AF8C0B2A5
:101E900010BD00000050014021B1028842F0400214
:101EA000028004E002884FF6BF731A400280704738
:101EB0000246002013890B400BB1012000E00020F6
:101EC00070470146888970478181704710B50022AC
:101ED000028802F441520B884C8823438C882343A8
:101EE000CC8823430C8923434C8923438C89234387
:101EF000CC8923431A430280838B4FF2FF74234023
:101F000083830B8A038210BD70470000F0B585B053
:101F100004460D4616461F464FF400700090002000
:101F20008DF809008DF8080008208DF80A00200AB5
:101F30008DF80B00E1B28DF80C10290A8DF80D1008
:101F4000E9B28DF80E10310A8DF80F10F1B28DF84C
:101F50001010390A8DF81110F9B28DF81210694677
:101F60000248FFF734F805B0F0BD000000640040FF
:101F70000CB50020019000904148006840F480308A
:101F80003F49086000BF3E48006800F40030009000
:101F90000198401C0190009818B90198B0F5A04F25
:101FA000F1D13748006800F4003010B101200090F2
:101FB00001E0002000900098012860D130484030B6
:101FC000006840F080502E49403108602D4800687C
:101FD00040F440402B4908602948083000682849EF
:101FE000083108600846006840F400400860084670
:101FF000006840F4A05008602348091F0860081FCB
:10200000006840F08070091F086000BF1C4800682D
:1020100000F000700028F9D01A48006840F48030C1
:102020001849086000BF1748406800F48030002855
:10203000F9D01448006840F400301249086000BF2D
:102040001048406800F400300028F9D040F20570D4
:102050000E4908600A480830006820F0030008496B
:10206000083108600846006840F00200086000BFC0
:1020700003480830006800F00C000828F8D10CBDB7
:1020800000380240007000400C544007003C024001
:102090007047000010B51548006840F470001349FF
:1020A00008601348006840F00100114908600020F2
:1020B0000F49083108600E4800680E4908400C4975
:1020C00008600D48091D0860081F006820F4802082
:1020D000091F0860002006490C310860FFF748FF1F
:1020E0004FF0006001498039086010BD88ED00E0C4
:1020F00000380240FFFFF6FE1030002410B5012129
:10210000880700F036F838B10121880700F022F87E
:1021100001F02CF900F09CFB10BD000010B501216E
:10212000054800F026F828B10121034800F012F814
:1021300000F0D0FC10BD00000004004021B1028876
:1021400042F08002028004E002884FF67F731A405A
:1021500002807047CA430282704721B1028842F070
:102160000102028004E002884FF6FE731A400280EA
:10217000704730B50246002000230024158A05EA86
:102180000103958905EA010413B10CB1012000E0B7
:10219000002030BD1AB183890B43838102E083891B
:1021A0008B4383817047000070B500240022002318
:1021B000058C4FF6FE7635400584028C8388048BAF
:1021C0004FF68F752C40B51E2C400D882C43751E84
:1021D0002A408D892A434D882A43104DA84202D0B7
:1021E0000F4DA84213D14FF6F7752A40CD892A43E7
:1021F0004FF6FB752A408D882A434FF6FF652B402A
:102200004FF6FF552B400D8A2B434D8A2B4383807D
:1022100004838D684563028470BD000000000140A6
:10222000000401400A460021018B4FF6F773194064
:10223000114301837047000000220288184B984226
:102240000ED0184B98420BD0B0F1804F08D0164BEF
:10225000984205D0154B984202D0154B984204D1B4
:102260004FF68F731A404B881A43124B984207D08F
:10227000114B984204D04FF6FF431A400B891A4382
:1022800002804B68C3620B880385054B984202D0DD
:10229000044B984201D18B7A0386012383827047D5
:1022A000000001400004014000040040000800401C
:1022B000000C004000100040001400401FB5012138
:1022C0000220FFF725FC1D208DF8000000208DF86E
:1022D000010001208DF802008DF803006846FFF729
:1022E0006FF9A720ADF804004FF47A700290002037
:1022F000ADF80C00ADF8060001A90A48FFF79CFFF5
:1023000001210848FFF71AFF01210648FFF722FFC5
:10231000012211460348FFF73DFF01210148FFF765
:102320001CFF1FBD0004004010B540F224412848A6
:1023300000F094F9002849D0254800882448808876
:102340002448FFF74CF800BB00212248FEF774FF39
:102350002048FFF740F8C0F11E001F4908601E200A
:102360001C49091D0860081F006840F40020091F6F
:10237000086001211748FEF75FFF17480068122820
:1023800024D11648FFF778FC20E000211148FEF721
:1023900053FF1048FFF71FF8C0F11E000E490860F8
:1023A0001E200C49091D0860081F006820F4002049
:1023B000091F086001210748FEF73EFF0648006834
:1023C000122803D105481E30FFF756FC10BD00004F
:1023D0000010014040640240000000203C01002049
:1023E00010B540F224414A4800F038F900287DD069
:1023F000474800884648001D008800214548FEF7F0
:102400001BFF45494348FEF7FDFE002006E0434917
:10241000095C7F2901D1C4B202E0401C1028F6DB20
:1024200000BF3E4904F10F00085C7E2866D1601CA5
:10243000095C3A4AA01C105C41EA002000B238490D
:1024400008801146E01C095C201D105C41EA002058
:1024500000B2334948801146601D095CA01D105C24
:1024600041EA002000B22E4988801146E01D095C37
:10247000401C105C41EA002000B22949C880114686
:1024800004F10900095C401C105C41EA002000B224
:1024900023490881114604F10B00095C401C105CC3
:1024A00041EA002000B21E494881114604F10D00A6
:1024B000095C401C105C41EA002000B21849888188
:1024C0000846007817490870154840881649088062
:1024D00013488088154908801148C088144908802D
:1024E0000F480089134908800D4800E00EE040893C
:1024F000114908800A488089104908802021054830
:10250000FEF7A4FF01210348FEF796FE10BD000070
:10251000004400408860024000080020860100203E
:1025200078010020E9000020EC000020EE000020EF
:10253000F0000020F2000020F4000020F60000204F
:1025400021B1828942F40052828104E082894DF6F1
:10255000FF731A40828170471AB1838A0B438382CA
:1025600002E0838A8B4383827047000010B50446E3
:102570003248844208D101211020FFF7F9FA0021E6
:102580001020FFF7F5FA57E02D48844209D10121C8
:102590004804FFF7CDFA00214FF40030FFF7C8FAE6
:1025A0004AE02848844209D101218804FFF7C0FA93
:1025B00000214FF48020FFF7BBFA3DE0224884421F
:1025C00009D10121C804FFF7B3FA00214FF400201C
:1025D000FFF7AEFA30E01D48844209D10121080519
:1025E000FFF7A6FA00214FF48010FFF7A1FA23E0CD
:1025F0001748844208D101212020FFF7B9FA0021B1
:102600002020FFF7B5FA17E01248844209D10121D2
:102610008807FFF78DFA00214FF08040FFF788FA16
:102620000AE00D48844207D101214005FFF780FAF6
:1026300000216005FFF77CFA10BD0000001001408A
:102640000044004000480040004C00400050004062
:102650000014014000780040007C004070B5024644
:10266000002400230025002040F66A16B14200D164
:1026700000BFC1F3421501F01F03012606FA03F360
:10268000012D02D19689334006E0022D02D1168A2F
:10269000334001E0968A33400C12012606FA04F416
:1026A0001688344013B10CB1012000E0002070BD49
:1026B000F0B50346002400260025002040F66A17E6
:1026C000B94200D100BF1846C1F3421401F01F0601
:1026D000012707FA06F5012C01D10C3004E0022C89
:1026E00001D1103000E014301AB107682F430760A1
:1026F00002E00768AF430760F0BD00002DE9FF4727
:1027000005460E460024A14600BFA046B08900B190
:1027100000BF2C8A24F44054F08804432C82AC89F6
:1027200041F20C608443B0883189084371890843C1
:102730000443AC81AC8A24F44074B0890443AC8275
:102740006846FFF725FA2048854202D01F48854297
:1027500002D1DDF80C9001E0DDF80890A88900F4C2
:10276000004040B109EBC90000EB09103168490095
:10277000B0FBF1F707E009EBC90000EB0910316885
:102780008900B0FBF1F76420B7FBF0F004012009E9
:10279000642101FB1078A88900F4004040B1322088
:1027A00000EBC800B0FBF1F000F00700044308E0C4
:1027B000322000EB08106421B0FBF1F000F00F00B4
:1027C00004432C81BDE8FF87001001400014014044
:1027D0004FF41651016000218180C18001810C21DC
:1027E000418100218181704700BFFEE770470000F2
:1027F00010B507480078012802D0022806D102E06F
:1028000000F0C6FC02E0FFF7F1FF00BF00BF10BD03
:10281000E90000201CB501210220FFF769F9102012
:10282000009001208DF8040000208DF806000320A0
:102830008DF8050002208DF8070069460348FEF771
:1028400020FE10210148FEF787FE1CBD0004024057
:102850002DE9F0412DED0C8B8248006801F0ACFCB5
:1028600041EC190B8048006801F0A6FC41EC1B0B01
:102870007E48006801F02FFA41EC1D0B9FED7C0BA8
:1028800053EC102B01F07AFA41EC1C0B53EC1B2B90
:1028900001F0A8FB41EC1A0B53EC192B01F06EFA76
:1028A00041EC180B00F0AAFF734908607348408997
:1028B000022855D0724800684042724909680844AD
:1028C00000EE100AB8EEC00A6B48D0ED000A30EEF8
:1028D000200ABDEEC00A10EE100A00B26A49088054
:1028E0006748006867490968084400EE100AB8EEB6
:1028F000C00A6148D0ED000A30EE200ABDEEC00AE1
:1029000010EE100A00B2614908805D4800685D4918
:102910000968401A00EE100AB8EEC00A5648D0ED19
:10292000000A30EE200ABDEEC00A10EE100A00B216
:102930005749088052480068404252490968401A85
:1029400000EE100AB8EEC00A4B48D0ED000A30EE97
:10295000200ABDEEC00A10EE100A00B24D490880F0
:102960004C48B0F9000001F0B6F941EC180B4A49A7
:10297000B1F9020001F0AFF941EC190BB0EE481AC1
:10298000F0EE681AB0EE490AF0EE690A4348FEF725
:1029900053FEBDEEC00A10EE100A04B23C48B0F976
:1029A000000001F098F941EC180B3D49B1F9020023
:1029B00001F091F941EC190BB0EE481AF0EE681AEB
:1029C000B0EE490AF0EE690A3648FEF735FEBDEE74
:1029D000C00A10EE100A05B22C48B0F9000001F050
:1029E0007AF941EC180B3049B1F9020001F073F9A2
:1029F00041EC190BB0EE481AF0EE681AB0EE490A35
:102A0000F0EE690A2948FEF717FEBDEEC00A10EE87
:102A1000100A06B21C48B0F9000001F05CF941EC64
:102A2000180B2349B1F9020001F055F941EC190BDB
:102A3000B0EE481AF0EE681AB0EE490AF0EE690AF4
:102A40001C48FEF7F9FDBDEEC00A10EE100A07B2F1
:102A500023462A4631463846FFF758FABDEC0C8B20
:102A6000BDE8F0813401002090000020100100201A
:102A70007B14AE47E17A843F300100203806002005
:102A80000C01002008010020880000208A0000209E
:102A90008C0000208E0000204800002078030020D9
:102AA000400000202003002038000020C802002041
:102AB000300000207002002010B5002107E042F62F
:102AC0003C0200BF131EA2F10102FBD1491C81424E
:102AD000F5D310BD10B500F073F910BD10B5044664
:102AE000062221464920FEF747FD10BD10B53021D2
:102AF0006A2000F029FB0A20FFF7DEFF0D212420C9
:102B000000F022FB0A20FFF7D7FF0E21282000F05B
:102B10001BFB0A20FFF7D0FF8E21312000F014FBB1
:102B20000A20FFF7C9FF01210B2000F074F80A20EA
:102B3000FFF7C2FF002000F051F8102801D001205B
:102B400010BD01210B2000F066F80A20FFF7B4FF4A
:102B500000210A2000F05FF80A2000F03FF808B1D9
:102B60000220EDE70A20FFF7A7FF00210B2000F06D
:102B700052F80B2000F032F808B10320E0E70A20F9
:102B8000FFF79AFF2421412000F045F8412000F092
:102B900025F8242801D00420D2E70A20FFF78CFF73
:102BA000C021422000F037F8422000F017F8C0287A
:102BB00001D00520C4E70A20FFF77EFF00212A206C
:102BC00000F0C2FA0A20FFF777FF0021342000F05E
:102BD000BBFA0A20FFF770FF0020B1E770B504468A
:102BE0002146322000F0B0FA0A20FFF765FF80216D
:102BF000342000F0A9FA0A20FFF75EFF352000F02C
:102C000081FA05460021342000F09EFA0A20FFF7E1
:102C100053FF284670BD70B504460D4600212A209A
:102C200000F092FA0220FFF747FF2146292000F02A
:102C30008BFA0220FFF740FF2946642000F084FA57
:102C40000220FFF739FF81212A2000F07DFA0A20B7
:102C5000FFF732FF70BD00001CB501211020FEF708
:102C600047FF4FF40050009001208DF80400002031
:102C70008DF8060003208DF8050000208DF8070070
:102C800069460448FEF7FDFB4FF400510148FEF78A
:102C900065FC1CBD001002401CB501213020FEF770
:102CA00027FF8020009001208DF8040000208DF87F
:102CB000060003208DF8050000208DF80700694606
:102CC0000F48FEF7DEFB4FF48040009001208DF8A6
:102CD000040000208DF8060003208DF80500002078
:102CE0008DF8070069460748FEF7CBFB4FF480419B
:102CF0000448FEF733FC80210148FEF72FFC1CBD81
:102D0000001002400014024070470000FFF7C2F9B3
:102D1000FFF780FDFFF7C0FFFFF79EFF00F072FB9B
:102D20009FED0A0A00F01AFC9FED090A00F0BCFCB6
:102D3000FFF72AF800F00EF8FEF7B2FDFFF7BEFA33
:102D4000FEF7D8F901E0FFF7DFFFFCE70050C347CB
:102D50000000E1471FB580216B2000F0F5F96420E9
:102D6000FFF7AAFE0721682000F0EEF96420FFF7C4
:102D7000A3FE752000F0C6F90F4908700F4B0FCB6A
:102D80008DE80F00002400BF0CE06A4602EB44020D
:102D900051781DF8140000F0D7F90120FFF78CFEE0
:102DA000601CC4B2072CF0DBFFF7A0FE00F0D2F8E5
:102DB000002004B010BD000014000020B042000844
:102DC00010B50E225A493B20FEF7D6FB58484078F2
:102DD0005749097840EA012000B256490880544812
:102DE000C0785349897840EA012000B251494880AF
:102DF0004F4840794E49097940EA012000B24D49D7
:102E000088804B48C0794A49897940EA012000B25C
:102E1000484988814648407A4549097A40EA012074
:102E20004449498B401A00B24249C8814048C07A9F
:102E30003F49897A40EA01203E49898B401A00B215
:102E40003C4908823A48407B3949097B40EA0120E5
:102E50003849C98B401A00B2364948823648FFF7D4
:102E60003DFE344834490A68C0F80620898841810B
:102E7000324830490A6802604A6842608968816065
:102E80002C48B0F90C0000EE100AB8EEC00ADFEDD5
:102E90002C0A80EE201AB3EE050A31EE000A27480C
:102EA00080ED030A2348B0F90E0000EE100AF8EE98
:102EB000C00A9FED241A80EE810ADFED230A80EE1E
:102EC000201A1E4880ED051A1A48B0F9100000EECD
:102ED000100AF8EEC00A9FED1B1A80EE810ADFEDA2
:102EE0001A0A80EE201A154880ED061A1148B0F92A
:102EF000120000EE100AF8EEC00A9FED121A80EEE2
:102F0000810ADFED110A80EE201A0C4880ED071AC5
:102F100090ED070AB1EE400A0C4880ED000A074820
:102F200090ED050AB1EE400A094880ED000A10BD97
:102F3000B6010020C401002006000020E4010020AA
:102F40005CEFA6436F12834133336542900000204B
:102F50009400002010B52DED048B002450E00E22CB
:102F600064493B20FEF708FB6248407861490978D4
:102F700040EA01206049898A084400B25E4988829B
:102F80005C48C0785B49897840EA01205A49C98A7F
:102F9000084400B25849C8825648407955490979D1
:102FA00040EA01205449098B084400B25249088381
:102FB0005048407A4F49097A40EA01204E49498BEE
:102FC000084400B24C4948834A48C07A4949897A42
:102FD00040EA01204849898B084400B24649888369
:102FE0004448407B4349097B40EA01204249C98B60
:102FF000084400B24049C8830120FFF75DFD641C0E
:10300000B4F5FA7FABDB3C49B1F9140000F063FE84
:1030100041EC190B9FED390B53EC102B00F0D4FC55
:1030200041EC180B00F028FE00B233498882B1F958
:10303000160000F050FE41EC190B9FED300B53ECE5
:10304000102B00F0C1FC41EC180B00F015FE00B293
:103050002949C882B1F9180000F03DFE41EC190B76
:103060009FED260B53EC102B00F0AEFC41EC180B3F
:1030700000F002FE00B220490883B1F91A0000F006
:103080002AFE41EC190B9FED1D0B53EC102B00F0A9
:103090009BFC41EC180B00F0EFFD00B21649488391
:1030A000B1F91C0000F017FE41EC190B9FED130B5A
:1030B00053EC102B00F088FC41EC180B00F0DCFD09
:1030C00000B20D498883B1F91E0000F004FE41EC06
:1030D000190B9FED0A0B53EC102B00F075FC41EC23
:1030E000180B00F0C9FD00B20349C883BDEC048B86
:1030F00010BD0000B6010020C40100200000000047
:1031000000407F4010B5044640210C48FEF724FAE9
:1031100044F080000A49087008460078FEF7A0FED7
:103120000849087006480078FEF79AFE05490870BD
:1031300040210248FEF712FA002010BD00140240A0
:10314000040000200500002070B504460D46402113
:103150000C48FEF701FA04F07F000B49087008469E
:103160000078FEF77DFE0949087007480570007871
:10317000FEF776FE0549087040210248FEF7EEF999
:10318000002070BD00140240040000200500002053
:1031900010B52DED048B3F48007870280ED006DC6A
:1031A000612833D064283ED065286FD15BE0712858
:1031B00046D073281BD0772868D109E00020364913
:1031C00008803649088036490880364908805DE025
:1031D0004FF6F860304908804FF484702F4908801A
:1031E0002F4908804FF6F8602E4908804EE04FF4D2
:1031F0008470294908804FF6F860284908802849DA
:1032000008804FF48470274908803FE04FF6F8604B
:1032100021490880214908804FF4847020490880A2
:103220002049088032E04FF484701B4908801B4914
:1032300008804FF6F8601A4908801A49088025E08E
:103240001948006800F0B8FF41EC190B9FED170B0F
:1032500053EC102B00F004FB41EC180B00F0CEFAFD
:103260001149086012E01048006800F0A5FF41EC29
:10327000190B9FED100B53EC102B00F0F1FA41EC01
:10328000180B00F0BBFA0849086000BF00BFBDEC96
:10329000048B10BDE8000020880000208A00002078
:1032A0008C0000208E000020B400002048E17A1439
:1032B000AE47F1BF48E17A14AE47F13F2448008899
:1032C000A0F2044000EE100AB8EEC00A2148D0ED8A
:1032D000000A20EE200ABDEEC00A1F4880ED000A59
:1032E0001B484088A0F5806000EE100AB8EEC00AC6
:1032F0001848D0ED000A20EE200ABDEEC00A17489B
:1033000080ED000A12488088A0F5806000EE100A67
:10331000B8EEC00A1248D0ED000A20EE200ABDEE39
:10332000C00A104880ED000A0948C088A0F58060F6
:1033300000EE100AB8EEC00A0948D0ED000A20EEEF
:10334000200ABDEEC00A084880ED000A7047000060
:103350003806002018010020080100200C01002080
:103360001C010020100100201401002020480089C9
:10337000012811D11F48007803280DD11E4800787C
:1033800050B901201C49087040200106486340F2F2
:1033900002301A49086015E015480089012811D14A
:1033A0001448007803280DD113480078012809D16A
:1033B0000020114908703220410748634FF4FA7029
:1033C0000E4908600A480089022808D10A48007896
:1033D000012804D14FF4FA600949088002E0002076
:1033E000074908800248007A0249087070470000C7
:1033F0003806002038010020390100203408004040
:10340000D800002000B58BB001210920FEF770FB29
:1034100001210846FEF77CFB01210420FEF778FB22
:103420000120099002208DF8280003208DF8290042
:1034300009A94748FEF725F84FF48050099002206B
:103440008DF8280003208DF8290009A94148FEF7CE
:1034500018F8012200213E48FEF75BF802220C21F9
:103460003C48FEF756F8A720ADF818000020ADF84C
:103470001A004FF47A7007900020ADF8200006A9DA
:103480004FF08040FEF7D8FE1C208DF80000012090
:103490008DF8010000208DF8020001208DF8030056
:1034A0006846FEF78DF801218807FEF753FE0122DA
:1034B00011469007FEF76EFE5920ADF81800002067
:1034C000ADF81A0040F6C41007900020ADF82000B7
:1034D00006A92148FEF7B0FE7020ADF804000120D7
:1034E000ADF806000020ADF808000220ADF810008D
:1034F0000020ADF81200ADF814004FF48070ADF864
:1035000016003220039001A94007FEF74DFE4FF44C
:10351000FA70039001A91048FEF746FE0821C8067C
:10352000FEF780FE08210C48FEF77CFE012188078B
:10353000FEF704FE01210848FEF700FE012188077E
:10354000FEF70BFE01210448FEF707FE0BB000BD9D
:1035500000000240000C02400008004000B52DEDC4
:10356000028B97B0B0EE408A01210220FEF7C0FA2C
:1035700001211020FEF7ECFA01218805FEF7B8FAC8
:10358000072211464448FDF7C4FF15A8FDF7E8FFE0
:103590008020159002208DF8580003208DF85900E6
:1035A00001208DF85B0015A93B48FDF76AFF3B48F9
:1035B000FEF7DCFF11A8FFF70BF9BCEEC80A8DED92
:1035C000110A0020ADF84800ADF84A004FF48060C1
:1035D000ADF84C000020ADF850000420ADF84E00CE
:1035E00011A92E48FFF78AF8012240212B48FEF747
:1035F000B3FF2B48FDF72CFE01A8FDF729FF4FF084
:10360000006001902548001D02902648039000208C
:1036100004901E200590002006904FF480600790D3
:103620000020089009904FF480700A9000020B90DF
:1036300000200C900D900E900F9001A91848FDF7F6
:10364000D9FE002217491E311548FDF7B8FE0121A9
:103650001348FDF7A9FE01211148FDF7EDFD2520D6
:103660008DF8400002208DF8410000208DF84200C6
:1036700001208DF8430010A8FDF7A2FF012240F2BF
:1036800024410648FFF714F801210448FEF758FFCB
:1036900017B0BDEC028B00BD0004024000100140D9
:1036A000406402403C01002000B52DED028B97B034
:1036B000B0EE408A01210820FEF71AFA01214804E1
:1036C000FEF726FA01214805FEF712FA0722052126
:1036D0004048FDF71EFF072206213E48FDF719FF6F
:1036E00015A8FDF73DFF6020159002208DF85800C9
:1036F00003208DF8590001208DF85B0015A935488D
:10370000FDF7BFFE3448FEF731FF11A8FFF760F860
:10371000BCEEC80A8DED110A0020ADF84800ADF8E6
:103720004A004FF48060ADF84C000020ADF8500026
:103730000C20ADF84E0011A92748FEF7DFFF01224B
:1037400040212548FEF708FF2448FDF781FD4FF092
:10375000006001902048001D029021480390002045
:10376000049020200590002006904FF48060079080
:103770000020089009904FF480700A904FF4403078
:103780000B9000200C900D900E900F9001A9134803
:10379000FDF730FE01211148FDF74EFD26208DF882
:1037A000400002208DF8410001208DF842008DF884
:1037B000430010A8FDF704FF012240F2244106480F
:1037C000FEF776FF01210448FEF7BAFE17B0BDEC04
:1037D000028B00BD000C02400044004088600240A3
:1037E0008601002081F00041704780F00040704762
:1037F00021F00041704720F00040704721F0004266
:10380000A2F16052B2F5801F01F0004328BFD2F14F
:103810007F6C0BD95FEA001C43EAC20242EB507096
:1038200018BF704728BF20F001007047B2F5801F15
:10383000BCBF184670474FEA410C1CF5001F02D26E
:10384000084600F02FBD70B500F042FB0000008973
:10385000FFF7F6BF4FF00040A0F580007047000072
:1038600010B591EA030F48BF83F0004300F1C28313
:10387000841A71EB030C05D2121943EB0C03001BE5
:1038800061EB0C01DFF824E14FEA1154A4EB135C67
:103890001EEA430F18BF9EEA445F73D023EA0E036B
:1038A000DCF1200E21EA045143F4801332D322FAD2
:1038B0000CFE10EB0E0023FA0CFE41EB0E01CCF1D6
:1038C000200E03FA0EFE10EB0E0051F10001B1F5CF
:1038D000801FCCF1200E32D201EB045112FA0EF20D
:1038E000BDE8104058BF7047401C38BF5FEA420235
:1038F00018BF7047002814BF20F0010041F10001FB
:103900004FEA410313F5001F38BF7047A1F1C041D2
:1039100000F02CBB012A43EB0302ACF1200CDCF1DC
:103920001F0E32BF4FF0000E23FA0CF310EB030012
:1039300041EB0451B4EB115FD0D0A1EB045101F580
:10394000801149085FEA300001EB04510ED350F1B9
:10395000000038BF12FA0EFE08D1BDE81040C9E7DA
:10396000401C38BF5FEA4202CAD1C3E7BDE810403D
:103970004FEA410313F5001F38BF7047A1F1C04162
:1039800000F0F4BA9EEA445F08D011EA5E0FBDE889
:10399000104004BF01F0004100207047BDE8104016
:1039A00070B500F095FA00BF64FBBE3E0000E0FF7A
:1039B000491058BFC1F140415B1058BFC3F14043AB
:1039C0008B42EFF3008070472DE9C04130B4DFF83F
:1039D000A0C23CEA111418BF3CEA131400F0EC80BA
:1039E00081EA03051CEA111444EAD57418BF1CEAE5
:1039F000131500F0C780A4EB05044FF0004545EA1D
:103A0000C12145EAC32341EA505143EA525304F12C
:103A10007F74994204F500344FEAC0204FEAC22275
:103A200008BF904200F09C804FEA13650FF24016E9
:103A3000765D4FEA134506FB05F7C7F1807706FB75
:103A400007F74FEAD737A7FB03687642C8F58038F7
:103A5000A7FB06CE38BFA8F1010807FB08E64FF028
:103A6000000EA6FB028CE6FB03CEDCF1000CCEF1CF
:103A7000004E38BFAEF1010EA6FB0C584FF0000708
:103A80004FF00005E6FB0E87A1FB08C6A0FB07CEA2
:103A900016EB0E0645F10005E1FB076515F1E04E5A
:103AA0007EBFA4F580345FEA46066D4116F18007BB
:103AB00045F100054FEA17274FEA066647EA056712
:103AC000A6F1DE46B6F1805F4FEA15251FD93846CC
:103AD00024F0010C05EBC471BCF1FE6F01EB0C117D
:103AE00002D8F0BCBDE8008124425CBF01F5801E15
:103AF0009EEAC47F02D4F0BCBDE80081244238D4E1
:103B0000F0BCA1F1C041BDE8004100F02FBA4FEA7E
:103B1000D22242EA43524FEAD323A7FB02864FEA5E
:103B2000D02040EA415007FB03661EEA0E0F4FEA21
:103B3000D12105FB026658BFA6EB0056B6EB005636
:103B40004FEA520E4EEAC37E18EB0E0E56EB530EA2
:103B5000BDD518EB02085E417F1C55F10005B6E7A4
:103B60004FF480154FF000074FF000064FF00008AB
:103B7000ADE7F0BC4FF0000001F1C04101F00041A1
:103B8000BDE8008111EA0C1F0CEA131500D00CE00F
:103B900013EA0C1F00F025804FF00000F0BC81EA12
:103BA000030101F00041BDE80081F0BCBDE8004127
:103BB00081EA030100F0DAB9F0BCBDE8004170B55C
:103BC00000F086F9097EFC3E00F007B881EA0301A7
:103BD0004FF0000001F00041704781EA030100F05E
:103BE000C5B9F0BCBDE800414FF000002149704765
:103BF000FFFDFBF9F7F5F4F2F0EEEDEBE9E8E6E4B2
:103C0000E3E1E0DEDDDBDAD8D7D5D4D3D1D0CFCD38
:103C1000CCCBCAC8C7C6C5C4C2C1C0BFBEBDBCBB71
:103C2000BAB9B8B7B6B5B4B3B2B1B0AFAEADACAB6C
:103C3000AAA9A8A8A7A6A5A4A3A3A2A1A09F9F9E46
:103C40009D9C9C9B9A9999989797969595949393F8
:103C5000929191908F8F8E8E8D8C8C8B8B8A89898F
:103C60008888878786858584848383828281818012
:103C70000000FF070000F87F4FEA41034FEA53536B
:103C8000A3F58063D3F11E03C8BFD3F1210C0CDD73
:103C90004FF0004242EAC12242EA505232FA03FC9B
:103CA0008CEAE17CACEBE1707047102BC4BF0020C4
:103CB000704703F5787CBCF1FF3F04D06FF0004201
:103CC00082EA2100704770B500F002F94992248021
:103CD00000207047F2E710F0004248BF4042B0FABF
:103CE00080F310FA03F10AD0C3F11D0303F58063DA
:103CF0004FEA415002EB035202EBD12170474FF0E3
:103D00000000704751EA030C17D41CF5801F58BF00
:103D1000BCF5801F00F10680994218BF704708BFAC
:103D20009042704707D711F5801F58BF13F5801FC9
:103D300019D499427047894270471CF5801F08D5F5
:103D4000BCF5801FF7D58B4218BF704708BF824271
:103D500070474FF4001C1CEB410F38BF1CEB430FA6
:103D600001D28B42704770B500F0B2F8922449003E
:103D70004FF000514FF08053FFF71ABEDFF848C1F3
:103D800070B51CEA111E1EBF1CEA13159EEA0C0F2B
:103D900095EA0C0F00F06F8081EA030423EA4C13CC
:103DA0004EEAD47E21EA4C1141F4801143F4801391
:103DB000AE44A1FB024CA0FB0365AEF17F7E361939
:103DC00055EB0C05A1FB034C4CF10003A0FB021CBE
:103DD00016EB0C06654153F10003094218BF46F08B
:103DE000010613F4007F0BD14FEA03314FEA05308F
:103DF000340341EA155140EA16506FF003020AE01D
:103E00004FEAC3214FEAC520F40241EA555140EA86
:103E100056506FF0020202EB2E4201EB025585EA8A
:103E2000CE710AD05FEA440C18BF24F0004450F170
:103E3000000041F1000120EAD47040F2FE7C6245AE
:103E400000D270BDA84214BF4FF080444FF04044F0
:103E5000002E08BF0024BEF1806FA8BFA1F1C041B1
:103E6000BDE8704080F282804FF0000001F1C04157
:103E700001F0004170479EEA0C0F0CEA131518BFC1
:103E800095EA0C0F06D04FF0000081EA030E0EF009
:103E9000004170BD00F01CF88900013E00F007B839
:103EA00000F009B84FEA430C5FEA5C5C08D081EA95
:103EB000030100F05BB84FEA410C5FEA5C5CF6D1AD
:103EC0004FF00000014970470000FF070000F87F35
:103ED0000EF1020E2EF0030E5EF8046B364205D48E
:103EE000012A43EB030515F5001F12D8012841EB09
:103EF000010C1CF5001F0CD80ED14FEAD17C15F532
:103F0000001F0CEB4C0C0CF1020C08BF4CEBD37CEB
:103F100004E04FF0080C01E04FEAD37C0CEB4C05B9
:103F200026FA05F606F00706B6F1040C06D20EEBEB
:103F3000860CBDE870404CF0010C6047DFE80CF0E7
:103F4000090B02024FF000414FF00000A1F50021E3
:103F500070BD19461046012851EB010418BFD4F575
:103F6000001484BF002001F0004170BD0808A0F5D6
:103F700000114FEA3101704753EA010C17D41CF5C8
:103F8000801F58BFBCF5801F00F106808B4218BF10
:103F9000704708BF8242704707D713F5801F58BF8C
:103FA00011F5801F19D48B4270479B4270471CF556
:103FB000801F08D5BCF5801FF7D5994218BF704700
:103FC00008BF904270474FF4001C1CEB430F38BFF2
:103FD0001CEB410F01D2994270470FB40CBC03BCDB
:103FE000FFF7C1BE10B591EA030F48BF83F000434D
:103FF0003FF53EAC841A71EB030C07D212198CF01A
:10400000004C43EB0C03001B61EB0C01DFF8A4E157
:104010004FEA1154A4EB135C1EEA430F18BF9EEA4B
:10402000445F00F0B08023EA6E03524221EA04515B
:10403000C3EB6E0338BF5B1EDCF1200E25D322FAE2
:104040000CFE10EB0E0043FA0CFE41EB0E01CCF11E
:10405000200E03FA0EFE10EB0E0051F10001CCF120
:10406000200E29D412FA0EF201EB0451BDE81040E3
:1040700058BF7047401C1CBFB2F1004F704700286A
:104080000CBF491C20F00100704712EB020E43EBFD
:10409000030218BF4FF0010E4EEA4202ACF1200CB1
:1040A000DCF11E0E54D943FA0CFE10EB0E0051F158
:1040B000FF31CCF11E0ED5D50EF1010E12FA0EFE17
:1040C000404141EB010101EB445C5FEA5C5C10D9CB
:1040D00010EBDE7001EB045138BFBEF1004FBDE8BC
:1040E000104018BF704700280CBF491C20F0010089
:1040F000704730D24FEAD42C11F5001124F400643B
:104100001BD0B1FA81F20B3AA41AA41ED2F12003FB
:10411000914030FA03F31943904001EBCC71002C2D
:1041200001EB0451BDE81040A8BF704701F1C04148
:104130004FF0000001F000417047B0FA80F310FA30
:1041400003F100D110BDE41A173C4805C90AE4E7A1
:1041500001EB045110BD491001EB0451BDE81040C2
:104160004FEA300002E04FF0000170474A0008BFFC
:104170000042F8D0B2F5001F28BF704701F000419F
:104180004FF0000070479EEA445F07D011EA5E0FCF
:10419000BDE8104004BF002100207047BDE810407A
:1041A00070B5FFF795FE00BF40DFF63E83F000419B
:1041B000104670470000E0FF43004FEAD30C4FEA7F
:1041C0003C0C43401FBF40070CF1605113F0FE4F01
:1041D00070471CF0006F03D100200CF000417047C5
:1041E0000CF0004343EA507010B540EACC0000F0F8
:1041F0000EF800BF000000924FEA0001FFF7B6BEC4
:104200004FF000414FF00000A1F5002170470EF182
:10421000020E2EF0030E5EF8044B244204D44FEA43
:104220004102B2F17F4F11D84FEA4003B3F17F4F03
:104230000CD80ED14FEAD07CB2F17F4F0CEB4C0C76
:104240000CF1020C08BF4CEBD17C04E04FF0080CE1
:1042500001E04FEAD17C0CEB4C0324FA03F404F0A8
:104260000704B4F1040C06D20EEB840CBDE8104038
:104270004CF0010C6047DFE80CF0070802024FF039
:104280000040A0F5800010BD0846420018BFD2F1E2
:10429000807288BF00F0004010BD4FF04070E1EE2A
:1042A000100A7047FF2141EAD050C0057047000056
:1042B0006B036C001A041B181C101D046A200000FC
:1042C000E0420008000000203C010000C40100089A
:1042D0000C4300083C010020740B00002002000881
:1042E00001B8233519033EF00A2D01020304040529
:1042F00010060708092D9A99993E046009A69B4467
:0C4300003BCDCC4C3D6340BF4316430056
:040000050800018965
:00000001FF
